{
	"Desktop/SolidityGit/Hostel.sol": {
		"Hostel": {
			"abi": [
				{
					"inputs": [
						{
							"internalType": "uint256",
							"name": "",
							"type": "uint256"
						}
					],
					"name": "Rent_by_No",
					"outputs": [
						{
							"internalType": "uint256",
							"name": "rentno",
							"type": "uint256"
						},
						{
							"internalType": "uint256",
							"name": "roomid",
							"type": "uint256"
						},
						{
							"internalType": "uint256",
							"name": "agreementid",
							"type": "uint256"
						},
						{
							"internalType": "string",
							"name": "Roomname",
							"type": "string"
						},
						{
							"internalType": "string",
							"name": "RoomAddresss",
							"type": "string"
						},
						{
							"internalType": "uint256",
							"name": "rent_per_month",
							"type": "uint256"
						},
						{
							"internalType": "uint256",
							"name": "timestamp",
							"type": "uint256"
						},
						{
							"internalType": "address payable",
							"name": "tenantAddress",
							"type": "address"
						},
						{
							"internalType": "address payable",
							"name": "landlordAddress",
							"type": "address"
						}
					],
					"stateMutability": "view",
					"type": "function"
				},
				{
					"inputs": [
						{
							"internalType": "uint256",
							"name": "",
							"type": "uint256"
						}
					],
					"name": "RoomAgreement_by_No",
					"outputs": [
						{
							"internalType": "uint256",
							"name": "roomid",
							"type": "uint256"
						},
						{
							"internalType": "uint256",
							"name": "agreementid",
							"type": "uint256"
						},
						{
							"internalType": "string",
							"name": "Roomname",
							"type": "string"
						},
						{
							"internalType": "string",
							"name": "RoomAddresss",
							"type": "string"
						},
						{
							"internalType": "uint256",
							"name": "rent_per_month",
							"type": "uint256"
						},
						{
							"internalType": "uint256",
							"name": "securityDeposit",
							"type": "uint256"
						},
						{
							"internalType": "uint256",
							"name": "lockInPeriod",
							"type": "uint256"
						},
						{
							"internalType": "uint256",
							"name": "timestamp",
							"type": "uint256"
						},
						{
							"internalType": "address payable",
							"name": "tenantAddress",
							"type": "address"
						},
						{
							"internalType": "address payable",
							"name": "landlordAddress",
							"type": "address"
						}
					],
					"stateMutability": "view",
					"type": "function"
				},
				{
					"inputs": [
						{
							"internalType": "uint256",
							"name": "",
							"type": "uint256"
						}
					],
					"name": "Room_by_No",
					"outputs": [
						{
							"internalType": "uint256",
							"name": "roomid",
							"type": "uint256"
						},
						{
							"internalType": "uint256",
							"name": "agreementid",
							"type": "uint256"
						},
						{
							"internalType": "string",
							"name": "roomname",
							"type": "string"
						},
						{
							"internalType": "string",
							"name": "roomaddress",
							"type": "string"
						},
						{
							"internalType": "uint256",
							"name": "rent_per_month",
							"type": "uint256"
						},
						{
							"internalType": "uint256",
							"name": "securityDeposit",
							"type": "uint256"
						},
						{
							"internalType": "uint256",
							"name": "timestamp",
							"type": "uint256"
						},
						{
							"internalType": "bool",
							"name": "vacant",
							"type": "bool"
						},
						{
							"internalType": "address payable",
							"name": "landlord",
							"type": "address"
						},
						{
							"internalType": "address payable",
							"name": "currentTenant",
							"type": "address"
						}
					],
					"stateMutability": "view",
					"type": "function"
				},
				{
					"inputs": [
						{
							"internalType": "string",
							"name": "_roomname",
							"type": "string"
						},
						{
							"internalType": "string",
							"name": "_roomaddress",
							"type": "string"
						},
						{
							"internalType": "uint256",
							"name": "_rentcost",
							"type": "uint256"
						},
						{
							"internalType": "uint256",
							"name": "_securitydeposit",
							"type": "uint256"
						}
					],
					"name": "addRoom",
					"outputs": [],
					"stateMutability": "nonpayable",
					"type": "function"
				},
				{
					"inputs": [
						{
							"internalType": "uint256",
							"name": "_index",
							"type": "uint256"
						}
					],
					"name": "agreementCompleted",
					"outputs": [],
					"stateMutability": "payable",
					"type": "function"
				},
				{
					"inputs": [
						{
							"internalType": "uint256",
							"name": "_index",
							"type": "uint256"
						}
					],
					"name": "agreementTerminated",
					"outputs": [],
					"stateMutability": "nonpayable",
					"type": "function"
				},
				{
					"inputs": [],
					"name": "no_of_agreement",
					"outputs": [
						{
							"internalType": "uint256",
							"name": "",
							"type": "uint256"
						}
					],
					"stateMutability": "view",
					"type": "function"
				},
				{
					"inputs": [],
					"name": "no_of_rent",
					"outputs": [
						{
							"internalType": "uint256",
							"name": "",
							"type": "uint256"
						}
					],
					"stateMutability": "view",
					"type": "function"
				},
				{
					"inputs": [],
					"name": "no_of_rooms",
					"outputs": [
						{
							"internalType": "uint256",
							"name": "",
							"type": "uint256"
						}
					],
					"stateMutability": "view",
					"type": "function"
				},
				{
					"inputs": [
						{
							"internalType": "uint256",
							"name": "_index",
							"type": "uint256"
						}
					],
					"name": "payRent",
					"outputs": [],
					"stateMutability": "payable",
					"type": "function"
				},
				{
					"inputs": [
						{
							"internalType": "uint256",
							"name": "_index",
							"type": "uint256"
						}
					],
					"name": "signAgreement",
					"outputs": [],
					"stateMutability": "payable",
					"type": "function"
				}
			],
			"devdoc": {
				"kind": "dev",
				"methods": {},
				"version": 1
			},
			"evm": {
				"assembly": "    /* \"Desktop/SolidityGit/Hostel.sol\":58:6113  contract Hostel{... */\n  mstore(0x40, 0x80)\n    /* \"Desktop/SolidityGit/Hostel.sol\":166:167  0 */\n  0x00\n    /* \"Desktop/SolidityGit/Hostel.sol\":140:167  uint public no_of_rooms = 0 */\n  0x02\n  sstore\n    /* \"Desktop/SolidityGit/Hostel.sol\":204:205  0 */\n  0x00\n    /* \"Desktop/SolidityGit/Hostel.sol\":174:205  uint public no_of_agreement = 0 */\n  0x03\n  sstore\n    /* \"Desktop/SolidityGit/Hostel.sol\":237:238  0 */\n  0x00\n    /* \"Desktop/SolidityGit/Hostel.sol\":212:238  uint public no_of_rent = 0 */\n  0x04\n  sstore\n    /* \"Desktop/SolidityGit/Hostel.sol\":58:6113  contract Hostel{... */\n  callvalue\n  dup1\n  iszero\n  tag_1\n  jumpi\n  0x00\n  dup1\n  revert\ntag_1:\n  pop\n  dataSize(sub_0)\n  dup1\n  dataOffset(sub_0)\n  0x00\n  codecopy\n  0x00\n  return\nstop\n\nsub_0: assembly {\n        /* \"Desktop/SolidityGit/Hostel.sol\":58:6113  contract Hostel{... */\n      mstore(0x40, 0x80)\n      jumpi(tag_1, lt(calldatasize, 0x04))\n      shr(0xe0, calldataload(0x00))\n      dup1\n      0x4f5e4428\n      gt\n      tag_13\n      jumpi\n      dup1\n      0x4f5e4428\n      eq\n      tag_7\n      jumpi\n      dup1\n      0x59e2cbec\n      eq\n      tag_8\n      jumpi\n      dup1\n      0x63e475bd\n      eq\n      tag_9\n      jumpi\n      dup1\n      0x75eb9ef6\n      eq\n      tag_10\n      jumpi\n      dup1\n      0xd0d205b7\n      eq\n      tag_11\n      jumpi\n      dup1\n      0xd9e8843f\n      eq\n      tag_12\n      jumpi\n      jump(tag_1)\n    tag_13:\n      dup1\n      0x02bb2725\n      eq\n      tag_2\n      jumpi\n      dup1\n      0x03742de0\n      eq\n      tag_3\n      jumpi\n      dup1\n      0x0ff2a806\n      eq\n      tag_4\n      jumpi\n      dup1\n      0x16abb8a1\n      eq\n      tag_5\n      jumpi\n      dup1\n      0x46959587\n      eq\n      tag_6\n      jumpi\n    tag_1:\n      0x00\n      dup1\n      revert\n        /* \"Desktop/SolidityGit/Hostel.sol\":942:999  mapping(uint => RoomAgreement) public RoomAgreement_by_No */\n    tag_2:\n      callvalue\n      dup1\n      iszero\n      tag_14\n      jumpi\n      0x00\n      dup1\n      revert\n    tag_14:\n      pop\n      tag_15\n      0x04\n      dup1\n      calldatasize\n      sub\n      dup2\n      add\n      swap1\n      tag_16\n      swap2\n      swap1\n      tag_17\n      jump\t// in\n    tag_16:\n      tag_18\n      jump\t// in\n    tag_15:\n      mload(0x40)\n      tag_19\n      swap11\n      swap10\n      swap9\n      swap8\n      swap7\n      swap6\n      swap5\n      swap4\n      swap3\n      swap2\n      swap1\n      tag_20\n      jump\t// in\n    tag_19:\n      mload(0x40)\n      dup1\n      swap2\n      sub\n      swap1\n      return\n        /* \"Desktop/SolidityGit/Hostel.sol\":3627:4761  function signAgreement(uint _index) public payable notLandLord(_index) enoughAgreementfee(_index) OnlyWhileVacant(_index) {... */\n    tag_3:\n      tag_21\n      0x04\n      dup1\n      calldatasize\n      sub\n      dup2\n      add\n      swap1\n      tag_22\n      swap2\n      swap1\n      tag_17\n      jump\t// in\n    tag_22:\n      tag_23\n      jump\t// in\n    tag_21:\n      stop\n        /* \"Desktop/SolidityGit/Hostel.sol\":174:205  uint public no_of_agreement = 0 */\n    tag_4:\n      callvalue\n      dup1\n      iszero\n      tag_24\n      jumpi\n      0x00\n      dup1\n      revert\n    tag_24:\n      pop\n      tag_25\n      tag_26\n      jump\t// in\n    tag_25:\n      mload(0x40)\n      tag_27\n      swap2\n      swap1\n      tag_28\n      jump\t// in\n    tag_27:\n      mload(0x40)\n      dup1\n      swap2\n      sub\n      swap1\n      return\n        /* \"Desktop/SolidityGit/Hostel.sol\":5437:5901  function agreementCompleted(uint _index) public payable onlyLandlord(_index) AgreementTimesUp(_index){... */\n    tag_5:\n      tag_29\n      0x04\n      dup1\n      calldatasize\n      sub\n      dup2\n      add\n      swap1\n      tag_30\n      swap2\n      swap1\n      tag_17\n      jump\t// in\n    tag_30:\n      tag_31\n      jump\t// in\n    tag_29:\n      stop\n        /* \"Desktop/SolidityGit/Hostel.sol\":557:596  mapping(uint => Room) public Room_by_No */\n    tag_6:\n      callvalue\n      dup1\n      iszero\n      tag_32\n      jumpi\n      0x00\n      dup1\n      revert\n    tag_32:\n      pop\n      tag_33\n      0x04\n      dup1\n      calldatasize\n      sub\n      dup2\n      add\n      swap1\n      tag_34\n      swap2\n      swap1\n      tag_17\n      jump\t// in\n    tag_34:\n      tag_35\n      jump\t// in\n    tag_33:\n      mload(0x40)\n      tag_36\n      swap11\n      swap10\n      swap9\n      swap8\n      swap7\n      swap6\n      swap5\n      swap4\n      swap3\n      swap2\n      swap1\n      tag_37\n      jump\t// in\n    tag_36:\n      mload(0x40)\n      dup1\n      swap2\n      sub\n      swap1\n      return\n        /* \"Desktop/SolidityGit/Hostel.sol\":5911:6102  function agreementTerminated(uint _index) public onlyLandlord(_index) AgreementTimesLeft(_index){... */\n    tag_7:\n      callvalue\n      dup1\n      iszero\n      tag_38\n      jumpi\n      0x00\n      dup1\n      revert\n    tag_38:\n      pop\n      tag_39\n      0x04\n      dup1\n      calldatasize\n      sub\n      dup2\n      add\n      swap1\n      tag_40\n      swap2\n      swap1\n      tag_17\n      jump\t// in\n    tag_40:\n      tag_41\n      jump\t// in\n    tag_39:\n      stop\n        /* \"Desktop/SolidityGit/Hostel.sol\":140:167  uint public no_of_rooms = 0 */\n    tag_8:\n      callvalue\n      dup1\n      iszero\n      tag_42\n      jumpi\n      0x00\n      dup1\n      revert\n    tag_42:\n      pop\n      tag_43\n      tag_44\n      jump\t// in\n    tag_43:\n      mload(0x40)\n      tag_45\n      swap2\n      swap1\n      tag_28\n      jump\t// in\n    tag_45:\n      mload(0x40)\n      dup1\n      swap2\n      sub\n      swap1\n      return\n        /* \"Desktop/SolidityGit/Hostel.sol\":3224:3620  function addRoom(string memory _roomname, string memory _roomaddress, uint _rentcost, uint  _securitydeposit) public {... */\n    tag_9:\n      callvalue\n      dup1\n      iszero\n      tag_46\n      jumpi\n      0x00\n      dup1\n      revert\n    tag_46:\n      pop\n      tag_47\n      0x04\n      dup1\n      calldatasize\n      sub\n      dup2\n      add\n      swap1\n      tag_48\n      swap2\n      swap1\n      tag_49\n      jump\t// in\n    tag_48:\n      tag_50\n      jump\t// in\n    tag_47:\n      stop\n        /* \"Desktop/SolidityGit/Hostel.sol\":212:238  uint public no_of_rent = 0 */\n    tag_10:\n      callvalue\n      dup1\n      iszero\n      tag_51\n      jumpi\n      0x00\n      dup1\n      revert\n    tag_51:\n      pop\n      tag_52\n      tag_53\n      jump\t// in\n    tag_52:\n      mload(0x40)\n      tag_54\n      swap2\n      swap1\n      tag_28\n      jump\t// in\n    tag_54:\n      mload(0x40)\n      dup1\n      swap2\n      sub\n      swap1\n      return\n        /* \"Desktop/SolidityGit/Hostel.sol\":1299:1338  mapping(uint => Rent) public Rent_by_No */\n    tag_11:\n      callvalue\n      dup1\n      iszero\n      tag_55\n      jumpi\n      0x00\n      dup1\n      revert\n    tag_55:\n      pop\n      tag_56\n      0x04\n      dup1\n      calldatasize\n      sub\n      dup2\n      add\n      swap1\n      tag_57\n      swap2\n      swap1\n      tag_17\n      jump\t// in\n    tag_57:\n      tag_58\n      jump\t// in\n    tag_56:\n      mload(0x40)\n      tag_59\n      swap10\n      swap9\n      swap8\n      swap7\n      swap6\n      swap5\n      swap4\n      swap3\n      swap2\n      swap1\n      tag_60\n      jump\t// in\n    tag_59:\n      mload(0x40)\n      dup1\n      swap2\n      sub\n      swap1\n      return\n        /* \"Desktop/SolidityGit/Hostel.sol\":4767:5431  function payRent(uint _index) public payable sameTenant(_index) RentTimesUp(_index) enoughRent(_index){... */\n    tag_12:\n      tag_61\n      0x04\n      dup1\n      calldatasize\n      sub\n      dup2\n      add\n      swap1\n      tag_62\n      swap2\n      swap1\n      tag_17\n      jump\t// in\n    tag_62:\n      tag_63\n      jump\t// in\n    tag_61:\n      stop\n        /* \"Desktop/SolidityGit/Hostel.sol\":942:999  mapping(uint => RoomAgreement) public RoomAgreement_by_No */\n    tag_18:\n      mstore(0x20, 0x06)\n      dup1\n      0x00\n      mstore\n      keccak256(0x00, 0x40)\n      0x00\n      swap2\n      pop\n      swap1\n      pop\n      dup1\n      0x00\n      add\n      sload\n      swap1\n      dup1\n      0x01\n      add\n      sload\n      swap1\n      dup1\n      0x02\n      add\n      dup1\n      sload\n      tag_64\n      swap1\n      tag_65\n      jump\t// in\n    tag_64:\n      dup1\n      0x1f\n      add\n      0x20\n      dup1\n      swap2\n      div\n      mul\n      0x20\n      add\n      mload(0x40)\n      swap1\n      dup2\n      add\n      0x40\n      mstore\n      dup1\n      swap3\n      swap2\n      swap1\n      dup2\n      dup2\n      mstore\n      0x20\n      add\n      dup3\n      dup1\n      sload\n      tag_66\n      swap1\n      tag_65\n      jump\t// in\n    tag_66:\n      dup1\n      iszero\n      tag_67\n      jumpi\n      dup1\n      0x1f\n      lt\n      tag_68\n      jumpi\n      0x0100\n      dup1\n      dup4\n      sload\n      div\n      mul\n      dup4\n      mstore\n      swap2\n      0x20\n      add\n      swap2\n      jump(tag_67)\n    tag_68:\n      dup3\n      add\n      swap2\n      swap1\n      0x00\n      mstore\n      keccak256(0x00, 0x20)\n      swap1\n    tag_69:\n      dup2\n      sload\n      dup2\n      mstore\n      swap1\n      0x01\n      add\n      swap1\n      0x20\n      add\n      dup1\n      dup4\n      gt\n      tag_69\n      jumpi\n      dup3\n      swap1\n      sub\n      0x1f\n      and\n      dup3\n      add\n      swap2\n    tag_67:\n      pop\n      pop\n      pop\n      pop\n      pop\n      swap1\n      dup1\n      0x03\n      add\n      dup1\n      sload\n      tag_70\n      swap1\n      tag_65\n      jump\t// in\n    tag_70:\n      dup1\n      0x1f\n      add\n      0x20\n      dup1\n      swap2\n      div\n      mul\n      0x20\n      add\n      mload(0x40)\n      swap1\n      dup2\n      add\n      0x40\n      mstore\n      dup1\n      swap3\n      swap2\n      swap1\n      dup2\n      dup2\n      mstore\n      0x20\n      add\n      dup3\n      dup1\n      sload\n      tag_71\n      swap1\n      tag_65\n      jump\t// in\n    tag_71:\n      dup1\n      iszero\n      tag_72\n      jumpi\n      dup1\n      0x1f\n      lt\n      tag_73\n      jumpi\n      0x0100\n      dup1\n      dup4\n      sload\n      div\n      mul\n      dup4\n      mstore\n      swap2\n      0x20\n      add\n      swap2\n      jump(tag_72)\n    tag_73:\n      dup3\n      add\n      swap2\n      swap1\n      0x00\n      mstore\n      keccak256(0x00, 0x20)\n      swap1\n    tag_74:\n      dup2\n      sload\n      dup2\n      mstore\n      swap1\n      0x01\n      add\n      swap1\n      0x20\n      add\n      dup1\n      dup4\n      gt\n      tag_74\n      jumpi\n      dup3\n      swap1\n      sub\n      0x1f\n      and\n      dup3\n      add\n      swap2\n    tag_72:\n      pop\n      pop\n      pop\n      pop\n      pop\n      swap1\n      dup1\n      0x04\n      add\n      sload\n      swap1\n      dup1\n      0x05\n      add\n      sload\n      swap1\n      dup1\n      0x06\n      add\n      sload\n      swap1\n      dup1\n      0x07\n      add\n      sload\n      swap1\n      dup1\n      0x08\n      add\n      0x00\n      swap1\n      sload\n      swap1\n      0x0100\n      exp\n      swap1\n      div\n      0xffffffffffffffffffffffffffffffffffffffff\n      and\n      swap1\n      dup1\n      0x09\n      add\n      0x00\n      swap1\n      sload\n      swap1\n      0x0100\n      exp\n      swap1\n      div\n      0xffffffffffffffffffffffffffffffffffffffff\n      and\n      swap1\n      pop\n      dup11\n      jump\t// out\n        /* \"Desktop/SolidityGit/Hostel.sol\":3627:4761  function signAgreement(uint _index) public payable notLandLord(_index) enoughAgreementfee(_index) OnlyWhileVacant(_index) {... */\n    tag_23:\n        /* \"Desktop/SolidityGit/Hostel.sol\":3690:3696  _index */\n      dup1\n        /* \"Desktop/SolidityGit/Hostel.sol\":1572:1582  Room_by_No */\n      0x05\n        /* \"Desktop/SolidityGit/Hostel.sol\":1572:1590  Room_by_No[_index] */\n      0x00\n        /* \"Desktop/SolidityGit/Hostel.sol\":1583:1589  _index */\n      dup3\n        /* \"Desktop/SolidityGit/Hostel.sol\":1572:1590  Room_by_No[_index] */\n      dup2\n      mstore\n      0x20\n      add\n      swap1\n      dup2\n      mstore\n      0x20\n      add\n      0x00\n      keccak256\n        /* \"Desktop/SolidityGit/Hostel.sol\":1572:1599  Room_by_No[_index].landlord */\n      0x07\n      add\n      0x01\n      swap1\n      sload\n      swap1\n      0x0100\n      exp\n      swap1\n      div\n      0xffffffffffffffffffffffffffffffffffffffff\n      and\n        /* \"Desktop/SolidityGit/Hostel.sol\":1558:1599  msg.sender != Room_by_No[_index].landlord */\n      0xffffffffffffffffffffffffffffffffffffffff\n      and\n        /* \"Desktop/SolidityGit/Hostel.sol\":1558:1568  msg.sender */\n      caller\n        /* \"Desktop/SolidityGit/Hostel.sol\":1558:1599  msg.sender != Room_by_No[_index].landlord */\n      0xffffffffffffffffffffffffffffffffffffffff\n      and\n      sub\n        /* \"Desktop/SolidityGit/Hostel.sol\":1550:1631  require(msg.sender != Room_by_No[_index].landlord, \"Only Tenant can access this\") */\n      tag_76\n      jumpi\n      mload(0x40)\n      0x08c379a000000000000000000000000000000000000000000000000000000000\n      dup2\n      mstore\n      0x04\n      add\n      tag_77\n      swap1\n      tag_78\n      jump\t// in\n    tag_77:\n      mload(0x40)\n      dup1\n      swap2\n      sub\n      swap1\n      revert\n    tag_76:\n        /* \"Desktop/SolidityGit/Hostel.sol\":3717:3723  _index */\n      dup2\n        /* \"Desktop/SolidityGit/Hostel.sol\":2110:2120  Room_by_No */\n      0x05\n        /* \"Desktop/SolidityGit/Hostel.sol\":2110:2128  Room_by_No[_index] */\n      0x00\n        /* \"Desktop/SolidityGit/Hostel.sol\":2121:2127  _index */\n      dup3\n        /* \"Desktop/SolidityGit/Hostel.sol\":2110:2128  Room_by_No[_index] */\n      dup2\n      mstore\n      0x20\n      add\n      swap1\n      dup2\n      mstore\n      0x20\n      add\n      0x00\n      keccak256\n        /* \"Desktop/SolidityGit/Hostel.sol\":2110:2144  Room_by_No[_index].securityDeposit */\n      0x05\n      add\n      sload\n        /* \"Desktop/SolidityGit/Hostel.sol\":2068:2078  Room_by_No */\n      0x05\n        /* \"Desktop/SolidityGit/Hostel.sol\":2068:2086  Room_by_No[_index] */\n      0x00\n        /* \"Desktop/SolidityGit/Hostel.sol\":2079:2085  _index */\n      dup4\n        /* \"Desktop/SolidityGit/Hostel.sol\":2068:2086  Room_by_No[_index] */\n      dup2\n      mstore\n      0x20\n      add\n      swap1\n      dup2\n      mstore\n      0x20\n      add\n      0x00\n      keccak256\n        /* \"Desktop/SolidityGit/Hostel.sol\":2068:2101  Room_by_No[_index].rent_per_month */\n      0x04\n      add\n      sload\n        /* \"Desktop/SolidityGit/Hostel.sol\":2063:2145  uint(Room_by_No[_index].rent_per_month) + uint(Room_by_No[_index].securityDeposit) */\n      tag_80\n      swap2\n      swap1\n      tag_81\n      jump\t// in\n    tag_80:\n        /* \"Desktop/SolidityGit/Hostel.sol\":2045:2054  msg.value */\n      callvalue\n        /* \"Desktop/SolidityGit/Hostel.sol\":2045:2146  msg.value >= uint(uint(Room_by_No[_index].rent_per_month) + uint(Room_by_No[_index].securityDeposit)) */\n      lt\n      iszero\n        /* \"Desktop/SolidityGit/Hostel.sol\":2037:2182  require(msg.value >= uint(uint(Room_by_No[_index].rent_per_month) + uint(Room_by_No[_index].securityDeposit)), \"Not enough Ether in your wallet\") */\n      tag_82\n      jumpi\n      mload(0x40)\n      0x08c379a000000000000000000000000000000000000000000000000000000000\n      dup2\n      mstore\n      0x04\n      add\n      tag_83\n      swap1\n      tag_84\n      jump\t// in\n    tag_83:\n      mload(0x40)\n      dup1\n      swap2\n      sub\n      swap1\n      revert\n    tag_82:\n        /* \"Desktop/SolidityGit/Hostel.sol\":3741:3747  _index */\n      dup3\n        /* \"Desktop/SolidityGit/Hostel.sol\":1753:1757  true */\n      0x01\n        /* \"Desktop/SolidityGit/Hostel.sol\":1724:1757  Room_by_No[_index].vacant == true */\n      iszero\n      iszero\n        /* \"Desktop/SolidityGit/Hostel.sol\":1724:1734  Room_by_No */\n      0x05\n        /* \"Desktop/SolidityGit/Hostel.sol\":1724:1742  Room_by_No[_index] */\n      0x00\n        /* \"Desktop/SolidityGit/Hostel.sol\":1735:1741  _index */\n      dup4\n        /* \"Desktop/SolidityGit/Hostel.sol\":1724:1742  Room_by_No[_index] */\n      dup2\n      mstore\n      0x20\n      add\n      swap1\n      dup2\n      mstore\n      0x20\n      add\n      0x00\n      keccak256\n        /* \"Desktop/SolidityGit/Hostel.sol\":1724:1749  Room_by_No[_index].vacant */\n      0x07\n      add\n      0x00\n      swap1\n      sload\n      swap1\n      0x0100\n      exp\n      swap1\n      div\n      0xff\n      and\n        /* \"Desktop/SolidityGit/Hostel.sol\":1724:1757  Room_by_No[_index].vacant == true */\n      iszero\n      iszero\n      eq\n        /* \"Desktop/SolidityGit/Hostel.sol\":1716:1789  require(Room_by_No[_index].vacant == true, \"Room is currently Occupied.\") */\n      tag_86\n      jumpi\n      mload(0x40)\n      0x08c379a000000000000000000000000000000000000000000000000000000000\n      dup2\n      mstore\n      0x04\n      add\n      tag_87\n      swap1\n      tag_88\n      jump\t// in\n    tag_87:\n      mload(0x40)\n      dup1\n      swap2\n      sub\n      swap1\n      revert\n    tag_86:\n        /* \"Desktop/SolidityGit/Hostel.sol\":3790:3791  0 */\n      0x00\n        /* \"Desktop/SolidityGit/Hostel.sol\":3768:3792  msg.sender != address(0) */\n      0xffffffffffffffffffffffffffffffffffffffff\n      and\n        /* \"Desktop/SolidityGit/Hostel.sol\":3768:3778  msg.sender */\n      caller\n        /* \"Desktop/SolidityGit/Hostel.sol\":3768:3792  msg.sender != address(0) */\n      0xffffffffffffffffffffffffffffffffffffffff\n      and\n      sub\n        /* \"Desktop/SolidityGit/Hostel.sol\":3760:3793  require(msg.sender != address(0)) */\n      tag_90\n      jumpi\n      0x00\n      dup1\n      revert\n    tag_90:\n        /* \"Desktop/SolidityGit/Hostel.sol\":3804:3829  address payable _landlord */\n      0x00\n        /* \"Desktop/SolidityGit/Hostel.sol\":3832:3842  Room_by_No */\n      0x05\n        /* \"Desktop/SolidityGit/Hostel.sol\":3832:3850  Room_by_No[_index] */\n      0x00\n        /* \"Desktop/SolidityGit/Hostel.sol\":3843:3849  _index */\n      dup7\n        /* \"Desktop/SolidityGit/Hostel.sol\":3832:3850  Room_by_No[_index] */\n      dup2\n      mstore\n      0x20\n      add\n      swap1\n      dup2\n      mstore\n      0x20\n      add\n      0x00\n      keccak256\n        /* \"Desktop/SolidityGit/Hostel.sol\":3832:3859  Room_by_No[_index].landlord */\n      0x07\n      add\n      0x01\n      swap1\n      sload\n      swap1\n      0x0100\n      exp\n      swap1\n      div\n      0xffffffffffffffffffffffffffffffffffffffff\n      and\n        /* \"Desktop/SolidityGit/Hostel.sol\":3804:3859  address payable _landlord = Room_by_No[_index].landlord */\n      swap1\n      pop\n        /* \"Desktop/SolidityGit/Hostel.sol\":3870:3883  uint totalfee */\n      0x00\n        /* \"Desktop/SolidityGit/Hostel.sol\":3922:3932  Room_by_No */\n      0x05\n        /* \"Desktop/SolidityGit/Hostel.sol\":3922:3940  Room_by_No[_index] */\n      0x00\n        /* \"Desktop/SolidityGit/Hostel.sol\":3933:3939  _index */\n      dup8\n        /* \"Desktop/SolidityGit/Hostel.sol\":3922:3940  Room_by_No[_index] */\n      dup2\n      mstore\n      0x20\n      add\n      swap1\n      dup2\n      mstore\n      0x20\n      add\n      0x00\n      keccak256\n        /* \"Desktop/SolidityGit/Hostel.sol\":3922:3956  Room_by_No[_index].securityDeposit */\n      0x05\n      add\n      sload\n        /* \"Desktop/SolidityGit/Hostel.sol\":3886:3896  Room_by_No */\n      0x05\n        /* \"Desktop/SolidityGit/Hostel.sol\":3886:3904  Room_by_No[_index] */\n      0x00\n        /* \"Desktop/SolidityGit/Hostel.sol\":3897:3903  _index */\n      dup9\n        /* \"Desktop/SolidityGit/Hostel.sol\":3886:3904  Room_by_No[_index] */\n      dup2\n      mstore\n      0x20\n      add\n      swap1\n      dup2\n      mstore\n      0x20\n      add\n      0x00\n      keccak256\n        /* \"Desktop/SolidityGit/Hostel.sol\":3886:3919  Room_by_No[_index].rent_per_month */\n      0x04\n      add\n      sload\n        /* \"Desktop/SolidityGit/Hostel.sol\":3886:3956  Room_by_No[_index].rent_per_month + Room_by_No[_index].securityDeposit */\n      tag_91\n      swap2\n      swap1\n      tag_81\n      jump\t// in\n    tag_91:\n        /* \"Desktop/SolidityGit/Hostel.sol\":3870:3956  uint totalfee = Room_by_No[_index].rent_per_month + Room_by_No[_index].securityDeposit */\n      swap1\n      pop\n        /* \"Desktop/SolidityGit/Hostel.sol\":3967:3976  _landlord */\n      dup2\n        /* \"Desktop/SolidityGit/Hostel.sol\":3967:3985  _landlord.transfer */\n      0xffffffffffffffffffffffffffffffffffffffff\n      and\n        /* \"Desktop/SolidityGit/Hostel.sol\":3967:3995  _landlord.transfer(totalfee) */\n      0x08fc\n        /* \"Desktop/SolidityGit/Hostel.sol\":3986:3994  totalfee */\n      dup3\n        /* \"Desktop/SolidityGit/Hostel.sol\":3967:3995  _landlord.transfer(totalfee) */\n      swap1\n      dup2\n      iszero\n      mul\n      swap1\n      mload(0x40)\n      0x00\n      mload(0x40)\n      dup1\n      dup4\n      sub\n      dup2\n      dup6\n      dup9\n      dup9\n      call\n      swap4\n      pop\n      pop\n      pop\n      pop\n      iszero\n      dup1\n      iszero\n      tag_93\n      jumpi\n      returndatasize\n      0x00\n      dup1\n      returndatacopy\n      revert(0x00, returndatasize)\n    tag_93:\n      pop\n        /* \"Desktop/SolidityGit/Hostel.sol\":4006:4021  no_of_agreement */\n      0x03\n      0x00\n        /* \"Desktop/SolidityGit/Hostel.sol\":4006:4023  no_of_agreement++ */\n      dup2\n      sload\n      dup1\n      swap3\n      swap2\n      swap1\n      tag_94\n      swap1\n      tag_95\n      jump\t// in\n    tag_94:\n      swap2\n      swap1\n      pop\n      sstore\n      pop\n        /* \"Desktop/SolidityGit/Hostel.sol\":4077:4087  msg.sender */\n      caller\n        /* \"Desktop/SolidityGit/Hostel.sol\":4034:4044  Room_by_No */\n      0x05\n        /* \"Desktop/SolidityGit/Hostel.sol\":4034:4052  Room_by_No[_index] */\n      0x00\n        /* \"Desktop/SolidityGit/Hostel.sol\":4045:4051  _index */\n      dup9\n        /* \"Desktop/SolidityGit/Hostel.sol\":4034:4052  Room_by_No[_index] */\n      dup2\n      mstore\n      0x20\n      add\n      swap1\n      dup2\n      mstore\n      0x20\n      add\n      0x00\n      keccak256\n        /* \"Desktop/SolidityGit/Hostel.sol\":4034:4066  Room_by_No[_index].currentTenant */\n      0x08\n      add\n      0x00\n        /* \"Desktop/SolidityGit/Hostel.sol\":4034:4088  Room_by_No[_index].currentTenant = payable(msg.sender) */\n      0x0100\n      exp\n      dup2\n      sload\n      dup2\n      0xffffffffffffffffffffffffffffffffffffffff\n      mul\n      not\n      and\n      swap1\n      dup4\n      0xffffffffffffffffffffffffffffffffffffffff\n      and\n      mul\n      or\n      swap1\n      sstore\n      pop\n        /* \"Desktop/SolidityGit/Hostel.sol\":4127:4132  false */\n      0x00\n        /* \"Desktop/SolidityGit/Hostel.sol\":4099:4109  Room_by_No */\n      0x05\n        /* \"Desktop/SolidityGit/Hostel.sol\":4099:4117  Room_by_No[_index] */\n      0x00\n        /* \"Desktop/SolidityGit/Hostel.sol\":4110:4116  _index */\n      dup9\n        /* \"Desktop/SolidityGit/Hostel.sol\":4099:4117  Room_by_No[_index] */\n      dup2\n      mstore\n      0x20\n      add\n      swap1\n      dup2\n      mstore\n      0x20\n      add\n      0x00\n      keccak256\n        /* \"Desktop/SolidityGit/Hostel.sol\":4099:4124  Room_by_No[_index].vacant */\n      0x07\n      add\n      0x00\n        /* \"Desktop/SolidityGit/Hostel.sol\":4099:4132  Room_by_No[_index].vacant = false */\n      0x0100\n      exp\n      dup2\n      sload\n      dup2\n      0xff\n      mul\n      not\n      and\n      swap1\n      dup4\n      iszero\n      iszero\n      mul\n      or\n      swap1\n      sstore\n      pop\n        /* \"Desktop/SolidityGit/Hostel.sol\":4174:4189  block.timestamp */\n      timestamp\n        /* \"Desktop/SolidityGit/Hostel.sol\":4143:4153  Room_by_No */\n      0x05\n        /* \"Desktop/SolidityGit/Hostel.sol\":4143:4161  Room_by_No[_index] */\n      0x00\n        /* \"Desktop/SolidityGit/Hostel.sol\":4154:4160  _index */\n      dup9\n        /* \"Desktop/SolidityGit/Hostel.sol\":4143:4161  Room_by_No[_index] */\n      dup2\n      mstore\n      0x20\n      add\n      swap1\n      dup2\n      mstore\n      0x20\n      add\n      0x00\n      keccak256\n        /* \"Desktop/SolidityGit/Hostel.sol\":4143:4171  Room_by_No[_index].timestamp */\n      0x06\n      add\n        /* \"Desktop/SolidityGit/Hostel.sol\":4143:4189  Room_by_No[_index].timestamp = block.timestamp */\n      dup2\n      swap1\n      sstore\n      pop\n        /* \"Desktop/SolidityGit/Hostel.sol\":4233:4248  no_of_agreement */\n      sload(0x03)\n        /* \"Desktop/SolidityGit/Hostel.sol\":4200:4210  Room_by_No */\n      0x05\n        /* \"Desktop/SolidityGit/Hostel.sol\":4200:4218  Room_by_No[_index] */\n      0x00\n        /* \"Desktop/SolidityGit/Hostel.sol\":4211:4217  _index */\n      dup9\n        /* \"Desktop/SolidityGit/Hostel.sol\":4200:4218  Room_by_No[_index] */\n      dup2\n      mstore\n      0x20\n      add\n      swap1\n      dup2\n      mstore\n      0x20\n      add\n      0x00\n      keccak256\n        /* \"Desktop/SolidityGit/Hostel.sol\":4200:4230  Room_by_No[_index].agreementid */\n      0x01\n      add\n        /* \"Desktop/SolidityGit/Hostel.sol\":4200:4248  Room_by_No[_index].agreementid = no_of_agreement */\n      dup2\n      swap1\n      sstore\n      pop\n        /* \"Desktop/SolidityGit/Hostel.sol\":4296:4516  RoomAgreement(_index,no_of_agreement,Room_by_No[_index].roomname,Room_by_No[_index].roomaddress,Room_by_No[_index].rent_per_month,Room_by_No[_index].securityDeposit,365 days,block.timestamp,payable(msg.sender),_landlord) */\n      mload(0x40)\n      dup1\n      0x0140\n      add\n      0x40\n      mstore\n      dup1\n        /* \"Desktop/SolidityGit/Hostel.sol\":4310:4316  _index */\n      dup8\n        /* \"Desktop/SolidityGit/Hostel.sol\":4296:4516  RoomAgreement(_index,no_of_agreement,Room_by_No[_index].roomname,Room_by_No[_index].roomaddress,Room_by_No[_index].rent_per_month,Room_by_No[_index].securityDeposit,365 days,block.timestamp,payable(msg.sender),_landlord) */\n      dup2\n      mstore\n      0x20\n      add\n        /* \"Desktop/SolidityGit/Hostel.sol\":4317:4332  no_of_agreement */\n      sload(0x03)\n        /* \"Desktop/SolidityGit/Hostel.sol\":4296:4516  RoomAgreement(_index,no_of_agreement,Room_by_No[_index].roomname,Room_by_No[_index].roomaddress,Room_by_No[_index].rent_per_month,Room_by_No[_index].securityDeposit,365 days,block.timestamp,payable(msg.sender),_landlord) */\n      dup2\n      mstore\n      0x20\n      add\n        /* \"Desktop/SolidityGit/Hostel.sol\":4333:4343  Room_by_No */\n      0x05\n        /* \"Desktop/SolidityGit/Hostel.sol\":4333:4351  Room_by_No[_index] */\n      0x00\n        /* \"Desktop/SolidityGit/Hostel.sol\":4344:4350  _index */\n      dup10\n        /* \"Desktop/SolidityGit/Hostel.sol\":4333:4351  Room_by_No[_index] */\n      dup2\n      mstore\n      0x20\n      add\n      swap1\n      dup2\n      mstore\n      0x20\n      add\n      0x00\n      keccak256\n        /* \"Desktop/SolidityGit/Hostel.sol\":4333:4360  Room_by_No[_index].roomname */\n      0x02\n      add\n        /* \"Desktop/SolidityGit/Hostel.sol\":4296:4516  RoomAgreement(_index,no_of_agreement,Room_by_No[_index].roomname,Room_by_No[_index].roomaddress,Room_by_No[_index].rent_per_month,Room_by_No[_index].securityDeposit,365 days,block.timestamp,payable(msg.sender),_landlord) */\n      dup1\n      sload\n      tag_96\n      swap1\n      tag_65\n      jump\t// in\n    tag_96:\n      dup1\n      0x1f\n      add\n      0x20\n      dup1\n      swap2\n      div\n      mul\n      0x20\n      add\n      mload(0x40)\n      swap1\n      dup2\n      add\n      0x40\n      mstore\n      dup1\n      swap3\n      swap2\n      swap1\n      dup2\n      dup2\n      mstore\n      0x20\n      add\n      dup3\n      dup1\n      sload\n      tag_97\n      swap1\n      tag_65\n      jump\t// in\n    tag_97:\n      dup1\n      iszero\n      tag_98\n      jumpi\n      dup1\n      0x1f\n      lt\n      tag_99\n      jumpi\n      0x0100\n      dup1\n      dup4\n      sload\n      div\n      mul\n      dup4\n      mstore\n      swap2\n      0x20\n      add\n      swap2\n      jump(tag_98)\n    tag_99:\n      dup3\n      add\n      swap2\n      swap1\n      0x00\n      mstore\n      keccak256(0x00, 0x20)\n      swap1\n    tag_100:\n      dup2\n      sload\n      dup2\n      mstore\n      swap1\n      0x01\n      add\n      swap1\n      0x20\n      add\n      dup1\n      dup4\n      gt\n      tag_100\n      jumpi\n      dup3\n      swap1\n      sub\n      0x1f\n      and\n      dup3\n      add\n      swap2\n    tag_98:\n      pop\n      pop\n      pop\n      pop\n      pop\n      dup2\n      mstore\n      0x20\n      add\n        /* \"Desktop/SolidityGit/Hostel.sol\":4361:4371  Room_by_No */\n      0x05\n        /* \"Desktop/SolidityGit/Hostel.sol\":4361:4379  Room_by_No[_index] */\n      0x00\n        /* \"Desktop/SolidityGit/Hostel.sol\":4372:4378  _index */\n      dup10\n        /* \"Desktop/SolidityGit/Hostel.sol\":4361:4379  Room_by_No[_index] */\n      dup2\n      mstore\n      0x20\n      add\n      swap1\n      dup2\n      mstore\n      0x20\n      add\n      0x00\n      keccak256\n        /* \"Desktop/SolidityGit/Hostel.sol\":4361:4391  Room_by_No[_index].roomaddress */\n      0x03\n      add\n        /* \"Desktop/SolidityGit/Hostel.sol\":4296:4516  RoomAgreement(_index,no_of_agreement,Room_by_No[_index].roomname,Room_by_No[_index].roomaddress,Room_by_No[_index].rent_per_month,Room_by_No[_index].securityDeposit,365 days,block.timestamp,payable(msg.sender),_landlord) */\n      dup1\n      sload\n      tag_101\n      swap1\n      tag_65\n      jump\t// in\n    tag_101:\n      dup1\n      0x1f\n      add\n      0x20\n      dup1\n      swap2\n      div\n      mul\n      0x20\n      add\n      mload(0x40)\n      swap1\n      dup2\n      add\n      0x40\n      mstore\n      dup1\n      swap3\n      swap2\n      swap1\n      dup2\n      dup2\n      mstore\n      0x20\n      add\n      dup3\n      dup1\n      sload\n      tag_102\n      swap1\n      tag_65\n      jump\t// in\n    tag_102:\n      dup1\n      iszero\n      tag_103\n      jumpi\n      dup1\n      0x1f\n      lt\n      tag_104\n      jumpi\n      0x0100\n      dup1\n      dup4\n      sload\n      div\n      mul\n      dup4\n      mstore\n      swap2\n      0x20\n      add\n      swap2\n      jump(tag_103)\n    tag_104:\n      dup3\n      add\n      swap2\n      swap1\n      0x00\n      mstore\n      keccak256(0x00, 0x20)\n      swap1\n    tag_105:\n      dup2\n      sload\n      dup2\n      mstore\n      swap1\n      0x01\n      add\n      swap1\n      0x20\n      add\n      dup1\n      dup4\n      gt\n      tag_105\n      jumpi\n      dup3\n      swap1\n      sub\n      0x1f\n      and\n      dup3\n      add\n      swap2\n    tag_103:\n      pop\n      pop\n      pop\n      pop\n      pop\n      dup2\n      mstore\n      0x20\n      add\n        /* \"Desktop/SolidityGit/Hostel.sol\":4392:4402  Room_by_No */\n      0x05\n        /* \"Desktop/SolidityGit/Hostel.sol\":4392:4410  Room_by_No[_index] */\n      0x00\n        /* \"Desktop/SolidityGit/Hostel.sol\":4403:4409  _index */\n      dup10\n        /* \"Desktop/SolidityGit/Hostel.sol\":4392:4410  Room_by_No[_index] */\n      dup2\n      mstore\n      0x20\n      add\n      swap1\n      dup2\n      mstore\n      0x20\n      add\n      0x00\n      keccak256\n        /* \"Desktop/SolidityGit/Hostel.sol\":4392:4425  Room_by_No[_index].rent_per_month */\n      0x04\n      add\n      sload\n        /* \"Desktop/SolidityGit/Hostel.sol\":4296:4516  RoomAgreement(_index,no_of_agreement,Room_by_No[_index].roomname,Room_by_No[_index].roomaddress,Room_by_No[_index].rent_per_month,Room_by_No[_index].securityDeposit,365 days,block.timestamp,payable(msg.sender),_landlord) */\n      dup2\n      mstore\n      0x20\n      add\n        /* \"Desktop/SolidityGit/Hostel.sol\":4426:4436  Room_by_No */\n      0x05\n        /* \"Desktop/SolidityGit/Hostel.sol\":4426:4444  Room_by_No[_index] */\n      0x00\n        /* \"Desktop/SolidityGit/Hostel.sol\":4437:4443  _index */\n      dup10\n        /* \"Desktop/SolidityGit/Hostel.sol\":4426:4444  Room_by_No[_index] */\n      dup2\n      mstore\n      0x20\n      add\n      swap1\n      dup2\n      mstore\n      0x20\n      add\n      0x00\n      keccak256\n        /* \"Desktop/SolidityGit/Hostel.sol\":4426:4460  Room_by_No[_index].securityDeposit */\n      0x05\n      add\n      sload\n        /* \"Desktop/SolidityGit/Hostel.sol\":4296:4516  RoomAgreement(_index,no_of_agreement,Room_by_No[_index].roomname,Room_by_No[_index].roomaddress,Room_by_No[_index].rent_per_month,Room_by_No[_index].securityDeposit,365 days,block.timestamp,payable(msg.sender),_landlord) */\n      dup2\n      mstore\n      0x20\n      add\n        /* \"Desktop/SolidityGit/Hostel.sol\":4461:4469  365 days */\n      0x01e13380\n        /* \"Desktop/SolidityGit/Hostel.sol\":4296:4516  RoomAgreement(_index,no_of_agreement,Room_by_No[_index].roomname,Room_by_No[_index].roomaddress,Room_by_No[_index].rent_per_month,Room_by_No[_index].securityDeposit,365 days,block.timestamp,payable(msg.sender),_landlord) */\n      dup2\n      mstore\n      0x20\n      add\n        /* \"Desktop/SolidityGit/Hostel.sol\":4470:4485  block.timestamp */\n      timestamp\n        /* \"Desktop/SolidityGit/Hostel.sol\":4296:4516  RoomAgreement(_index,no_of_agreement,Room_by_No[_index].roomname,Room_by_No[_index].roomaddress,Room_by_No[_index].rent_per_month,Room_by_No[_index].securityDeposit,365 days,block.timestamp,payable(msg.sender),_landlord) */\n      dup2\n      mstore\n      0x20\n      add\n        /* \"Desktop/SolidityGit/Hostel.sol\":4494:4504  msg.sender */\n      caller\n        /* \"Desktop/SolidityGit/Hostel.sol\":4296:4516  RoomAgreement(_index,no_of_agreement,Room_by_No[_index].roomname,Room_by_No[_index].roomaddress,Room_by_No[_index].rent_per_month,Room_by_No[_index].securityDeposit,365 days,block.timestamp,payable(msg.sender),_landlord) */\n      0xffffffffffffffffffffffffffffffffffffffff\n      and\n      dup2\n      mstore\n      0x20\n      add\n        /* \"Desktop/SolidityGit/Hostel.sol\":4506:4515  _landlord */\n      dup4\n        /* \"Desktop/SolidityGit/Hostel.sol\":4296:4516  RoomAgreement(_index,no_of_agreement,Room_by_No[_index].roomname,Room_by_No[_index].roomaddress,Room_by_No[_index].rent_per_month,Room_by_No[_index].securityDeposit,365 days,block.timestamp,payable(msg.sender),_landlord) */\n      0xffffffffffffffffffffffffffffffffffffffff\n      and\n      dup2\n      mstore\n      pop\n        /* \"Desktop/SolidityGit/Hostel.sol\":4259:4278  RoomAgreement_by_No */\n      0x06\n        /* \"Desktop/SolidityGit/Hostel.sol\":4259:4295  RoomAgreement_by_No[no_of_agreement] */\n      0x00\n        /* \"Desktop/SolidityGit/Hostel.sol\":4279:4294  no_of_agreement */\n      sload(0x03)\n        /* \"Desktop/SolidityGit/Hostel.sol\":4259:4295  RoomAgreement_by_No[no_of_agreement] */\n      dup2\n      mstore\n      0x20\n      add\n      swap1\n      dup2\n      mstore\n      0x20\n      add\n      0x00\n      keccak256\n        /* \"Desktop/SolidityGit/Hostel.sol\":4259:4516  RoomAgreement_by_No[no_of_agreement]=RoomAgreement(_index,no_of_agreement,Room_by_No[_index].roomname,Room_by_No[_index].roomaddress,Room_by_No[_index].rent_per_month,Room_by_No[_index].securityDeposit,365 days,block.timestamp,payable(msg.sender),_landlord) */\n      0x00\n      dup3\n      add\n      mload\n      dup2\n      0x00\n      add\n      sstore\n      0x20\n      dup3\n      add\n      mload\n      dup2\n      0x01\n      add\n      sstore\n      0x40\n      dup3\n      add\n      mload\n      dup2\n      0x02\n      add\n      swap1\n      dup2\n      tag_106\n      swap2\n      swap1\n      tag_107\n      jump\t// in\n    tag_106:\n      pop\n      0x60\n      dup3\n      add\n      mload\n      dup2\n      0x03\n      add\n      swap1\n      dup2\n      tag_108\n      swap2\n      swap1\n      tag_107\n      jump\t// in\n    tag_108:\n      pop\n      0x80\n      dup3\n      add\n      mload\n      dup2\n      0x04\n      add\n      sstore\n      0xa0\n      dup3\n      add\n      mload\n      dup2\n      0x05\n      add\n      sstore\n      0xc0\n      dup3\n      add\n      mload\n      dup2\n      0x06\n      add\n      sstore\n      0xe0\n      dup3\n      add\n      mload\n      dup2\n      0x07\n      add\n      sstore\n      0x0100\n      dup3\n      add\n      mload\n      dup2\n      0x08\n      add\n      exp(0x0100, 0x00)\n      dup2\n      sload\n      dup2\n      0xffffffffffffffffffffffffffffffffffffffff\n      mul\n      not\n      and\n      swap1\n      dup4\n      0xffffffffffffffffffffffffffffffffffffffff\n      and\n      mul\n      or\n      swap1\n      sstore\n      pop\n      0x0120\n      dup3\n      add\n      mload\n      dup2\n      0x09\n      add\n      exp(0x0100, 0x00)\n      dup2\n      sload\n      dup2\n      0xffffffffffffffffffffffffffffffffffffffff\n      mul\n      not\n      and\n      swap1\n      dup4\n      0xffffffffffffffffffffffffffffffffffffffff\n      and\n      mul\n      or\n      swap1\n      sstore\n      pop\n      swap1\n      pop\n      pop\n        /* \"Desktop/SolidityGit/Hostel.sol\":4527:4537  no_of_rent */\n      0x04\n      0x00\n        /* \"Desktop/SolidityGit/Hostel.sol\":4527:4539  no_of_rent++ */\n      dup2\n      sload\n      dup1\n      swap3\n      swap2\n      swap1\n      tag_109\n      swap1\n      tag_95\n      jump\t// in\n    tag_109:\n      swap2\n      swap1\n      pop\n      sstore\n      pop\n        /* \"Desktop/SolidityGit/Hostel.sol\":4575:4753  Rent(no_of_rent,_index,no_of_agreement,Room_by_No[_index].roomname,Room_by_No[_index].roomaddress,Room_by_No[_index].rent_per_month,block.timestamp,payable(msg.sender),_landlord) */\n      mload(0x40)\n      dup1\n      0x0120\n      add\n      0x40\n      mstore\n      dup1\n        /* \"Desktop/SolidityGit/Hostel.sol\":4580:4590  no_of_rent */\n      sload(0x04)\n        /* \"Desktop/SolidityGit/Hostel.sol\":4575:4753  Rent(no_of_rent,_index,no_of_agreement,Room_by_No[_index].roomname,Room_by_No[_index].roomaddress,Room_by_No[_index].rent_per_month,block.timestamp,payable(msg.sender),_landlord) */\n      dup2\n      mstore\n      0x20\n      add\n        /* \"Desktop/SolidityGit/Hostel.sol\":4591:4597  _index */\n      dup8\n        /* \"Desktop/SolidityGit/Hostel.sol\":4575:4753  Rent(no_of_rent,_index,no_of_agreement,Room_by_No[_index].roomname,Room_by_No[_index].roomaddress,Room_by_No[_index].rent_per_month,block.timestamp,payable(msg.sender),_landlord) */\n      dup2\n      mstore\n      0x20\n      add\n        /* \"Desktop/SolidityGit/Hostel.sol\":4598:4613  no_of_agreement */\n      sload(0x03)\n        /* \"Desktop/SolidityGit/Hostel.sol\":4575:4753  Rent(no_of_rent,_index,no_of_agreement,Room_by_No[_index].roomname,Room_by_No[_index].roomaddress,Room_by_No[_index].rent_per_month,block.timestamp,payable(msg.sender),_landlord) */\n      dup2\n      mstore\n      0x20\n      add\n        /* \"Desktop/SolidityGit/Hostel.sol\":4614:4624  Room_by_No */\n      0x05\n        /* \"Desktop/SolidityGit/Hostel.sol\":4614:4632  Room_by_No[_index] */\n      0x00\n        /* \"Desktop/SolidityGit/Hostel.sol\":4625:4631  _index */\n      dup10\n        /* \"Desktop/SolidityGit/Hostel.sol\":4614:4632  Room_by_No[_index] */\n      dup2\n      mstore\n      0x20\n      add\n      swap1\n      dup2\n      mstore\n      0x20\n      add\n      0x00\n      keccak256\n        /* \"Desktop/SolidityGit/Hostel.sol\":4614:4641  Room_by_No[_index].roomname */\n      0x02\n      add\n        /* \"Desktop/SolidityGit/Hostel.sol\":4575:4753  Rent(no_of_rent,_index,no_of_agreement,Room_by_No[_index].roomname,Room_by_No[_index].roomaddress,Room_by_No[_index].rent_per_month,block.timestamp,payable(msg.sender),_landlord) */\n      dup1\n      sload\n      tag_110\n      swap1\n      tag_65\n      jump\t// in\n    tag_110:\n      dup1\n      0x1f\n      add\n      0x20\n      dup1\n      swap2\n      div\n      mul\n      0x20\n      add\n      mload(0x40)\n      swap1\n      dup2\n      add\n      0x40\n      mstore\n      dup1\n      swap3\n      swap2\n      swap1\n      dup2\n      dup2\n      mstore\n      0x20\n      add\n      dup3\n      dup1\n      sload\n      tag_111\n      swap1\n      tag_65\n      jump\t// in\n    tag_111:\n      dup1\n      iszero\n      tag_112\n      jumpi\n      dup1\n      0x1f\n      lt\n      tag_113\n      jumpi\n      0x0100\n      dup1\n      dup4\n      sload\n      div\n      mul\n      dup4\n      mstore\n      swap2\n      0x20\n      add\n      swap2\n      jump(tag_112)\n    tag_113:\n      dup3\n      add\n      swap2\n      swap1\n      0x00\n      mstore\n      keccak256(0x00, 0x20)\n      swap1\n    tag_114:\n      dup2\n      sload\n      dup2\n      mstore\n      swap1\n      0x01\n      add\n      swap1\n      0x20\n      add\n      dup1\n      dup4\n      gt\n      tag_114\n      jumpi\n      dup3\n      swap1\n      sub\n      0x1f\n      and\n      dup3\n      add\n      swap2\n    tag_112:\n      pop\n      pop\n      pop\n      pop\n      pop\n      dup2\n      mstore\n      0x20\n      add\n        /* \"Desktop/SolidityGit/Hostel.sol\":4642:4652  Room_by_No */\n      0x05\n        /* \"Desktop/SolidityGit/Hostel.sol\":4642:4660  Room_by_No[_index] */\n      0x00\n        /* \"Desktop/SolidityGit/Hostel.sol\":4653:4659  _index */\n      dup10\n        /* \"Desktop/SolidityGit/Hostel.sol\":4642:4660  Room_by_No[_index] */\n      dup2\n      mstore\n      0x20\n      add\n      swap1\n      dup2\n      mstore\n      0x20\n      add\n      0x00\n      keccak256\n        /* \"Desktop/SolidityGit/Hostel.sol\":4642:4672  Room_by_No[_index].roomaddress */\n      0x03\n      add\n        /* \"Desktop/SolidityGit/Hostel.sol\":4575:4753  Rent(no_of_rent,_index,no_of_agreement,Room_by_No[_index].roomname,Room_by_No[_index].roomaddress,Room_by_No[_index].rent_per_month,block.timestamp,payable(msg.sender),_landlord) */\n      dup1\n      sload\n      tag_115\n      swap1\n      tag_65\n      jump\t// in\n    tag_115:\n      dup1\n      0x1f\n      add\n      0x20\n      dup1\n      swap2\n      div\n      mul\n      0x20\n      add\n      mload(0x40)\n      swap1\n      dup2\n      add\n      0x40\n      mstore\n      dup1\n      swap3\n      swap2\n      swap1\n      dup2\n      dup2\n      mstore\n      0x20\n      add\n      dup3\n      dup1\n      sload\n      tag_116\n      swap1\n      tag_65\n      jump\t// in\n    tag_116:\n      dup1\n      iszero\n      tag_117\n      jumpi\n      dup1\n      0x1f\n      lt\n      tag_118\n      jumpi\n      0x0100\n      dup1\n      dup4\n      sload\n      div\n      mul\n      dup4\n      mstore\n      swap2\n      0x20\n      add\n      swap2\n      jump(tag_117)\n    tag_118:\n      dup3\n      add\n      swap2\n      swap1\n      0x00\n      mstore\n      keccak256(0x00, 0x20)\n      swap1\n    tag_119:\n      dup2\n      sload\n      dup2\n      mstore\n      swap1\n      0x01\n      add\n      swap1\n      0x20\n      add\n      dup1\n      dup4\n      gt\n      tag_119\n      jumpi\n      dup3\n      swap1\n      sub\n      0x1f\n      and\n      dup3\n      add\n      swap2\n    tag_117:\n      pop\n      pop\n      pop\n      pop\n      pop\n      dup2\n      mstore\n      0x20\n      add\n        /* \"Desktop/SolidityGit/Hostel.sol\":4673:4683  Room_by_No */\n      0x05\n        /* \"Desktop/SolidityGit/Hostel.sol\":4673:4691  Room_by_No[_index] */\n      0x00\n        /* \"Desktop/SolidityGit/Hostel.sol\":4684:4690  _index */\n      dup10\n        /* \"Desktop/SolidityGit/Hostel.sol\":4673:4691  Room_by_No[_index] */\n      dup2\n      mstore\n      0x20\n      add\n      swap1\n      dup2\n      mstore\n      0x20\n      add\n      0x00\n      keccak256\n        /* \"Desktop/SolidityGit/Hostel.sol\":4673:4706  Room_by_No[_index].rent_per_month */\n      0x04\n      add\n      sload\n        /* \"Desktop/SolidityGit/Hostel.sol\":4575:4753  Rent(no_of_rent,_index,no_of_agreement,Room_by_No[_index].roomname,Room_by_No[_index].roomaddress,Room_by_No[_index].rent_per_month,block.timestamp,payable(msg.sender),_landlord) */\n      dup2\n      mstore\n      0x20\n      add\n        /* \"Desktop/SolidityGit/Hostel.sol\":4707:4722  block.timestamp */\n      timestamp\n        /* \"Desktop/SolidityGit/Hostel.sol\":4575:4753  Rent(no_of_rent,_index,no_of_agreement,Room_by_No[_index].roomname,Room_by_No[_index].roomaddress,Room_by_No[_index].rent_per_month,block.timestamp,payable(msg.sender),_landlord) */\n      dup2\n      mstore\n      0x20\n      add\n        /* \"Desktop/SolidityGit/Hostel.sol\":4731:4741  msg.sender */\n      caller\n        /* \"Desktop/SolidityGit/Hostel.sol\":4575:4753  Rent(no_of_rent,_index,no_of_agreement,Room_by_No[_index].roomname,Room_by_No[_index].roomaddress,Room_by_No[_index].rent_per_month,block.timestamp,payable(msg.sender),_landlord) */\n      0xffffffffffffffffffffffffffffffffffffffff\n      and\n      dup2\n      mstore\n      0x20\n      add\n        /* \"Desktop/SolidityGit/Hostel.sol\":4743:4752  _landlord */\n      dup4\n        /* \"Desktop/SolidityGit/Hostel.sol\":4575:4753  Rent(no_of_rent,_index,no_of_agreement,Room_by_No[_index].roomname,Room_by_No[_index].roomaddress,Room_by_No[_index].rent_per_month,block.timestamp,payable(msg.sender),_landlord) */\n      0xffffffffffffffffffffffffffffffffffffffff\n      and\n      dup2\n      mstore\n      pop\n        /* \"Desktop/SolidityGit/Hostel.sol\":4550:4560  Rent_by_No */\n      0x07\n        /* \"Desktop/SolidityGit/Hostel.sol\":4550:4572  Rent_by_No[no_of_rent] */\n      0x00\n        /* \"Desktop/SolidityGit/Hostel.sol\":4561:4571  no_of_rent */\n      sload(0x04)\n        /* \"Desktop/SolidityGit/Hostel.sol\":4550:4572  Rent_by_No[no_of_rent] */\n      dup2\n      mstore\n      0x20\n      add\n      swap1\n      dup2\n      mstore\n      0x20\n      add\n      0x00\n      keccak256\n        /* \"Desktop/SolidityGit/Hostel.sol\":4550:4753  Rent_by_No[no_of_rent] = Rent(no_of_rent,_index,no_of_agreement,Room_by_No[_index].roomname,Room_by_No[_index].roomaddress,Room_by_No[_index].rent_per_month,block.timestamp,payable(msg.sender),_landlord) */\n      0x00\n      dup3\n      add\n      mload\n      dup2\n      0x00\n      add\n      sstore\n      0x20\n      dup3\n      add\n      mload\n      dup2\n      0x01\n      add\n      sstore\n      0x40\n      dup3\n      add\n      mload\n      dup2\n      0x02\n      add\n      sstore\n      0x60\n      dup3\n      add\n      mload\n      dup2\n      0x03\n      add\n      swap1\n      dup2\n      tag_120\n      swap2\n      swap1\n      tag_107\n      jump\t// in\n    tag_120:\n      pop\n      0x80\n      dup3\n      add\n      mload\n      dup2\n      0x04\n      add\n      swap1\n      dup2\n      tag_121\n      swap2\n      swap1\n      tag_107\n      jump\t// in\n    tag_121:\n      pop\n      0xa0\n      dup3\n      add\n      mload\n      dup2\n      0x05\n      add\n      sstore\n      0xc0\n      dup3\n      add\n      mload\n      dup2\n      0x06\n      add\n      sstore\n      0xe0\n      dup3\n      add\n      mload\n      dup2\n      0x07\n      add\n      exp(0x0100, 0x00)\n      dup2\n      sload\n      dup2\n      0xffffffffffffffffffffffffffffffffffffffff\n      mul\n      not\n      and\n      swap1\n      dup4\n      0xffffffffffffffffffffffffffffffffffffffff\n      and\n      mul\n      or\n      swap1\n      sstore\n      pop\n      0x0100\n      dup3\n      add\n      mload\n      dup2\n      0x08\n      add\n      exp(0x0100, 0x00)\n      dup2\n      sload\n      dup2\n      0xffffffffffffffffffffffffffffffffffffffff\n      mul\n      not\n      and\n      swap1\n      dup4\n      0xffffffffffffffffffffffffffffffffffffffff\n      and\n      mul\n      or\n      swap1\n      sstore\n      pop\n      swap1\n      pop\n      pop\n        /* \"Desktop/SolidityGit/Hostel.sol\":3749:4761  {... */\n      pop\n      pop\n        /* \"Desktop/SolidityGit/Hostel.sol\":2193:2194  _ */\n      pop\n        /* \"Desktop/SolidityGit/Hostel.sol\":1642:1643  _ */\n      pop\n        /* \"Desktop/SolidityGit/Hostel.sol\":3627:4761  function signAgreement(uint _index) public payable notLandLord(_index) enoughAgreementfee(_index) OnlyWhileVacant(_index) {... */\n      pop\n      pop\n      jump\t// out\n        /* \"Desktop/SolidityGit/Hostel.sol\":174:205  uint public no_of_agreement = 0 */\n    tag_26:\n      sload(0x03)\n      dup2\n      jump\t// out\n        /* \"Desktop/SolidityGit/Hostel.sol\":5437:5901  function agreementCompleted(uint _index) public payable onlyLandlord(_index) AgreementTimesUp(_index){... */\n    tag_31:\n        /* \"Desktop/SolidityGit/Hostel.sol\":5506:5512  _index */\n      dup1\n        /* \"Desktop/SolidityGit/Hostel.sol\":1417:1427  Room_by_No */\n      0x05\n        /* \"Desktop/SolidityGit/Hostel.sol\":1417:1435  Room_by_No[_index] */\n      0x00\n        /* \"Desktop/SolidityGit/Hostel.sol\":1428:1434  _index */\n      dup3\n        /* \"Desktop/SolidityGit/Hostel.sol\":1417:1435  Room_by_No[_index] */\n      dup2\n      mstore\n      0x20\n      add\n      swap1\n      dup2\n      mstore\n      0x20\n      add\n      0x00\n      keccak256\n        /* \"Desktop/SolidityGit/Hostel.sol\":1417:1444  Room_by_No[_index].landlord */\n      0x07\n      add\n      0x01\n      swap1\n      sload\n      swap1\n      0x0100\n      exp\n      swap1\n      div\n      0xffffffffffffffffffffffffffffffffffffffff\n      and\n        /* \"Desktop/SolidityGit/Hostel.sol\":1403:1444  msg.sender == Room_by_No[_index].landlord */\n      0xffffffffffffffffffffffffffffffffffffffff\n      and\n        /* \"Desktop/SolidityGit/Hostel.sol\":1403:1413  msg.sender */\n      caller\n        /* \"Desktop/SolidityGit/Hostel.sol\":1403:1444  msg.sender == Room_by_No[_index].landlord */\n      0xffffffffffffffffffffffffffffffffffffffff\n      and\n      eq\n        /* \"Desktop/SolidityGit/Hostel.sol\":1395:1478  require(msg.sender == Room_by_No[_index].landlord, \"Only landlord can access this\") */\n      tag_123\n      jumpi\n      mload(0x40)\n      0x08c379a000000000000000000000000000000000000000000000000000000000\n      dup2\n      mstore\n      0x04\n      add\n      tag_124\n      swap1\n      tag_125\n      jump\t// in\n    tag_124:\n      mload(0x40)\n      dup1\n      swap2\n      sub\n      swap1\n      revert\n    tag_123:\n        /* \"Desktop/SolidityGit/Hostel.sol\":5531:5537  _index */\n      dup2\n        /* \"Desktop/SolidityGit/Hostel.sol\":2758:2775  uint _AgreementNo */\n      0x00\n        /* \"Desktop/SolidityGit/Hostel.sol\":2778:2788  Room_by_No */\n      0x05\n        /* \"Desktop/SolidityGit/Hostel.sol\":2778:2796  Room_by_No[_index] */\n      0x00\n        /* \"Desktop/SolidityGit/Hostel.sol\":2789:2795  _index */\n      dup4\n        /* \"Desktop/SolidityGit/Hostel.sol\":2778:2796  Room_by_No[_index] */\n      dup2\n      mstore\n      0x20\n      add\n      swap1\n      dup2\n      mstore\n      0x20\n      add\n      0x00\n      keccak256\n        /* \"Desktop/SolidityGit/Hostel.sol\":2778:2808  Room_by_No[_index].agreementid */\n      0x01\n      add\n      sload\n        /* \"Desktop/SolidityGit/Hostel.sol\":2758:2808  uint _AgreementNo = Room_by_No[_index].agreementid */\n      swap1\n      pop\n        /* \"Desktop/SolidityGit/Hostel.sol\":2819:2828  uint time */\n      0x00\n        /* \"Desktop/SolidityGit/Hostel.sol\":2877:2896  RoomAgreement_by_No */\n      0x06\n        /* \"Desktop/SolidityGit/Hostel.sol\":2877:2910  RoomAgreement_by_No[_AgreementNo] */\n      0x00\n        /* \"Desktop/SolidityGit/Hostel.sol\":2897:2909  _AgreementNo */\n      dup4\n        /* \"Desktop/SolidityGit/Hostel.sol\":2877:2910  RoomAgreement_by_No[_AgreementNo] */\n      dup2\n      mstore\n      0x20\n      add\n      swap1\n      dup2\n      mstore\n      0x20\n      add\n      0x00\n      keccak256\n        /* \"Desktop/SolidityGit/Hostel.sol\":2877:2923  RoomAgreement_by_No[_AgreementNo].lockInPeriod */\n      0x06\n      add\n      sload\n        /* \"Desktop/SolidityGit/Hostel.sol\":2831:2850  RoomAgreement_by_No */\n      0x06\n        /* \"Desktop/SolidityGit/Hostel.sol\":2831:2864  RoomAgreement_by_No[_AgreementNo] */\n      0x00\n        /* \"Desktop/SolidityGit/Hostel.sol\":2851:2863  _AgreementNo */\n      dup5\n        /* \"Desktop/SolidityGit/Hostel.sol\":2831:2864  RoomAgreement_by_No[_AgreementNo] */\n      dup2\n      mstore\n      0x20\n      add\n      swap1\n      dup2\n      mstore\n      0x20\n      add\n      0x00\n      keccak256\n        /* \"Desktop/SolidityGit/Hostel.sol\":2831:2874  RoomAgreement_by_No[_AgreementNo].timestamp */\n      0x07\n      add\n      sload\n        /* \"Desktop/SolidityGit/Hostel.sol\":2831:2923  RoomAgreement_by_No[_AgreementNo].timestamp + RoomAgreement_by_No[_AgreementNo].lockInPeriod */\n      tag_127\n      swap2\n      swap1\n      tag_81\n      jump\t// in\n    tag_127:\n        /* \"Desktop/SolidityGit/Hostel.sol\":2819:2923  uint time = RoomAgreement_by_No[_AgreementNo].timestamp + RoomAgreement_by_No[_AgreementNo].lockInPeriod */\n      swap1\n      pop\n        /* \"Desktop/SolidityGit/Hostel.sol\":2960:2964  time */\n      dup1\n        /* \"Desktop/SolidityGit/Hostel.sol\":2942:2957  block.timestamp */\n      timestamp\n        /* \"Desktop/SolidityGit/Hostel.sol\":2942:2964  block.timestamp > time */\n      gt\n        /* \"Desktop/SolidityGit/Hostel.sol\":2934:3001  require(block.timestamp > time, \"Time is left for contract to end\") */\n      tag_128\n      jumpi\n      mload(0x40)\n      0x08c379a000000000000000000000000000000000000000000000000000000000\n      dup2\n      mstore\n      0x04\n      add\n      tag_129\n      swap1\n      tag_130\n      jump\t// in\n    tag_129:\n      mload(0x40)\n      dup1\n      swap2\n      sub\n      swap1\n      revert\n    tag_128:\n        /* \"Desktop/SolidityGit/Hostel.sol\":5579:5580  0 */\n      0x00\n        /* \"Desktop/SolidityGit/Hostel.sol\":5557:5581  msg.sender != address(0) */\n      0xffffffffffffffffffffffffffffffffffffffff\n      and\n        /* \"Desktop/SolidityGit/Hostel.sol\":5557:5567  msg.sender */\n      caller\n        /* \"Desktop/SolidityGit/Hostel.sol\":5557:5581  msg.sender != address(0) */\n      0xffffffffffffffffffffffffffffffffffffffff\n      and\n      sub\n        /* \"Desktop/SolidityGit/Hostel.sol\":5549:5582  require(msg.sender != address(0)) */\n      tag_132\n      jumpi\n      0x00\n      dup1\n      revert\n    tag_132:\n        /* \"Desktop/SolidityGit/Hostel.sol\":5630:5635  false */\n      0x00\n        /* \"Desktop/SolidityGit/Hostel.sol\":5601:5635  Room_by_No[_index].vacant == false */\n      iszero\n      iszero\n        /* \"Desktop/SolidityGit/Hostel.sol\":5601:5611  Room_by_No */\n      0x05\n        /* \"Desktop/SolidityGit/Hostel.sol\":5601:5619  Room_by_No[_index] */\n      0x00\n        /* \"Desktop/SolidityGit/Hostel.sol\":5612:5618  _index */\n      dup8\n        /* \"Desktop/SolidityGit/Hostel.sol\":5601:5619  Room_by_No[_index] */\n      dup2\n      mstore\n      0x20\n      add\n      swap1\n      dup2\n      mstore\n      0x20\n      add\n      0x00\n      keccak256\n        /* \"Desktop/SolidityGit/Hostel.sol\":5601:5626  Room_by_No[_index].vacant */\n      0x07\n      add\n      0x00\n      swap1\n      sload\n      swap1\n      0x0100\n      exp\n      swap1\n      div\n      0xff\n      and\n        /* \"Desktop/SolidityGit/Hostel.sol\":5601:5635  Room_by_No[_index].vacant == false */\n      iszero\n      iszero\n      eq\n        /* \"Desktop/SolidityGit/Hostel.sol\":5593:5667  require(Room_by_No[_index].vacant == false, \"Room is currently Occupied.\") */\n      tag_133\n      jumpi\n      mload(0x40)\n      0x08c379a000000000000000000000000000000000000000000000000000000000\n      dup2\n      mstore\n      0x04\n      add\n      tag_134\n      swap1\n      tag_88\n      jump\t// in\n    tag_134:\n      mload(0x40)\n      dup1\n      swap2\n      sub\n      swap1\n      revert\n    tag_133:\n        /* \"Desktop/SolidityGit/Hostel.sol\":5706:5710  true */\n      0x01\n        /* \"Desktop/SolidityGit/Hostel.sol\":5678:5688  Room_by_No */\n      0x05\n        /* \"Desktop/SolidityGit/Hostel.sol\":5678:5696  Room_by_No[_index] */\n      0x00\n        /* \"Desktop/SolidityGit/Hostel.sol\":5689:5695  _index */\n      dup8\n        /* \"Desktop/SolidityGit/Hostel.sol\":5678:5696  Room_by_No[_index] */\n      dup2\n      mstore\n      0x20\n      add\n      swap1\n      dup2\n      mstore\n      0x20\n      add\n      0x00\n      keccak256\n        /* \"Desktop/SolidityGit/Hostel.sol\":5678:5703  Room_by_No[_index].vacant */\n      0x07\n      add\n      0x00\n        /* \"Desktop/SolidityGit/Hostel.sol\":5678:5710  Room_by_No[_index].vacant = true */\n      0x0100\n      exp\n      dup2\n      sload\n      dup2\n      0xff\n      mul\n      not\n      and\n      swap1\n      dup4\n      iszero\n      iszero\n      mul\n      or\n      swap1\n      sstore\n      pop\n        /* \"Desktop/SolidityGit/Hostel.sol\":5721:5744  address payable _Tenant */\n      0x00\n        /* \"Desktop/SolidityGit/Hostel.sol\":5747:5757  Room_by_No */\n      0x05\n        /* \"Desktop/SolidityGit/Hostel.sol\":5747:5765  Room_by_No[_index] */\n      0x00\n        /* \"Desktop/SolidityGit/Hostel.sol\":5758:5764  _index */\n      dup8\n        /* \"Desktop/SolidityGit/Hostel.sol\":5747:5765  Room_by_No[_index] */\n      dup2\n      mstore\n      0x20\n      add\n      swap1\n      dup2\n      mstore\n      0x20\n      add\n      0x00\n      keccak256\n        /* \"Desktop/SolidityGit/Hostel.sol\":5747:5779  Room_by_No[_index].currentTenant */\n      0x08\n      add\n      0x00\n      swap1\n      sload\n      swap1\n      0x0100\n      exp\n      swap1\n      div\n      0xffffffffffffffffffffffffffffffffffffffff\n      and\n        /* \"Desktop/SolidityGit/Hostel.sol\":5721:5779  address payable _Tenant = Room_by_No[_index].currentTenant */\n      swap1\n      pop\n        /* \"Desktop/SolidityGit/Hostel.sol\":5790:5811  uint _securitydeposit */\n      0x00\n        /* \"Desktop/SolidityGit/Hostel.sol\":5814:5824  Room_by_No */\n      0x05\n        /* \"Desktop/SolidityGit/Hostel.sol\":5814:5832  Room_by_No[_index] */\n      0x00\n        /* \"Desktop/SolidityGit/Hostel.sol\":5825:5831  _index */\n      dup9\n        /* \"Desktop/SolidityGit/Hostel.sol\":5814:5832  Room_by_No[_index] */\n      dup2\n      mstore\n      0x20\n      add\n      swap1\n      dup2\n      mstore\n      0x20\n      add\n      0x00\n      keccak256\n        /* \"Desktop/SolidityGit/Hostel.sol\":5814:5848  Room_by_No[_index].securityDeposit */\n      0x05\n      add\n      sload\n        /* \"Desktop/SolidityGit/Hostel.sol\":5790:5848  uint _securitydeposit = Room_by_No[_index].securityDeposit */\n      swap1\n      pop\n        /* \"Desktop/SolidityGit/Hostel.sol\":5859:5866  _Tenant */\n      dup2\n        /* \"Desktop/SolidityGit/Hostel.sol\":5859:5875  _Tenant.transfer */\n      0xffffffffffffffffffffffffffffffffffffffff\n      and\n        /* \"Desktop/SolidityGit/Hostel.sol\":5859:5893  _Tenant.transfer(_securitydeposit) */\n      0x08fc\n        /* \"Desktop/SolidityGit/Hostel.sol\":5876:5892  _securitydeposit */\n      dup3\n        /* \"Desktop/SolidityGit/Hostel.sol\":5859:5893  _Tenant.transfer(_securitydeposit) */\n      swap1\n      dup2\n      iszero\n      mul\n      swap1\n      mload(0x40)\n      0x00\n      mload(0x40)\n      dup1\n      dup4\n      sub\n      dup2\n      dup6\n      dup9\n      dup9\n      call\n      swap4\n      pop\n      pop\n      pop\n      pop\n      iszero\n      dup1\n      iszero\n      tag_136\n      jumpi\n      returndatasize\n      0x00\n      dup1\n      returndatacopy\n      revert(0x00, returndatasize)\n    tag_136:\n      pop\n        /* \"Desktop/SolidityGit/Hostel.sol\":5538:5901  {... */\n      pop\n      pop\n        /* \"Desktop/SolidityGit/Hostel.sol\":2747:3021  {... */\n      pop\n      pop\n        /* \"Desktop/SolidityGit/Hostel.sol\":1489:1490  _ */\n      pop\n        /* \"Desktop/SolidityGit/Hostel.sol\":5437:5901  function agreementCompleted(uint _index) public payable onlyLandlord(_index) AgreementTimesUp(_index){... */\n      pop\n      pop\n      jump\t// out\n        /* \"Desktop/SolidityGit/Hostel.sol\":557:596  mapping(uint => Room) public Room_by_No */\n    tag_35:\n      mstore(0x20, 0x05)\n      dup1\n      0x00\n      mstore\n      keccak256(0x00, 0x40)\n      0x00\n      swap2\n      pop\n      swap1\n      pop\n      dup1\n      0x00\n      add\n      sload\n      swap1\n      dup1\n      0x01\n      add\n      sload\n      swap1\n      dup1\n      0x02\n      add\n      dup1\n      sload\n      tag_137\n      swap1\n      tag_65\n      jump\t// in\n    tag_137:\n      dup1\n      0x1f\n      add\n      0x20\n      dup1\n      swap2\n      div\n      mul\n      0x20\n      add\n      mload(0x40)\n      swap1\n      dup2\n      add\n      0x40\n      mstore\n      dup1\n      swap3\n      swap2\n      swap1\n      dup2\n      dup2\n      mstore\n      0x20\n      add\n      dup3\n      dup1\n      sload\n      tag_138\n      swap1\n      tag_65\n      jump\t// in\n    tag_138:\n      dup1\n      iszero\n      tag_139\n      jumpi\n      dup1\n      0x1f\n      lt\n      tag_140\n      jumpi\n      0x0100\n      dup1\n      dup4\n      sload\n      div\n      mul\n      dup4\n      mstore\n      swap2\n      0x20\n      add\n      swap2\n      jump(tag_139)\n    tag_140:\n      dup3\n      add\n      swap2\n      swap1\n      0x00\n      mstore\n      keccak256(0x00, 0x20)\n      swap1\n    tag_141:\n      dup2\n      sload\n      dup2\n      mstore\n      swap1\n      0x01\n      add\n      swap1\n      0x20\n      add\n      dup1\n      dup4\n      gt\n      tag_141\n      jumpi\n      dup3\n      swap1\n      sub\n      0x1f\n      and\n      dup3\n      add\n      swap2\n    tag_139:\n      pop\n      pop\n      pop\n      pop\n      pop\n      swap1\n      dup1\n      0x03\n      add\n      dup1\n      sload\n      tag_142\n      swap1\n      tag_65\n      jump\t// in\n    tag_142:\n      dup1\n      0x1f\n      add\n      0x20\n      dup1\n      swap2\n      div\n      mul\n      0x20\n      add\n      mload(0x40)\n      swap1\n      dup2\n      add\n      0x40\n      mstore\n      dup1\n      swap3\n      swap2\n      swap1\n      dup2\n      dup2\n      mstore\n      0x20\n      add\n      dup3\n      dup1\n      sload\n      tag_143\n      swap1\n      tag_65\n      jump\t// in\n    tag_143:\n      dup1\n      iszero\n      tag_144\n      jumpi\n      dup1\n      0x1f\n      lt\n      tag_145\n      jumpi\n      0x0100\n      dup1\n      dup4\n      sload\n      div\n      mul\n      dup4\n      mstore\n      swap2\n      0x20\n      add\n      swap2\n      jump(tag_144)\n    tag_145:\n      dup3\n      add\n      swap2\n      swap1\n      0x00\n      mstore\n      keccak256(0x00, 0x20)\n      swap1\n    tag_146:\n      dup2\n      sload\n      dup2\n      mstore\n      swap1\n      0x01\n      add\n      swap1\n      0x20\n      add\n      dup1\n      dup4\n      gt\n      tag_146\n      jumpi\n      dup3\n      swap1\n      sub\n      0x1f\n      and\n      dup3\n      add\n      swap2\n    tag_144:\n      pop\n      pop\n      pop\n      pop\n      pop\n      swap1\n      dup1\n      0x04\n      add\n      sload\n      swap1\n      dup1\n      0x05\n      add\n      sload\n      swap1\n      dup1\n      0x06\n      add\n      sload\n      swap1\n      dup1\n      0x07\n      add\n      0x00\n      swap1\n      sload\n      swap1\n      0x0100\n      exp\n      swap1\n      div\n      0xff\n      and\n      swap1\n      dup1\n      0x07\n      add\n      0x01\n      swap1\n      sload\n      swap1\n      0x0100\n      exp\n      swap1\n      div\n      0xffffffffffffffffffffffffffffffffffffffff\n      and\n      swap1\n      dup1\n      0x08\n      add\n      0x00\n      swap1\n      sload\n      swap1\n      0x0100\n      exp\n      swap1\n      div\n      0xffffffffffffffffffffffffffffffffffffffff\n      and\n      swap1\n      pop\n      dup11\n      jump\t// out\n        /* \"Desktop/SolidityGit/Hostel.sol\":5911:6102  function agreementTerminated(uint _index) public onlyLandlord(_index) AgreementTimesLeft(_index){... */\n    tag_41:\n        /* \"Desktop/SolidityGit/Hostel.sol\":5973:5979  _index */\n      dup1\n        /* \"Desktop/SolidityGit/Hostel.sol\":1417:1427  Room_by_No */\n      0x05\n        /* \"Desktop/SolidityGit/Hostel.sol\":1417:1435  Room_by_No[_index] */\n      0x00\n        /* \"Desktop/SolidityGit/Hostel.sol\":1428:1434  _index */\n      dup3\n        /* \"Desktop/SolidityGit/Hostel.sol\":1417:1435  Room_by_No[_index] */\n      dup2\n      mstore\n      0x20\n      add\n      swap1\n      dup2\n      mstore\n      0x20\n      add\n      0x00\n      keccak256\n        /* \"Desktop/SolidityGit/Hostel.sol\":1417:1444  Room_by_No[_index].landlord */\n      0x07\n      add\n      0x01\n      swap1\n      sload\n      swap1\n      0x0100\n      exp\n      swap1\n      div\n      0xffffffffffffffffffffffffffffffffffffffff\n      and\n        /* \"Desktop/SolidityGit/Hostel.sol\":1403:1444  msg.sender == Room_by_No[_index].landlord */\n      0xffffffffffffffffffffffffffffffffffffffff\n      and\n        /* \"Desktop/SolidityGit/Hostel.sol\":1403:1413  msg.sender */\n      caller\n        /* \"Desktop/SolidityGit/Hostel.sol\":1403:1444  msg.sender == Room_by_No[_index].landlord */\n      0xffffffffffffffffffffffffffffffffffffffff\n      and\n      eq\n        /* \"Desktop/SolidityGit/Hostel.sol\":1395:1478  require(msg.sender == Room_by_No[_index].landlord, \"Only landlord can access this\") */\n      tag_148\n      jumpi\n      mload(0x40)\n      0x08c379a000000000000000000000000000000000000000000000000000000000\n      dup2\n      mstore\n      0x04\n      add\n      tag_149\n      swap1\n      tag_125\n      jump\t// in\n    tag_149:\n      mload(0x40)\n      dup1\n      swap2\n      sub\n      swap1\n      revert\n    tag_148:\n        /* \"Desktop/SolidityGit/Hostel.sol\":6000:6006  _index */\n      dup2\n        /* \"Desktop/SolidityGit/Hostel.sol\":2444:2461  uint _AgreementNo */\n      0x00\n        /* \"Desktop/SolidityGit/Hostel.sol\":2464:2474  Room_by_No */\n      0x05\n        /* \"Desktop/SolidityGit/Hostel.sol\":2464:2482  Room_by_No[_index] */\n      0x00\n        /* \"Desktop/SolidityGit/Hostel.sol\":2475:2481  _index */\n      dup4\n        /* \"Desktop/SolidityGit/Hostel.sol\":2464:2482  Room_by_No[_index] */\n      dup2\n      mstore\n      0x20\n      add\n      swap1\n      dup2\n      mstore\n      0x20\n      add\n      0x00\n      keccak256\n        /* \"Desktop/SolidityGit/Hostel.sol\":2464:2494  Room_by_No[_index].agreementid */\n      0x01\n      add\n      sload\n        /* \"Desktop/SolidityGit/Hostel.sol\":2444:2494  uint _AgreementNo = Room_by_No[_index].agreementid */\n      swap1\n      pop\n        /* \"Desktop/SolidityGit/Hostel.sol\":2505:2514  uint time */\n      0x00\n        /* \"Desktop/SolidityGit/Hostel.sol\":2563:2582  RoomAgreement_by_No */\n      0x06\n        /* \"Desktop/SolidityGit/Hostel.sol\":2563:2596  RoomAgreement_by_No[_AgreementNo] */\n      0x00\n        /* \"Desktop/SolidityGit/Hostel.sol\":2583:2595  _AgreementNo */\n      dup4\n        /* \"Desktop/SolidityGit/Hostel.sol\":2563:2596  RoomAgreement_by_No[_AgreementNo] */\n      dup2\n      mstore\n      0x20\n      add\n      swap1\n      dup2\n      mstore\n      0x20\n      add\n      0x00\n      keccak256\n        /* \"Desktop/SolidityGit/Hostel.sol\":2563:2609  RoomAgreement_by_No[_AgreementNo].lockInPeriod */\n      0x06\n      add\n      sload\n        /* \"Desktop/SolidityGit/Hostel.sol\":2517:2536  RoomAgreement_by_No */\n      0x06\n        /* \"Desktop/SolidityGit/Hostel.sol\":2517:2550  RoomAgreement_by_No[_AgreementNo] */\n      0x00\n        /* \"Desktop/SolidityGit/Hostel.sol\":2537:2549  _AgreementNo */\n      dup5\n        /* \"Desktop/SolidityGit/Hostel.sol\":2517:2550  RoomAgreement_by_No[_AgreementNo] */\n      dup2\n      mstore\n      0x20\n      add\n      swap1\n      dup2\n      mstore\n      0x20\n      add\n      0x00\n      keccak256\n        /* \"Desktop/SolidityGit/Hostel.sol\":2517:2560  RoomAgreement_by_No[_AgreementNo].timestamp */\n      0x07\n      add\n      sload\n        /* \"Desktop/SolidityGit/Hostel.sol\":2517:2609  RoomAgreement_by_No[_AgreementNo].timestamp + RoomAgreement_by_No[_AgreementNo].lockInPeriod */\n      tag_151\n      swap2\n      swap1\n      tag_81\n      jump\t// in\n    tag_151:\n        /* \"Desktop/SolidityGit/Hostel.sol\":2505:2609  uint time = RoomAgreement_by_No[_AgreementNo].timestamp + RoomAgreement_by_No[_AgreementNo].lockInPeriod */\n      swap1\n      pop\n        /* \"Desktop/SolidityGit/Hostel.sol\":2646:2650  time */\n      dup1\n        /* \"Desktop/SolidityGit/Hostel.sol\":2628:2643  block.timestamp */\n      timestamp\n        /* \"Desktop/SolidityGit/Hostel.sol\":2628:2650  block.timestamp < time */\n      lt\n        /* \"Desktop/SolidityGit/Hostel.sol\":2620:2678  require(block.timestamp < time, \"Agreement already Ended\") */\n      tag_152\n      jumpi\n      mload(0x40)\n      0x08c379a000000000000000000000000000000000000000000000000000000000\n      dup2\n      mstore\n      0x04\n      add\n      tag_153\n      swap1\n      tag_154\n      jump\t// in\n    tag_153:\n      mload(0x40)\n      dup1\n      swap2\n      sub\n      swap1\n      revert\n    tag_152:\n        /* \"Desktop/SolidityGit/Hostel.sol\":6048:6049  0 */\n      0x00\n        /* \"Desktop/SolidityGit/Hostel.sol\":6026:6050  msg.sender != address(0) */\n      0xffffffffffffffffffffffffffffffffffffffff\n      and\n        /* \"Desktop/SolidityGit/Hostel.sol\":6026:6036  msg.sender */\n      caller\n        /* \"Desktop/SolidityGit/Hostel.sol\":6026:6050  msg.sender != address(0) */\n      0xffffffffffffffffffffffffffffffffffffffff\n      and\n      sub\n        /* \"Desktop/SolidityGit/Hostel.sol\":6018:6051  require(msg.sender != address(0)) */\n      tag_156\n      jumpi\n      0x00\n      dup1\n      revert\n    tag_156:\n        /* \"Desktop/SolidityGit/Hostel.sol\":6090:6094  true */\n      0x01\n        /* \"Desktop/SolidityGit/Hostel.sol\":6062:6072  Room_by_No */\n      0x05\n        /* \"Desktop/SolidityGit/Hostel.sol\":6062:6080  Room_by_No[_index] */\n      0x00\n        /* \"Desktop/SolidityGit/Hostel.sol\":6073:6079  _index */\n      dup8\n        /* \"Desktop/SolidityGit/Hostel.sol\":6062:6080  Room_by_No[_index] */\n      dup2\n      mstore\n      0x20\n      add\n      swap1\n      dup2\n      mstore\n      0x20\n      add\n      0x00\n      keccak256\n        /* \"Desktop/SolidityGit/Hostel.sol\":6062:6087  Room_by_No[_index].vacant */\n      0x07\n      add\n      0x00\n        /* \"Desktop/SolidityGit/Hostel.sol\":6062:6094  Room_by_No[_index].vacant = true */\n      0x0100\n      exp\n      dup2\n      sload\n      dup2\n      0xff\n      mul\n      not\n      and\n      swap1\n      dup4\n      iszero\n      iszero\n      mul\n      or\n      swap1\n      sstore\n      pop\n        /* \"Desktop/SolidityGit/Hostel.sol\":2433:2698  {... */\n      pop\n      pop\n        /* \"Desktop/SolidityGit/Hostel.sol\":1489:1490  _ */\n      pop\n        /* \"Desktop/SolidityGit/Hostel.sol\":5911:6102  function agreementTerminated(uint _index) public onlyLandlord(_index) AgreementTimesLeft(_index){... */\n      pop\n      pop\n      jump\t// out\n        /* \"Desktop/SolidityGit/Hostel.sol\":140:167  uint public no_of_rooms = 0 */\n    tag_44:\n      sload(0x02)\n      dup2\n      jump\t// out\n        /* \"Desktop/SolidityGit/Hostel.sol\":3224:3620  function addRoom(string memory _roomname, string memory _roomaddress, uint _rentcost, uint  _securitydeposit) public {... */\n    tag_50:\n        /* \"Desktop/SolidityGit/Hostel.sol\":3382:3383  0 */\n      0x00\n        /* \"Desktop/SolidityGit/Hostel.sol\":3360:3384  msg.sender != address(0) */\n      0xffffffffffffffffffffffffffffffffffffffff\n      and\n        /* \"Desktop/SolidityGit/Hostel.sol\":3360:3370  msg.sender */\n      caller\n        /* \"Desktop/SolidityGit/Hostel.sol\":3360:3384  msg.sender != address(0) */\n      0xffffffffffffffffffffffffffffffffffffffff\n      and\n      sub\n        /* \"Desktop/SolidityGit/Hostel.sol\":3352:3385  require(msg.sender != address(0)) */\n      tag_158\n      jumpi\n      0x00\n      dup1\n      revert\n    tag_158:\n        /* \"Desktop/SolidityGit/Hostel.sol\":3396:3407  no_of_rooms */\n      0x02\n      0x00\n        /* \"Desktop/SolidityGit/Hostel.sol\":3396:3410  no_of_rooms ++ */\n      dup2\n      sload\n      dup1\n      swap3\n      swap2\n      swap1\n      tag_159\n      swap1\n      tag_95\n      jump\t// in\n    tag_159:\n      swap2\n      swap1\n      pop\n      sstore\n      pop\n        /* \"Desktop/SolidityGit/Hostel.sol\":3421:3434  bool _vacancy */\n      0x00\n        /* \"Desktop/SolidityGit/Hostel.sol\":3437:3441  true */\n      0x01\n        /* \"Desktop/SolidityGit/Hostel.sol\":3421:3441  bool _vacancy = true */\n      swap1\n      pop\n        /* \"Desktop/SolidityGit/Hostel.sol\":3478:3601  Room(no_of_rooms,0,_roomname,_roomaddress, _rentcost,_securitydeposit,0,_vacancy,payable( msg.sender),payable( address(0))) */\n      mload(0x40)\n      dup1\n      0x0140\n      add\n      0x40\n      mstore\n      dup1\n        /* \"Desktop/SolidityGit/Hostel.sol\":3483:3494  no_of_rooms */\n      sload(0x02)\n        /* \"Desktop/SolidityGit/Hostel.sol\":3478:3601  Room(no_of_rooms,0,_roomname,_roomaddress, _rentcost,_securitydeposit,0,_vacancy,payable( msg.sender),payable( address(0))) */\n      dup2\n      mstore\n      0x20\n      add\n        /* \"Desktop/SolidityGit/Hostel.sol\":3495:3496  0 */\n      0x00\n        /* \"Desktop/SolidityGit/Hostel.sol\":3478:3601  Room(no_of_rooms,0,_roomname,_roomaddress, _rentcost,_securitydeposit,0,_vacancy,payable( msg.sender),payable( address(0))) */\n      dup2\n      mstore\n      0x20\n      add\n        /* \"Desktop/SolidityGit/Hostel.sol\":3497:3506  _roomname */\n      dup7\n        /* \"Desktop/SolidityGit/Hostel.sol\":3478:3601  Room(no_of_rooms,0,_roomname,_roomaddress, _rentcost,_securitydeposit,0,_vacancy,payable( msg.sender),payable( address(0))) */\n      dup2\n      mstore\n      0x20\n      add\n        /* \"Desktop/SolidityGit/Hostel.sol\":3507:3519  _roomaddress */\n      dup6\n        /* \"Desktop/SolidityGit/Hostel.sol\":3478:3601  Room(no_of_rooms,0,_roomname,_roomaddress, _rentcost,_securitydeposit,0,_vacancy,payable( msg.sender),payable( address(0))) */\n      dup2\n      mstore\n      0x20\n      add\n        /* \"Desktop/SolidityGit/Hostel.sol\":3521:3530  _rentcost */\n      dup5\n        /* \"Desktop/SolidityGit/Hostel.sol\":3478:3601  Room(no_of_rooms,0,_roomname,_roomaddress, _rentcost,_securitydeposit,0,_vacancy,payable( msg.sender),payable( address(0))) */\n      dup2\n      mstore\n      0x20\n      add\n        /* \"Desktop/SolidityGit/Hostel.sol\":3531:3547  _securitydeposit */\n      dup4\n        /* \"Desktop/SolidityGit/Hostel.sol\":3478:3601  Room(no_of_rooms,0,_roomname,_roomaddress, _rentcost,_securitydeposit,0,_vacancy,payable( msg.sender),payable( address(0))) */\n      dup2\n      mstore\n      0x20\n      add\n        /* \"Desktop/SolidityGit/Hostel.sol\":3548:3549  0 */\n      0x00\n        /* \"Desktop/SolidityGit/Hostel.sol\":3478:3601  Room(no_of_rooms,0,_roomname,_roomaddress, _rentcost,_securitydeposit,0,_vacancy,payable( msg.sender),payable( address(0))) */\n      dup2\n      mstore\n      0x20\n      add\n        /* \"Desktop/SolidityGit/Hostel.sol\":3550:3558  _vacancy */\n      dup3\n        /* \"Desktop/SolidityGit/Hostel.sol\":3478:3601  Room(no_of_rooms,0,_roomname,_roomaddress, _rentcost,_securitydeposit,0,_vacancy,payable( msg.sender),payable( address(0))) */\n      iszero\n      iszero\n      dup2\n      mstore\n      0x20\n      add\n        /* \"Desktop/SolidityGit/Hostel.sol\":3568:3578  msg.sender */\n      caller\n        /* \"Desktop/SolidityGit/Hostel.sol\":3478:3601  Room(no_of_rooms,0,_roomname,_roomaddress, _rentcost,_securitydeposit,0,_vacancy,payable( msg.sender),payable( address(0))) */\n      0xffffffffffffffffffffffffffffffffffffffff\n      and\n      dup2\n      mstore\n      0x20\n      add\n        /* \"Desktop/SolidityGit/Hostel.sol\":3597:3598  0 */\n      0x00\n        /* \"Desktop/SolidityGit/Hostel.sol\":3478:3601  Room(no_of_rooms,0,_roomname,_roomaddress, _rentcost,_securitydeposit,0,_vacancy,payable( msg.sender),payable( address(0))) */\n      0xffffffffffffffffffffffffffffffffffffffff\n      and\n      dup2\n      mstore\n      pop\n        /* \"Desktop/SolidityGit/Hostel.sol\":3452:3462  Room_by_No */\n      0x05\n        /* \"Desktop/SolidityGit/Hostel.sol\":3452:3475  Room_by_No[no_of_rooms] */\n      0x00\n        /* \"Desktop/SolidityGit/Hostel.sol\":3463:3474  no_of_rooms */\n      sload(0x02)\n        /* \"Desktop/SolidityGit/Hostel.sol\":3452:3475  Room_by_No[no_of_rooms] */\n      dup2\n      mstore\n      0x20\n      add\n      swap1\n      dup2\n      mstore\n      0x20\n      add\n      0x00\n      keccak256\n        /* \"Desktop/SolidityGit/Hostel.sol\":3452:3601  Room_by_No[no_of_rooms] = Room(no_of_rooms,0,_roomname,_roomaddress, _rentcost,_securitydeposit,0,_vacancy,payable( msg.sender),payable( address(0))) */\n      0x00\n      dup3\n      add\n      mload\n      dup2\n      0x00\n      add\n      sstore\n      0x20\n      dup3\n      add\n      mload\n      dup2\n      0x01\n      add\n      sstore\n      0x40\n      dup3\n      add\n      mload\n      dup2\n      0x02\n      add\n      swap1\n      dup2\n      tag_160\n      swap2\n      swap1\n      tag_107\n      jump\t// in\n    tag_160:\n      pop\n      0x60\n      dup3\n      add\n      mload\n      dup2\n      0x03\n      add\n      swap1\n      dup2\n      tag_161\n      swap2\n      swap1\n      tag_107\n      jump\t// in\n    tag_161:\n      pop\n      0x80\n      dup3\n      add\n      mload\n      dup2\n      0x04\n      add\n      sstore\n      0xa0\n      dup3\n      add\n      mload\n      dup2\n      0x05\n      add\n      sstore\n      0xc0\n      dup3\n      add\n      mload\n      dup2\n      0x06\n      add\n      sstore\n      0xe0\n      dup3\n      add\n      mload\n      dup2\n      0x07\n      add\n      exp(0x0100, 0x00)\n      dup2\n      sload\n      dup2\n      0xff\n      mul\n      not\n      and\n      swap1\n      dup4\n      iszero\n      iszero\n      mul\n      or\n      swap1\n      sstore\n      pop\n      0x0100\n      dup3\n      add\n      mload\n      dup2\n      0x07\n      add\n      exp(0x0100, 0x01)\n      dup2\n      sload\n      dup2\n      0xffffffffffffffffffffffffffffffffffffffff\n      mul\n      not\n      and\n      swap1\n      dup4\n      0xffffffffffffffffffffffffffffffffffffffff\n      and\n      mul\n      or\n      swap1\n      sstore\n      pop\n      0x0120\n      dup3\n      add\n      mload\n      dup2\n      0x08\n      add\n      exp(0x0100, 0x00)\n      dup2\n      sload\n      dup2\n      0xffffffffffffffffffffffffffffffffffffffff\n      mul\n      not\n      and\n      swap1\n      dup4\n      0xffffffffffffffffffffffffffffffffffffffff\n      and\n      mul\n      or\n      swap1\n      sstore\n      pop\n      swap1\n      pop\n      pop\n        /* \"Desktop/SolidityGit/Hostel.sol\":3341:3620  {... */\n      pop\n        /* \"Desktop/SolidityGit/Hostel.sol\":3224:3620  function addRoom(string memory _roomname, string memory _roomaddress, uint _rentcost, uint  _securitydeposit) public {... */\n      pop\n      pop\n      pop\n      pop\n      jump\t// out\n        /* \"Desktop/SolidityGit/Hostel.sol\":212:238  uint public no_of_rent = 0 */\n    tag_53:\n      sload(0x04)\n      dup2\n      jump\t// out\n        /* \"Desktop/SolidityGit/Hostel.sol\":1299:1338  mapping(uint => Rent) public Rent_by_No */\n    tag_58:\n      mstore(0x20, 0x07)\n      dup1\n      0x00\n      mstore\n      keccak256(0x00, 0x40)\n      0x00\n      swap2\n      pop\n      swap1\n      pop\n      dup1\n      0x00\n      add\n      sload\n      swap1\n      dup1\n      0x01\n      add\n      sload\n      swap1\n      dup1\n      0x02\n      add\n      sload\n      swap1\n      dup1\n      0x03\n      add\n      dup1\n      sload\n      tag_162\n      swap1\n      tag_65\n      jump\t// in\n    tag_162:\n      dup1\n      0x1f\n      add\n      0x20\n      dup1\n      swap2\n      div\n      mul\n      0x20\n      add\n      mload(0x40)\n      swap1\n      dup2\n      add\n      0x40\n      mstore\n      dup1\n      swap3\n      swap2\n      swap1\n      dup2\n      dup2\n      mstore\n      0x20\n      add\n      dup3\n      dup1\n      sload\n      tag_163\n      swap1\n      tag_65\n      jump\t// in\n    tag_163:\n      dup1\n      iszero\n      tag_164\n      jumpi\n      dup1\n      0x1f\n      lt\n      tag_165\n      jumpi\n      0x0100\n      dup1\n      dup4\n      sload\n      div\n      mul\n      dup4\n      mstore\n      swap2\n      0x20\n      add\n      swap2\n      jump(tag_164)\n    tag_165:\n      dup3\n      add\n      swap2\n      swap1\n      0x00\n      mstore\n      keccak256(0x00, 0x20)\n      swap1\n    tag_166:\n      dup2\n      sload\n      dup2\n      mstore\n      swap1\n      0x01\n      add\n      swap1\n      0x20\n      add\n      dup1\n      dup4\n      gt\n      tag_166\n      jumpi\n      dup3\n      swap1\n      sub\n      0x1f\n      and\n      dup3\n      add\n      swap2\n    tag_164:\n      pop\n      pop\n      pop\n      pop\n      pop\n      swap1\n      dup1\n      0x04\n      add\n      dup1\n      sload\n      tag_167\n      swap1\n      tag_65\n      jump\t// in\n    tag_167:\n      dup1\n      0x1f\n      add\n      0x20\n      dup1\n      swap2\n      div\n      mul\n      0x20\n      add\n      mload(0x40)\n      swap1\n      dup2\n      add\n      0x40\n      mstore\n      dup1\n      swap3\n      swap2\n      swap1\n      dup2\n      dup2\n      mstore\n      0x20\n      add\n      dup3\n      dup1\n      sload\n      tag_168\n      swap1\n      tag_65\n      jump\t// in\n    tag_168:\n      dup1\n      iszero\n      tag_169\n      jumpi\n      dup1\n      0x1f\n      lt\n      tag_170\n      jumpi\n      0x0100\n      dup1\n      dup4\n      sload\n      div\n      mul\n      dup4\n      mstore\n      swap2\n      0x20\n      add\n      swap2\n      jump(tag_169)\n    tag_170:\n      dup3\n      add\n      swap2\n      swap1\n      0x00\n      mstore\n      keccak256(0x00, 0x20)\n      swap1\n    tag_171:\n      dup2\n      sload\n      dup2\n      mstore\n      swap1\n      0x01\n      add\n      swap1\n      0x20\n      add\n      dup1\n      dup4\n      gt\n      tag_171\n      jumpi\n      dup3\n      swap1\n      sub\n      0x1f\n      and\n      dup3\n      add\n      swap2\n    tag_169:\n      pop\n      pop\n      pop\n      pop\n      pop\n      swap1\n      dup1\n      0x05\n      add\n      sload\n      swap1\n      dup1\n      0x06\n      add\n      sload\n      swap1\n      dup1\n      0x07\n      add\n      0x00\n      swap1\n      sload\n      swap1\n      0x0100\n      exp\n      swap1\n      div\n      0xffffffffffffffffffffffffffffffffffffffff\n      and\n      swap1\n      dup1\n      0x08\n      add\n      0x00\n      swap1\n      sload\n      swap1\n      0x0100\n      exp\n      swap1\n      div\n      0xffffffffffffffffffffffffffffffffffffffff\n      and\n      swap1\n      pop\n      dup10\n      jump\t// out\n        /* \"Desktop/SolidityGit/Hostel.sol\":4767:5431  function payRent(uint _index) public payable sameTenant(_index) RentTimesUp(_index) enoughRent(_index){... */\n    tag_63:\n        /* \"Desktop/SolidityGit/Hostel.sol\":4823:4829  _index */\n      dup1\n        /* \"Desktop/SolidityGit/Hostel.sol\":2278:2288  Room_by_No */\n      0x05\n        /* \"Desktop/SolidityGit/Hostel.sol\":2278:2296  Room_by_No[_index] */\n      0x00\n        /* \"Desktop/SolidityGit/Hostel.sol\":2289:2295  _index */\n      dup3\n        /* \"Desktop/SolidityGit/Hostel.sol\":2278:2296  Room_by_No[_index] */\n      dup2\n      mstore\n      0x20\n      add\n      swap1\n      dup2\n      mstore\n      0x20\n      add\n      0x00\n      keccak256\n        /* \"Desktop/SolidityGit/Hostel.sol\":2278:2310  Room_by_No[_index].currentTenant */\n      0x08\n      add\n      0x00\n      swap1\n      sload\n      swap1\n      0x0100\n      exp\n      swap1\n      div\n      0xffffffffffffffffffffffffffffffffffffffff\n      and\n        /* \"Desktop/SolidityGit/Hostel.sol\":2264:2310  msg.sender == Room_by_No[_index].currentTenant */\n      0xffffffffffffffffffffffffffffffffffffffff\n      and\n        /* \"Desktop/SolidityGit/Hostel.sol\":2264:2274  msg.sender */\n      caller\n        /* \"Desktop/SolidityGit/Hostel.sol\":2264:2310  msg.sender == Room_by_No[_index].currentTenant */\n      0xffffffffffffffffffffffffffffffffffffffff\n      and\n      eq\n        /* \"Desktop/SolidityGit/Hostel.sol\":2256:2362  require(msg.sender == Room_by_No[_index].currentTenant, \"No previous agreement found with you & landlord\") */\n      tag_173\n      jumpi\n      mload(0x40)\n      0x08c379a000000000000000000000000000000000000000000000000000000000\n      dup2\n      mstore\n      0x04\n      add\n      tag_174\n      swap1\n      tag_175\n      jump\t// in\n    tag_174:\n      mload(0x40)\n      dup1\n      swap2\n      sub\n      swap1\n      revert\n    tag_173:\n        /* \"Desktop/SolidityGit/Hostel.sol\":4843:4849  _index */\n      dup2\n        /* \"Desktop/SolidityGit/Hostel.sol\":3076:3085  uint time */\n      0x00\n        /* \"Desktop/SolidityGit/Hostel.sol\":3119:3126  30 days */\n      0x278d00\n        /* \"Desktop/SolidityGit/Hostel.sol\":3088:3098  Room_by_No */\n      0x05\n        /* \"Desktop/SolidityGit/Hostel.sol\":3088:3106  Room_by_No[_index] */\n      0x00\n        /* \"Desktop/SolidityGit/Hostel.sol\":3099:3105  _index */\n      dup5\n        /* \"Desktop/SolidityGit/Hostel.sol\":3088:3106  Room_by_No[_index] */\n      dup2\n      mstore\n      0x20\n      add\n      swap1\n      dup2\n      mstore\n      0x20\n      add\n      0x00\n      keccak256\n        /* \"Desktop/SolidityGit/Hostel.sol\":3088:3116  Room_by_No[_index].timestamp */\n      0x06\n      add\n      sload\n        /* \"Desktop/SolidityGit/Hostel.sol\":3088:3126  Room_by_No[_index].timestamp + 30 days */\n      tag_177\n      swap2\n      swap1\n      tag_81\n      jump\t// in\n    tag_177:\n        /* \"Desktop/SolidityGit/Hostel.sol\":3076:3126  uint time = Room_by_No[_index].timestamp + 30 days */\n      swap1\n      pop\n        /* \"Desktop/SolidityGit/Hostel.sol\":3164:3168  time */\n      dup1\n        /* \"Desktop/SolidityGit/Hostel.sol\":3145:3160  block.timestamp */\n      timestamp\n        /* \"Desktop/SolidityGit/Hostel.sol\":3145:3168  block.timestamp >= time */\n      lt\n      iszero\n        /* \"Desktop/SolidityGit/Hostel.sol\":3137:3194  require(block.timestamp >= time, \"Time left to pay Rent\") */\n      tag_178\n      jumpi\n      mload(0x40)\n      0x08c379a000000000000000000000000000000000000000000000000000000000\n      dup2\n      mstore\n      0x04\n      add\n      tag_179\n      swap1\n      tag_180\n      jump\t// in\n    tag_179:\n      mload(0x40)\n      dup1\n      swap2\n      sub\n      swap1\n      revert\n    tag_178:\n        /* \"Desktop/SolidityGit/Hostel.sol\":4862:4868  _index */\n      dup4\n        /* \"Desktop/SolidityGit/Hostel.sol\":1885:1895  Room_by_No */\n      0x05\n        /* \"Desktop/SolidityGit/Hostel.sol\":1885:1903  Room_by_No[_index] */\n      0x00\n        /* \"Desktop/SolidityGit/Hostel.sol\":1896:1902  _index */\n      dup3\n        /* \"Desktop/SolidityGit/Hostel.sol\":1885:1903  Room_by_No[_index] */\n      dup2\n      mstore\n      0x20\n      add\n      swap1\n      dup2\n      mstore\n      0x20\n      add\n      0x00\n      keccak256\n        /* \"Desktop/SolidityGit/Hostel.sol\":1885:1918  Room_by_No[_index].rent_per_month */\n      0x04\n      add\n      sload\n        /* \"Desktop/SolidityGit/Hostel.sol\":1867:1876  msg.value */\n      callvalue\n        /* \"Desktop/SolidityGit/Hostel.sol\":1867:1919  msg.value >= uint(Room_by_No[_index].rent_per_month) */\n      lt\n      iszero\n        /* \"Desktop/SolidityGit/Hostel.sol\":1859:1955  require(msg.value >= uint(Room_by_No[_index].rent_per_month), \"Not enough Ether in your wallet\") */\n      tag_182\n      jumpi\n      mload(0x40)\n      0x08c379a000000000000000000000000000000000000000000000000000000000\n      dup2\n      mstore\n      0x04\n      add\n      tag_183\n      swap1\n      tag_84\n      jump\t// in\n    tag_183:\n      mload(0x40)\n      dup1\n      swap2\n      sub\n      swap1\n      revert\n    tag_182:\n        /* \"Desktop/SolidityGit/Hostel.sol\":4910:4911  0 */\n      0x00\n        /* \"Desktop/SolidityGit/Hostel.sol\":4888:4912  msg.sender != address(0) */\n      0xffffffffffffffffffffffffffffffffffffffff\n      and\n        /* \"Desktop/SolidityGit/Hostel.sol\":4888:4898  msg.sender */\n      caller\n        /* \"Desktop/SolidityGit/Hostel.sol\":4888:4912  msg.sender != address(0) */\n      0xffffffffffffffffffffffffffffffffffffffff\n      and\n      sub\n        /* \"Desktop/SolidityGit/Hostel.sol\":4880:4913  require(msg.sender != address(0)) */\n      tag_185\n      jumpi\n      0x00\n      dup1\n      revert\n    tag_185:\n        /* \"Desktop/SolidityGit/Hostel.sol\":4924:4949  address payable _landlord */\n      0x00\n        /* \"Desktop/SolidityGit/Hostel.sol\":4952:4962  Room_by_No */\n      0x05\n        /* \"Desktop/SolidityGit/Hostel.sol\":4952:4970  Room_by_No[_index] */\n      0x00\n        /* \"Desktop/SolidityGit/Hostel.sol\":4963:4969  _index */\n      dup8\n        /* \"Desktop/SolidityGit/Hostel.sol\":4952:4970  Room_by_No[_index] */\n      dup2\n      mstore\n      0x20\n      add\n      swap1\n      dup2\n      mstore\n      0x20\n      add\n      0x00\n      keccak256\n        /* \"Desktop/SolidityGit/Hostel.sol\":4952:4979  Room_by_No[_index].landlord */\n      0x07\n      add\n      0x01\n      swap1\n      sload\n      swap1\n      0x0100\n      exp\n      swap1\n      div\n      0xffffffffffffffffffffffffffffffffffffffff\n      and\n        /* \"Desktop/SolidityGit/Hostel.sol\":4924:4979  address payable _landlord = Room_by_No[_index].landlord */\n      swap1\n      pop\n        /* \"Desktop/SolidityGit/Hostel.sol\":4990:5000  uint _rent */\n      0x00\n        /* \"Desktop/SolidityGit/Hostel.sol\":5003:5013  Room_by_No */\n      0x05\n        /* \"Desktop/SolidityGit/Hostel.sol\":5003:5021  Room_by_No[_index] */\n      0x00\n        /* \"Desktop/SolidityGit/Hostel.sol\":5014:5020  _index */\n      dup9\n        /* \"Desktop/SolidityGit/Hostel.sol\":5003:5021  Room_by_No[_index] */\n      dup2\n      mstore\n      0x20\n      add\n      swap1\n      dup2\n      mstore\n      0x20\n      add\n      0x00\n      keccak256\n        /* \"Desktop/SolidityGit/Hostel.sol\":5003:5036  Room_by_No[_index].rent_per_month */\n      0x04\n      add\n      sload\n        /* \"Desktop/SolidityGit/Hostel.sol\":4990:5036  uint _rent = Room_by_No[_index].rent_per_month */\n      swap1\n      pop\n        /* \"Desktop/SolidityGit/Hostel.sol\":5047:5056  _landlord */\n      dup2\n        /* \"Desktop/SolidityGit/Hostel.sol\":5047:5065  _landlord.transfer */\n      0xffffffffffffffffffffffffffffffffffffffff\n      and\n        /* \"Desktop/SolidityGit/Hostel.sol\":5047:5072  _landlord.transfer(_rent) */\n      0x08fc\n        /* \"Desktop/SolidityGit/Hostel.sol\":5066:5071  _rent */\n      dup3\n        /* \"Desktop/SolidityGit/Hostel.sol\":5047:5072  _landlord.transfer(_rent) */\n      swap1\n      dup2\n      iszero\n      mul\n      swap1\n      mload(0x40)\n      0x00\n      mload(0x40)\n      dup1\n      dup4\n      sub\n      dup2\n      dup6\n      dup9\n      dup9\n      call\n      swap4\n      pop\n      pop\n      pop\n      pop\n      iszero\n      dup1\n      iszero\n      tag_187\n      jumpi\n      returndatasize\n      0x00\n      dup1\n      returndatacopy\n      revert(0x00, returndatasize)\n    tag_187:\n      pop\n        /* \"Desktop/SolidityGit/Hostel.sol\":5126:5136  msg.sender */\n      caller\n        /* \"Desktop/SolidityGit/Hostel.sol\":5083:5093  Room_by_No */\n      0x05\n        /* \"Desktop/SolidityGit/Hostel.sol\":5083:5101  Room_by_No[_index] */\n      0x00\n        /* \"Desktop/SolidityGit/Hostel.sol\":5094:5100  _index */\n      dup10\n        /* \"Desktop/SolidityGit/Hostel.sol\":5083:5101  Room_by_No[_index] */\n      dup2\n      mstore\n      0x20\n      add\n      swap1\n      dup2\n      mstore\n      0x20\n      add\n      0x00\n      keccak256\n        /* \"Desktop/SolidityGit/Hostel.sol\":5083:5115  Room_by_No[_index].currentTenant */\n      0x08\n      add\n      0x00\n        /* \"Desktop/SolidityGit/Hostel.sol\":5083:5137  Room_by_No[_index].currentTenant = payable(msg.sender) */\n      0x0100\n      exp\n      dup2\n      sload\n      dup2\n      0xffffffffffffffffffffffffffffffffffffffff\n      mul\n      not\n      and\n      swap1\n      dup4\n      0xffffffffffffffffffffffffffffffffffffffff\n      and\n      mul\n      or\n      swap1\n      sstore\n      pop\n        /* \"Desktop/SolidityGit/Hostel.sol\":5176:5181  false */\n      0x00\n        /* \"Desktop/SolidityGit/Hostel.sol\":5148:5158  Room_by_No */\n      0x05\n        /* \"Desktop/SolidityGit/Hostel.sol\":5148:5166  Room_by_No[_index] */\n      0x00\n        /* \"Desktop/SolidityGit/Hostel.sol\":5159:5165  _index */\n      dup10\n        /* \"Desktop/SolidityGit/Hostel.sol\":5148:5166  Room_by_No[_index] */\n      dup2\n      mstore\n      0x20\n      add\n      swap1\n      dup2\n      mstore\n      0x20\n      add\n      0x00\n      keccak256\n        /* \"Desktop/SolidityGit/Hostel.sol\":5148:5173  Room_by_No[_index].vacant */\n      0x07\n      add\n      0x00\n        /* \"Desktop/SolidityGit/Hostel.sol\":5148:5181  Room_by_No[_index].vacant = false */\n      0x0100\n      exp\n      dup2\n      sload\n      dup2\n      0xff\n      mul\n      not\n      and\n      swap1\n      dup4\n      iszero\n      iszero\n      mul\n      or\n      swap1\n      sstore\n      pop\n        /* \"Desktop/SolidityGit/Hostel.sol\":5192:5202  no_of_rent */\n      0x04\n      0x00\n        /* \"Desktop/SolidityGit/Hostel.sol\":5192:5204  no_of_rent++ */\n      dup2\n      sload\n      dup1\n      swap3\n      swap2\n      swap1\n      tag_188\n      swap1\n      tag_95\n      jump\t// in\n    tag_188:\n      swap2\n      swap1\n      pop\n      sstore\n      pop\n        /* \"Desktop/SolidityGit/Hostel.sol\":5240:5423  Rent(no_of_rent,_index,Room_by_No[_index].agreementid,Room_by_No[_index].roomname,Room_by_No[_index].roomaddress,_rent,block.timestamp,payable(msg.sender),Room_by_No[_index].landlord) */\n      mload(0x40)\n      dup1\n      0x0120\n      add\n      0x40\n      mstore\n      dup1\n        /* \"Desktop/SolidityGit/Hostel.sol\":5245:5255  no_of_rent */\n      sload(0x04)\n        /* \"Desktop/SolidityGit/Hostel.sol\":5240:5423  Rent(no_of_rent,_index,Room_by_No[_index].agreementid,Room_by_No[_index].roomname,Room_by_No[_index].roomaddress,_rent,block.timestamp,payable(msg.sender),Room_by_No[_index].landlord) */\n      dup2\n      mstore\n      0x20\n      add\n        /* \"Desktop/SolidityGit/Hostel.sol\":5256:5262  _index */\n      dup9\n        /* \"Desktop/SolidityGit/Hostel.sol\":5240:5423  Rent(no_of_rent,_index,Room_by_No[_index].agreementid,Room_by_No[_index].roomname,Room_by_No[_index].roomaddress,_rent,block.timestamp,payable(msg.sender),Room_by_No[_index].landlord) */\n      dup2\n      mstore\n      0x20\n      add\n        /* \"Desktop/SolidityGit/Hostel.sol\":5263:5273  Room_by_No */\n      0x05\n        /* \"Desktop/SolidityGit/Hostel.sol\":5263:5281  Room_by_No[_index] */\n      0x00\n        /* \"Desktop/SolidityGit/Hostel.sol\":5274:5280  _index */\n      dup11\n        /* \"Desktop/SolidityGit/Hostel.sol\":5263:5281  Room_by_No[_index] */\n      dup2\n      mstore\n      0x20\n      add\n      swap1\n      dup2\n      mstore\n      0x20\n      add\n      0x00\n      keccak256\n        /* \"Desktop/SolidityGit/Hostel.sol\":5263:5293  Room_by_No[_index].agreementid */\n      0x01\n      add\n      sload\n        /* \"Desktop/SolidityGit/Hostel.sol\":5240:5423  Rent(no_of_rent,_index,Room_by_No[_index].agreementid,Room_by_No[_index].roomname,Room_by_No[_index].roomaddress,_rent,block.timestamp,payable(msg.sender),Room_by_No[_index].landlord) */\n      dup2\n      mstore\n      0x20\n      add\n        /* \"Desktop/SolidityGit/Hostel.sol\":5294:5304  Room_by_No */\n      0x05\n        /* \"Desktop/SolidityGit/Hostel.sol\":5294:5312  Room_by_No[_index] */\n      0x00\n        /* \"Desktop/SolidityGit/Hostel.sol\":5305:5311  _index */\n      dup11\n        /* \"Desktop/SolidityGit/Hostel.sol\":5294:5312  Room_by_No[_index] */\n      dup2\n      mstore\n      0x20\n      add\n      swap1\n      dup2\n      mstore\n      0x20\n      add\n      0x00\n      keccak256\n        /* \"Desktop/SolidityGit/Hostel.sol\":5294:5321  Room_by_No[_index].roomname */\n      0x02\n      add\n        /* \"Desktop/SolidityGit/Hostel.sol\":5240:5423  Rent(no_of_rent,_index,Room_by_No[_index].agreementid,Room_by_No[_index].roomname,Room_by_No[_index].roomaddress,_rent,block.timestamp,payable(msg.sender),Room_by_No[_index].landlord) */\n      dup1\n      sload\n      tag_189\n      swap1\n      tag_65\n      jump\t// in\n    tag_189:\n      dup1\n      0x1f\n      add\n      0x20\n      dup1\n      swap2\n      div\n      mul\n      0x20\n      add\n      mload(0x40)\n      swap1\n      dup2\n      add\n      0x40\n      mstore\n      dup1\n      swap3\n      swap2\n      swap1\n      dup2\n      dup2\n      mstore\n      0x20\n      add\n      dup3\n      dup1\n      sload\n      tag_190\n      swap1\n      tag_65\n      jump\t// in\n    tag_190:\n      dup1\n      iszero\n      tag_191\n      jumpi\n      dup1\n      0x1f\n      lt\n      tag_192\n      jumpi\n      0x0100\n      dup1\n      dup4\n      sload\n      div\n      mul\n      dup4\n      mstore\n      swap2\n      0x20\n      add\n      swap2\n      jump(tag_191)\n    tag_192:\n      dup3\n      add\n      swap2\n      swap1\n      0x00\n      mstore\n      keccak256(0x00, 0x20)\n      swap1\n    tag_193:\n      dup2\n      sload\n      dup2\n      mstore\n      swap1\n      0x01\n      add\n      swap1\n      0x20\n      add\n      dup1\n      dup4\n      gt\n      tag_193\n      jumpi\n      dup3\n      swap1\n      sub\n      0x1f\n      and\n      dup3\n      add\n      swap2\n    tag_191:\n      pop\n      pop\n      pop\n      pop\n      pop\n      dup2\n      mstore\n      0x20\n      add\n        /* \"Desktop/SolidityGit/Hostel.sol\":5322:5332  Room_by_No */\n      0x05\n        /* \"Desktop/SolidityGit/Hostel.sol\":5322:5340  Room_by_No[_index] */\n      0x00\n        /* \"Desktop/SolidityGit/Hostel.sol\":5333:5339  _index */\n      dup11\n        /* \"Desktop/SolidityGit/Hostel.sol\":5322:5340  Room_by_No[_index] */\n      dup2\n      mstore\n      0x20\n      add\n      swap1\n      dup2\n      mstore\n      0x20\n      add\n      0x00\n      keccak256\n        /* \"Desktop/SolidityGit/Hostel.sol\":5322:5352  Room_by_No[_index].roomaddress */\n      0x03\n      add\n        /* \"Desktop/SolidityGit/Hostel.sol\":5240:5423  Rent(no_of_rent,_index,Room_by_No[_index].agreementid,Room_by_No[_index].roomname,Room_by_No[_index].roomaddress,_rent,block.timestamp,payable(msg.sender),Room_by_No[_index].landlord) */\n      dup1\n      sload\n      tag_194\n      swap1\n      tag_65\n      jump\t// in\n    tag_194:\n      dup1\n      0x1f\n      add\n      0x20\n      dup1\n      swap2\n      div\n      mul\n      0x20\n      add\n      mload(0x40)\n      swap1\n      dup2\n      add\n      0x40\n      mstore\n      dup1\n      swap3\n      swap2\n      swap1\n      dup2\n      dup2\n      mstore\n      0x20\n      add\n      dup3\n      dup1\n      sload\n      tag_195\n      swap1\n      tag_65\n      jump\t// in\n    tag_195:\n      dup1\n      iszero\n      tag_196\n      jumpi\n      dup1\n      0x1f\n      lt\n      tag_197\n      jumpi\n      0x0100\n      dup1\n      dup4\n      sload\n      div\n      mul\n      dup4\n      mstore\n      swap2\n      0x20\n      add\n      swap2\n      jump(tag_196)\n    tag_197:\n      dup3\n      add\n      swap2\n      swap1\n      0x00\n      mstore\n      keccak256(0x00, 0x20)\n      swap1\n    tag_198:\n      dup2\n      sload\n      dup2\n      mstore\n      swap1\n      0x01\n      add\n      swap1\n      0x20\n      add\n      dup1\n      dup4\n      gt\n      tag_198\n      jumpi\n      dup3\n      swap1\n      sub\n      0x1f\n      and\n      dup3\n      add\n      swap2\n    tag_196:\n      pop\n      pop\n      pop\n      pop\n      pop\n      dup2\n      mstore\n      0x20\n      add\n        /* \"Desktop/SolidityGit/Hostel.sol\":5353:5358  _rent */\n      dup3\n        /* \"Desktop/SolidityGit/Hostel.sol\":5240:5423  Rent(no_of_rent,_index,Room_by_No[_index].agreementid,Room_by_No[_index].roomname,Room_by_No[_index].roomaddress,_rent,block.timestamp,payable(msg.sender),Room_by_No[_index].landlord) */\n      dup2\n      mstore\n      0x20\n      add\n        /* \"Desktop/SolidityGit/Hostel.sol\":5359:5374  block.timestamp */\n      timestamp\n        /* \"Desktop/SolidityGit/Hostel.sol\":5240:5423  Rent(no_of_rent,_index,Room_by_No[_index].agreementid,Room_by_No[_index].roomname,Room_by_No[_index].roomaddress,_rent,block.timestamp,payable(msg.sender),Room_by_No[_index].landlord) */\n      dup2\n      mstore\n      0x20\n      add\n        /* \"Desktop/SolidityGit/Hostel.sol\":5383:5393  msg.sender */\n      caller\n        /* \"Desktop/SolidityGit/Hostel.sol\":5240:5423  Rent(no_of_rent,_index,Room_by_No[_index].agreementid,Room_by_No[_index].roomname,Room_by_No[_index].roomaddress,_rent,block.timestamp,payable(msg.sender),Room_by_No[_index].landlord) */\n      0xffffffffffffffffffffffffffffffffffffffff\n      and\n      dup2\n      mstore\n      0x20\n      add\n        /* \"Desktop/SolidityGit/Hostel.sol\":5395:5405  Room_by_No */\n      0x05\n        /* \"Desktop/SolidityGit/Hostel.sol\":5395:5413  Room_by_No[_index] */\n      0x00\n        /* \"Desktop/SolidityGit/Hostel.sol\":5406:5412  _index */\n      dup11\n        /* \"Desktop/SolidityGit/Hostel.sol\":5395:5413  Room_by_No[_index] */\n      dup2\n      mstore\n      0x20\n      add\n      swap1\n      dup2\n      mstore\n      0x20\n      add\n      0x00\n      keccak256\n        /* \"Desktop/SolidityGit/Hostel.sol\":5395:5422  Room_by_No[_index].landlord */\n      0x07\n      add\n      0x01\n      swap1\n      sload\n      swap1\n      0x0100\n      exp\n      swap1\n      div\n      0xffffffffffffffffffffffffffffffffffffffff\n      and\n        /* \"Desktop/SolidityGit/Hostel.sol\":5240:5423  Rent(no_of_rent,_index,Room_by_No[_index].agreementid,Room_by_No[_index].roomname,Room_by_No[_index].roomaddress,_rent,block.timestamp,payable(msg.sender),Room_by_No[_index].landlord) */\n      0xffffffffffffffffffffffffffffffffffffffff\n      and\n      dup2\n      mstore\n      pop\n        /* \"Desktop/SolidityGit/Hostel.sol\":5215:5225  Rent_by_No */\n      0x07\n        /* \"Desktop/SolidityGit/Hostel.sol\":5215:5237  Rent_by_No[no_of_rent] */\n      0x00\n        /* \"Desktop/SolidityGit/Hostel.sol\":5226:5236  no_of_rent */\n      sload(0x04)\n        /* \"Desktop/SolidityGit/Hostel.sol\":5215:5237  Rent_by_No[no_of_rent] */\n      dup2\n      mstore\n      0x20\n      add\n      swap1\n      dup2\n      mstore\n      0x20\n      add\n      0x00\n      keccak256\n        /* \"Desktop/SolidityGit/Hostel.sol\":5215:5423  Rent_by_No[no_of_rent] = Rent(no_of_rent,_index,Room_by_No[_index].agreementid,Room_by_No[_index].roomname,Room_by_No[_index].roomaddress,_rent,block.timestamp,payable(msg.sender),Room_by_No[_index].landlord) */\n      0x00\n      dup3\n      add\n      mload\n      dup2\n      0x00\n      add\n      sstore\n      0x20\n      dup3\n      add\n      mload\n      dup2\n      0x01\n      add\n      sstore\n      0x40\n      dup3\n      add\n      mload\n      dup2\n      0x02\n      add\n      sstore\n      0x60\n      dup3\n      add\n      mload\n      dup2\n      0x03\n      add\n      swap1\n      dup2\n      tag_199\n      swap2\n      swap1\n      tag_107\n      jump\t// in\n    tag_199:\n      pop\n      0x80\n      dup3\n      add\n      mload\n      dup2\n      0x04\n      add\n      swap1\n      dup2\n      tag_200\n      swap2\n      swap1\n      tag_107\n      jump\t// in\n    tag_200:\n      pop\n      0xa0\n      dup3\n      add\n      mload\n      dup2\n      0x05\n      add\n      sstore\n      0xc0\n      dup3\n      add\n      mload\n      dup2\n      0x06\n      add\n      sstore\n      0xe0\n      dup3\n      add\n      mload\n      dup2\n      0x07\n      add\n      exp(0x0100, 0x00)\n      dup2\n      sload\n      dup2\n      0xffffffffffffffffffffffffffffffffffffffff\n      mul\n      not\n      and\n      swap1\n      dup4\n      0xffffffffffffffffffffffffffffffffffffffff\n      and\n      mul\n      or\n      swap1\n      sstore\n      pop\n      0x0100\n      dup3\n      add\n      mload\n      dup2\n      0x08\n      add\n      exp(0x0100, 0x00)\n      dup2\n      sload\n      dup2\n      0xffffffffffffffffffffffffffffffffffffffff\n      mul\n      not\n      and\n      swap1\n      dup4\n      0xffffffffffffffffffffffffffffffffffffffff\n      and\n      mul\n      or\n      swap1\n      sstore\n      pop\n      swap1\n      pop\n      pop\n        /* \"Desktop/SolidityGit/Hostel.sol\":4869:5431  {... */\n      pop\n      pop\n        /* \"Desktop/SolidityGit/Hostel.sol\":3205:3206  _ */\n      pop\n        /* \"Desktop/SolidityGit/Hostel.sol\":3065:3214  {... */\n      pop\n        /* \"Desktop/SolidityGit/Hostel.sol\":2373:2374  _ */\n      pop\n        /* \"Desktop/SolidityGit/Hostel.sol\":4767:5431  function payRent(uint _index) public payable sameTenant(_index) RentTimesUp(_index) enoughRent(_index){... */\n      pop\n      pop\n      jump\t// out\n        /* \"#utility.yul\":7:82   */\n    tag_201:\n        /* \"#utility.yul\":40:46   */\n      0x00\n        /* \"#utility.yul\":73:75   */\n      0x40\n        /* \"#utility.yul\":67:76   */\n      mload\n        /* \"#utility.yul\":57:76   */\n      swap1\n      pop\n        /* \"#utility.yul\":7:82   */\n      swap1\n      jump\t// out\n        /* \"#utility.yul\":88:205   */\n    tag_202:\n        /* \"#utility.yul\":197:198   */\n      0x00\n        /* \"#utility.yul\":194:195   */\n      dup1\n        /* \"#utility.yul\":187:199   */\n      revert\n        /* \"#utility.yul\":211:328   */\n    tag_203:\n        /* \"#utility.yul\":320:321   */\n      0x00\n        /* \"#utility.yul\":317:318   */\n      dup1\n        /* \"#utility.yul\":310:322   */\n      revert\n        /* \"#utility.yul\":334:411   */\n    tag_204:\n        /* \"#utility.yul\":371:378   */\n      0x00\n        /* \"#utility.yul\":400:405   */\n      dup2\n        /* \"#utility.yul\":389:405   */\n      swap1\n      pop\n        /* \"#utility.yul\":334:411   */\n      swap2\n      swap1\n      pop\n      jump\t// out\n        /* \"#utility.yul\":417:539   */\n    tag_205:\n        /* \"#utility.yul\":490:514   */\n      tag_266\n        /* \"#utility.yul\":508:513   */\n      dup2\n        /* \"#utility.yul\":490:514   */\n      tag_204\n      jump\t// in\n    tag_266:\n        /* \"#utility.yul\":483:488   */\n      dup2\n        /* \"#utility.yul\":480:515   */\n      eq\n        /* \"#utility.yul\":470:533   */\n      tag_267\n      jumpi\n        /* \"#utility.yul\":529:530   */\n      0x00\n        /* \"#utility.yul\":526:527   */\n      dup1\n        /* \"#utility.yul\":519:531   */\n      revert\n        /* \"#utility.yul\":470:533   */\n    tag_267:\n        /* \"#utility.yul\":417:539   */\n      pop\n      jump\t// out\n        /* \"#utility.yul\":545:684   */\n    tag_206:\n        /* \"#utility.yul\":591:596   */\n      0x00\n        /* \"#utility.yul\":629:635   */\n      dup2\n        /* \"#utility.yul\":616:636   */\n      calldataload\n        /* \"#utility.yul\":607:636   */\n      swap1\n      pop\n        /* \"#utility.yul\":645:678   */\n      tag_269\n        /* \"#utility.yul\":672:677   */\n      dup2\n        /* \"#utility.yul\":645:678   */\n      tag_205\n      jump\t// in\n    tag_269:\n        /* \"#utility.yul\":545:684   */\n      swap3\n      swap2\n      pop\n      pop\n      jump\t// out\n        /* \"#utility.yul\":690:1019   */\n    tag_17:\n        /* \"#utility.yul\":749:755   */\n      0x00\n        /* \"#utility.yul\":798:800   */\n      0x20\n        /* \"#utility.yul\":786:795   */\n      dup3\n        /* \"#utility.yul\":777:784   */\n      dup5\n        /* \"#utility.yul\":773:796   */\n      sub\n        /* \"#utility.yul\":769:801   */\n      slt\n        /* \"#utility.yul\":766:885   */\n      iszero\n      tag_271\n      jumpi\n        /* \"#utility.yul\":804:883   */\n      tag_272\n      tag_202\n      jump\t// in\n    tag_272:\n        /* \"#utility.yul\":766:885   */\n    tag_271:\n        /* \"#utility.yul\":924:925   */\n      0x00\n        /* \"#utility.yul\":949:1002   */\n      tag_273\n        /* \"#utility.yul\":994:1001   */\n      dup5\n        /* \"#utility.yul\":985:991   */\n      dup3\n        /* \"#utility.yul\":974:983   */\n      dup6\n        /* \"#utility.yul\":970:992   */\n      add\n        /* \"#utility.yul\":949:1002   */\n      tag_206\n      jump\t// in\n    tag_273:\n        /* \"#utility.yul\":939:1002   */\n      swap2\n      pop\n        /* \"#utility.yul\":895:1012   */\n      pop\n        /* \"#utility.yul\":690:1019   */\n      swap3\n      swap2\n      pop\n      pop\n      jump\t// out\n        /* \"#utility.yul\":1025:1143   */\n    tag_207:\n        /* \"#utility.yul\":1112:1136   */\n      tag_275\n        /* \"#utility.yul\":1130:1135   */\n      dup2\n        /* \"#utility.yul\":1112:1136   */\n      tag_204\n      jump\t// in\n    tag_275:\n        /* \"#utility.yul\":1107:1110   */\n      dup3\n        /* \"#utility.yul\":1100:1137   */\n      mstore\n        /* \"#utility.yul\":1025:1143   */\n      pop\n      pop\n      jump\t// out\n        /* \"#utility.yul\":1149:1248   */\n    tag_208:\n        /* \"#utility.yul\":1201:1207   */\n      0x00\n        /* \"#utility.yul\":1235:1240   */\n      dup2\n        /* \"#utility.yul\":1229:1241   */\n      mload\n        /* \"#utility.yul\":1219:1241   */\n      swap1\n      pop\n        /* \"#utility.yul\":1149:1248   */\n      swap2\n      swap1\n      pop\n      jump\t// out\n        /* \"#utility.yul\":1254:1423   */\n    tag_209:\n        /* \"#utility.yul\":1338:1349   */\n      0x00\n        /* \"#utility.yul\":1372:1378   */\n      dup3\n        /* \"#utility.yul\":1367:1370   */\n      dup3\n        /* \"#utility.yul\":1360:1379   */\n      mstore\n        /* \"#utility.yul\":1412:1416   */\n      0x20\n        /* \"#utility.yul\":1407:1410   */\n      dup3\n        /* \"#utility.yul\":1403:1417   */\n      add\n        /* \"#utility.yul\":1388:1417   */\n      swap1\n      pop\n        /* \"#utility.yul\":1254:1423   */\n      swap3\n      swap2\n      pop\n      pop\n      jump\t// out\n        /* \"#utility.yul\":1429:1675   */\n    tag_210:\n        /* \"#utility.yul\":1510:1511   */\n      0x00\n        /* \"#utility.yul\":1520:1633   */\n    tag_279:\n        /* \"#utility.yul\":1534:1540   */\n      dup4\n        /* \"#utility.yul\":1531:1532   */\n      dup2\n        /* \"#utility.yul\":1528:1541   */\n      lt\n        /* \"#utility.yul\":1520:1633   */\n      iszero\n      tag_281\n      jumpi\n        /* \"#utility.yul\":1619:1620   */\n      dup1\n        /* \"#utility.yul\":1614:1617   */\n      dup3\n        /* \"#utility.yul\":1610:1621   */\n      add\n        /* \"#utility.yul\":1604:1622   */\n      mload\n        /* \"#utility.yul\":1600:1601   */\n      dup2\n        /* \"#utility.yul\":1595:1598   */\n      dup5\n        /* \"#utility.yul\":1591:1602   */\n      add\n        /* \"#utility.yul\":1584:1623   */\n      mstore\n        /* \"#utility.yul\":1556:1558   */\n      0x20\n        /* \"#utility.yul\":1553:1554   */\n      dup2\n        /* \"#utility.yul\":1549:1559   */\n      add\n        /* \"#utility.yul\":1544:1559   */\n      swap1\n      pop\n        /* \"#utility.yul\":1520:1633   */\n      jump(tag_279)\n    tag_281:\n        /* \"#utility.yul\":1667:1668   */\n      0x00\n        /* \"#utility.yul\":1658:1664   */\n      dup5\n        /* \"#utility.yul\":1653:1656   */\n      dup5\n        /* \"#utility.yul\":1649:1665   */\n      add\n        /* \"#utility.yul\":1642:1669   */\n      mstore\n        /* \"#utility.yul\":1491:1675   */\n      pop\n        /* \"#utility.yul\":1429:1675   */\n      pop\n      pop\n      pop\n      jump\t// out\n        /* \"#utility.yul\":1681:1783   */\n    tag_211:\n        /* \"#utility.yul\":1722:1728   */\n      0x00\n        /* \"#utility.yul\":1773:1775   */\n      0x1f\n        /* \"#utility.yul\":1769:1776   */\n      not\n        /* \"#utility.yul\":1764:1766   */\n      0x1f\n        /* \"#utility.yul\":1757:1762   */\n      dup4\n        /* \"#utility.yul\":1753:1767   */\n      add\n        /* \"#utility.yul\":1749:1777   */\n      and\n        /* \"#utility.yul\":1739:1777   */\n      swap1\n      pop\n        /* \"#utility.yul\":1681:1783   */\n      swap2\n      swap1\n      pop\n      jump\t// out\n        /* \"#utility.yul\":1789:2166   */\n    tag_212:\n        /* \"#utility.yul\":1877:1880   */\n      0x00\n        /* \"#utility.yul\":1905:1944   */\n      tag_284\n        /* \"#utility.yul\":1938:1943   */\n      dup3\n        /* \"#utility.yul\":1905:1944   */\n      tag_208\n      jump\t// in\n    tag_284:\n        /* \"#utility.yul\":1960:2031   */\n      tag_285\n        /* \"#utility.yul\":2024:2030   */\n      dup2\n        /* \"#utility.yul\":2019:2022   */\n      dup6\n        /* \"#utility.yul\":1960:2031   */\n      tag_209\n      jump\t// in\n    tag_285:\n        /* \"#utility.yul\":1953:2031   */\n      swap4\n      pop\n        /* \"#utility.yul\":2040:2105   */\n      tag_286\n        /* \"#utility.yul\":2098:2104   */\n      dup2\n        /* \"#utility.yul\":2093:2096   */\n      dup6\n        /* \"#utility.yul\":2086:2090   */\n      0x20\n        /* \"#utility.yul\":2079:2084   */\n      dup7\n        /* \"#utility.yul\":2075:2091   */\n      add\n        /* \"#utility.yul\":2040:2105   */\n      tag_210\n      jump\t// in\n    tag_286:\n        /* \"#utility.yul\":2130:2159   */\n      tag_287\n        /* \"#utility.yul\":2152:2158   */\n      dup2\n        /* \"#utility.yul\":2130:2159   */\n      tag_211\n      jump\t// in\n    tag_287:\n        /* \"#utility.yul\":2125:2128   */\n      dup5\n        /* \"#utility.yul\":2121:2160   */\n      add\n        /* \"#utility.yul\":2114:2160   */\n      swap2\n      pop\n        /* \"#utility.yul\":1881:2166   */\n      pop\n        /* \"#utility.yul\":1789:2166   */\n      swap3\n      swap2\n      pop\n      pop\n      jump\t// out\n        /* \"#utility.yul\":2172:2298   */\n    tag_213:\n        /* \"#utility.yul\":2209:2216   */\n      0x00\n        /* \"#utility.yul\":2249:2291   */\n      0xffffffffffffffffffffffffffffffffffffffff\n        /* \"#utility.yul\":2242:2247   */\n      dup3\n        /* \"#utility.yul\":2238:2292   */\n      and\n        /* \"#utility.yul\":2227:2292   */\n      swap1\n      pop\n        /* \"#utility.yul\":2172:2298   */\n      swap2\n      swap1\n      pop\n      jump\t// out\n        /* \"#utility.yul\":2304:2408   */\n    tag_214:\n        /* \"#utility.yul\":2349:2356   */\n      0x00\n        /* \"#utility.yul\":2378:2402   */\n      tag_290\n        /* \"#utility.yul\":2396:2401   */\n      dup3\n        /* \"#utility.yul\":2378:2402   */\n      tag_213\n      jump\t// in\n    tag_290:\n        /* \"#utility.yul\":2367:2402   */\n      swap1\n      pop\n        /* \"#utility.yul\":2304:2408   */\n      swap2\n      swap1\n      pop\n      jump\t// out\n        /* \"#utility.yul\":2414:2556   */\n    tag_215:\n        /* \"#utility.yul\":2517:2549   */\n      tag_292\n        /* \"#utility.yul\":2543:2548   */\n      dup2\n        /* \"#utility.yul\":2517:2549   */\n      tag_214\n      jump\t// in\n    tag_292:\n        /* \"#utility.yul\":2512:2515   */\n      dup3\n        /* \"#utility.yul\":2505:2550   */\n      mstore\n        /* \"#utility.yul\":2414:2556   */\n      pop\n      pop\n      jump\t// out\n        /* \"#utility.yul\":2562:4027   */\n    tag_20:\n        /* \"#utility.yul\":2979:2983   */\n      0x00\n        /* \"#utility.yul\":3017:3020   */\n      0x0140\n        /* \"#utility.yul\":3006:3015   */\n      dup3\n        /* \"#utility.yul\":3002:3021   */\n      add\n        /* \"#utility.yul\":2994:3021   */\n      swap1\n      pop\n        /* \"#utility.yul\":3031:3102   */\n      tag_294\n        /* \"#utility.yul\":3099:3100   */\n      0x00\n        /* \"#utility.yul\":3088:3097   */\n      dup4\n        /* \"#utility.yul\":3084:3101   */\n      add\n        /* \"#utility.yul\":3075:3081   */\n      dup14\n        /* \"#utility.yul\":3031:3102   */\n      tag_207\n      jump\t// in\n    tag_294:\n        /* \"#utility.yul\":3112:3184   */\n      tag_295\n        /* \"#utility.yul\":3180:3182   */\n      0x20\n        /* \"#utility.yul\":3169:3178   */\n      dup4\n        /* \"#utility.yul\":3165:3183   */\n      add\n        /* \"#utility.yul\":3156:3162   */\n      dup13\n        /* \"#utility.yul\":3112:3184   */\n      tag_207\n      jump\t// in\n    tag_295:\n        /* \"#utility.yul\":3231:3240   */\n      dup2\n        /* \"#utility.yul\":3225:3229   */\n      dup2\n        /* \"#utility.yul\":3221:3241   */\n      sub\n        /* \"#utility.yul\":3216:3218   */\n      0x40\n        /* \"#utility.yul\":3205:3214   */\n      dup4\n        /* \"#utility.yul\":3201:3219   */\n      add\n        /* \"#utility.yul\":3194:3242   */\n      mstore\n        /* \"#utility.yul\":3259:3337   */\n      tag_296\n        /* \"#utility.yul\":3332:3336   */\n      dup2\n        /* \"#utility.yul\":3323:3329   */\n      dup12\n        /* \"#utility.yul\":3259:3337   */\n      tag_212\n      jump\t// in\n    tag_296:\n        /* \"#utility.yul\":3251:3337   */\n      swap1\n      pop\n        /* \"#utility.yul\":3384:3393   */\n      dup2\n        /* \"#utility.yul\":3378:3382   */\n      dup2\n        /* \"#utility.yul\":3374:3394   */\n      sub\n        /* \"#utility.yul\":3369:3371   */\n      0x60\n        /* \"#utility.yul\":3358:3367   */\n      dup4\n        /* \"#utility.yul\":3354:3372   */\n      add\n        /* \"#utility.yul\":3347:3395   */\n      mstore\n        /* \"#utility.yul\":3412:3490   */\n      tag_297\n        /* \"#utility.yul\":3485:3489   */\n      dup2\n        /* \"#utility.yul\":3476:3482   */\n      dup11\n        /* \"#utility.yul\":3412:3490   */\n      tag_212\n      jump\t// in\n    tag_297:\n        /* \"#utility.yul\":3404:3490   */\n      swap1\n      pop\n        /* \"#utility.yul\":3500:3573   */\n      tag_298\n        /* \"#utility.yul\":3568:3571   */\n      0x80\n        /* \"#utility.yul\":3557:3566   */\n      dup4\n        /* \"#utility.yul\":3553:3572   */\n      add\n        /* \"#utility.yul\":3544:3550   */\n      dup10\n        /* \"#utility.yul\":3500:3573   */\n      tag_207\n      jump\t// in\n    tag_298:\n        /* \"#utility.yul\":3583:3656   */\n      tag_299\n        /* \"#utility.yul\":3651:3654   */\n      0xa0\n        /* \"#utility.yul\":3640:3649   */\n      dup4\n        /* \"#utility.yul\":3636:3655   */\n      add\n        /* \"#utility.yul\":3627:3633   */\n      dup9\n        /* \"#utility.yul\":3583:3656   */\n      tag_207\n      jump\t// in\n    tag_299:\n        /* \"#utility.yul\":3666:3739   */\n      tag_300\n        /* \"#utility.yul\":3734:3737   */\n      0xc0\n        /* \"#utility.yul\":3723:3732   */\n      dup4\n        /* \"#utility.yul\":3719:3738   */\n      add\n        /* \"#utility.yul\":3710:3716   */\n      dup8\n        /* \"#utility.yul\":3666:3739   */\n      tag_207\n      jump\t// in\n    tag_300:\n        /* \"#utility.yul\":3749:3822   */\n      tag_301\n        /* \"#utility.yul\":3817:3820   */\n      0xe0\n        /* \"#utility.yul\":3806:3815   */\n      dup4\n        /* \"#utility.yul\":3802:3821   */\n      add\n        /* \"#utility.yul\":3793:3799   */\n      dup7\n        /* \"#utility.yul\":3749:3822   */\n      tag_207\n      jump\t// in\n    tag_301:\n        /* \"#utility.yul\":3832:3921   */\n      tag_302\n        /* \"#utility.yul\":3916:3919   */\n      0x0100\n        /* \"#utility.yul\":3905:3914   */\n      dup4\n        /* \"#utility.yul\":3901:3920   */\n      add\n        /* \"#utility.yul\":3892:3898   */\n      dup6\n        /* \"#utility.yul\":3832:3921   */\n      tag_215\n      jump\t// in\n    tag_302:\n        /* \"#utility.yul\":3931:4020   */\n      tag_303\n        /* \"#utility.yul\":4015:4018   */\n      0x0120\n        /* \"#utility.yul\":4004:4013   */\n      dup4\n        /* \"#utility.yul\":4000:4019   */\n      add\n        /* \"#utility.yul\":3991:3997   */\n      dup5\n        /* \"#utility.yul\":3931:4020   */\n      tag_215\n      jump\t// in\n    tag_303:\n        /* \"#utility.yul\":2562:4027   */\n      swap12\n      swap11\n      pop\n      pop\n      pop\n      pop\n      pop\n      pop\n      pop\n      pop\n      pop\n      pop\n      pop\n      jump\t// out\n        /* \"#utility.yul\":4033:4255   */\n    tag_28:\n        /* \"#utility.yul\":4126:4130   */\n      0x00\n        /* \"#utility.yul\":4164:4166   */\n      0x20\n        /* \"#utility.yul\":4153:4162   */\n      dup3\n        /* \"#utility.yul\":4149:4167   */\n      add\n        /* \"#utility.yul\":4141:4167   */\n      swap1\n      pop\n        /* \"#utility.yul\":4177:4248   */\n      tag_305\n        /* \"#utility.yul\":4245:4246   */\n      0x00\n        /* \"#utility.yul\":4234:4243   */\n      dup4\n        /* \"#utility.yul\":4230:4247   */\n      add\n        /* \"#utility.yul\":4221:4227   */\n      dup5\n        /* \"#utility.yul\":4177:4248   */\n      tag_207\n      jump\t// in\n    tag_305:\n        /* \"#utility.yul\":4033:4255   */\n      swap3\n      swap2\n      pop\n      pop\n      jump\t// out\n        /* \"#utility.yul\":4261:4351   */\n    tag_216:\n        /* \"#utility.yul\":4295:4302   */\n      0x00\n        /* \"#utility.yul\":4338:4343   */\n      dup2\n        /* \"#utility.yul\":4331:4344   */\n      iszero\n        /* \"#utility.yul\":4324:4345   */\n      iszero\n        /* \"#utility.yul\":4313:4345   */\n      swap1\n      pop\n        /* \"#utility.yul\":4261:4351   */\n      swap2\n      swap1\n      pop\n      jump\t// out\n        /* \"#utility.yul\":4357:4466   */\n    tag_217:\n        /* \"#utility.yul\":4438:4459   */\n      tag_308\n        /* \"#utility.yul\":4453:4458   */\n      dup2\n        /* \"#utility.yul\":4438:4459   */\n      tag_216\n      jump\t// in\n    tag_308:\n        /* \"#utility.yul\":4433:4436   */\n      dup3\n        /* \"#utility.yul\":4426:4460   */\n      mstore\n        /* \"#utility.yul\":4357:4466   */\n      pop\n      pop\n      jump\t// out\n        /* \"#utility.yul\":4472:5925   */\n    tag_37:\n        /* \"#utility.yul\":4883:4887   */\n      0x00\n        /* \"#utility.yul\":4921:4924   */\n      0x0140\n        /* \"#utility.yul\":4910:4919   */\n      dup3\n        /* \"#utility.yul\":4906:4925   */\n      add\n        /* \"#utility.yul\":4898:4925   */\n      swap1\n      pop\n        /* \"#utility.yul\":4935:5006   */\n      tag_310\n        /* \"#utility.yul\":5003:5004   */\n      0x00\n        /* \"#utility.yul\":4992:5001   */\n      dup4\n        /* \"#utility.yul\":4988:5005   */\n      add\n        /* \"#utility.yul\":4979:4985   */\n      dup14\n        /* \"#utility.yul\":4935:5006   */\n      tag_207\n      jump\t// in\n    tag_310:\n        /* \"#utility.yul\":5016:5088   */\n      tag_311\n        /* \"#utility.yul\":5084:5086   */\n      0x20\n        /* \"#utility.yul\":5073:5082   */\n      dup4\n        /* \"#utility.yul\":5069:5087   */\n      add\n        /* \"#utility.yul\":5060:5066   */\n      dup13\n        /* \"#utility.yul\":5016:5088   */\n      tag_207\n      jump\t// in\n    tag_311:\n        /* \"#utility.yul\":5135:5144   */\n      dup2\n        /* \"#utility.yul\":5129:5133   */\n      dup2\n        /* \"#utility.yul\":5125:5145   */\n      sub\n        /* \"#utility.yul\":5120:5122   */\n      0x40\n        /* \"#utility.yul\":5109:5118   */\n      dup4\n        /* \"#utility.yul\":5105:5123   */\n      add\n        /* \"#utility.yul\":5098:5146   */\n      mstore\n        /* \"#utility.yul\":5163:5241   */\n      tag_312\n        /* \"#utility.yul\":5236:5240   */\n      dup2\n        /* \"#utility.yul\":5227:5233   */\n      dup12\n        /* \"#utility.yul\":5163:5241   */\n      tag_212\n      jump\t// in\n    tag_312:\n        /* \"#utility.yul\":5155:5241   */\n      swap1\n      pop\n        /* \"#utility.yul\":5288:5297   */\n      dup2\n        /* \"#utility.yul\":5282:5286   */\n      dup2\n        /* \"#utility.yul\":5278:5298   */\n      sub\n        /* \"#utility.yul\":5273:5275   */\n      0x60\n        /* \"#utility.yul\":5262:5271   */\n      dup4\n        /* \"#utility.yul\":5258:5276   */\n      add\n        /* \"#utility.yul\":5251:5299   */\n      mstore\n        /* \"#utility.yul\":5316:5394   */\n      tag_313\n        /* \"#utility.yul\":5389:5393   */\n      dup2\n        /* \"#utility.yul\":5380:5386   */\n      dup11\n        /* \"#utility.yul\":5316:5394   */\n      tag_212\n      jump\t// in\n    tag_313:\n        /* \"#utility.yul\":5308:5394   */\n      swap1\n      pop\n        /* \"#utility.yul\":5404:5477   */\n      tag_314\n        /* \"#utility.yul\":5472:5475   */\n      0x80\n        /* \"#utility.yul\":5461:5470   */\n      dup4\n        /* \"#utility.yul\":5457:5476   */\n      add\n        /* \"#utility.yul\":5448:5454   */\n      dup10\n        /* \"#utility.yul\":5404:5477   */\n      tag_207\n      jump\t// in\n    tag_314:\n        /* \"#utility.yul\":5487:5560   */\n      tag_315\n        /* \"#utility.yul\":5555:5558   */\n      0xa0\n        /* \"#utility.yul\":5544:5553   */\n      dup4\n        /* \"#utility.yul\":5540:5559   */\n      add\n        /* \"#utility.yul\":5531:5537   */\n      dup9\n        /* \"#utility.yul\":5487:5560   */\n      tag_207\n      jump\t// in\n    tag_315:\n        /* \"#utility.yul\":5570:5643   */\n      tag_316\n        /* \"#utility.yul\":5638:5641   */\n      0xc0\n        /* \"#utility.yul\":5627:5636   */\n      dup4\n        /* \"#utility.yul\":5623:5642   */\n      add\n        /* \"#utility.yul\":5614:5620   */\n      dup8\n        /* \"#utility.yul\":5570:5643   */\n      tag_207\n      jump\t// in\n    tag_316:\n        /* \"#utility.yul\":5653:5720   */\n      tag_317\n        /* \"#utility.yul\":5715:5718   */\n      0xe0\n        /* \"#utility.yul\":5704:5713   */\n      dup4\n        /* \"#utility.yul\":5700:5719   */\n      add\n        /* \"#utility.yul\":5691:5697   */\n      dup7\n        /* \"#utility.yul\":5653:5720   */\n      tag_217\n      jump\t// in\n    tag_317:\n        /* \"#utility.yul\":5730:5819   */\n      tag_318\n        /* \"#utility.yul\":5814:5817   */\n      0x0100\n        /* \"#utility.yul\":5803:5812   */\n      dup4\n        /* \"#utility.yul\":5799:5818   */\n      add\n        /* \"#utility.yul\":5790:5796   */\n      dup6\n        /* \"#utility.yul\":5730:5819   */\n      tag_215\n      jump\t// in\n    tag_318:\n        /* \"#utility.yul\":5829:5918   */\n      tag_319\n        /* \"#utility.yul\":5913:5916   */\n      0x0120\n        /* \"#utility.yul\":5902:5911   */\n      dup4\n        /* \"#utility.yul\":5898:5917   */\n      add\n        /* \"#utility.yul\":5889:5895   */\n      dup5\n        /* \"#utility.yul\":5829:5918   */\n      tag_215\n      jump\t// in\n    tag_319:\n        /* \"#utility.yul\":4472:5925   */\n      swap12\n      swap11\n      pop\n      pop\n      pop\n      pop\n      pop\n      pop\n      pop\n      pop\n      pop\n      pop\n      pop\n      jump\t// out\n        /* \"#utility.yul\":5931:6048   */\n    tag_218:\n        /* \"#utility.yul\":6040:6041   */\n      0x00\n        /* \"#utility.yul\":6037:6038   */\n      dup1\n        /* \"#utility.yul\":6030:6042   */\n      revert\n        /* \"#utility.yul\":6054:6171   */\n    tag_219:\n        /* \"#utility.yul\":6163:6164   */\n      0x00\n        /* \"#utility.yul\":6160:6161   */\n      dup1\n        /* \"#utility.yul\":6153:6165   */\n      revert\n        /* \"#utility.yul\":6177:6357   */\n    tag_220:\n        /* \"#utility.yul\":6225:6302   */\n      0x4e487b7100000000000000000000000000000000000000000000000000000000\n        /* \"#utility.yul\":6222:6223   */\n      0x00\n        /* \"#utility.yul\":6215:6303   */\n      mstore\n        /* \"#utility.yul\":6322:6326   */\n      0x41\n        /* \"#utility.yul\":6319:6320   */\n      0x04\n        /* \"#utility.yul\":6312:6327   */\n      mstore\n        /* \"#utility.yul\":6346:6350   */\n      0x24\n        /* \"#utility.yul\":6343:6344   */\n      0x00\n        /* \"#utility.yul\":6336:6351   */\n      revert\n        /* \"#utility.yul\":6363:6644   */\n    tag_221:\n        /* \"#utility.yul\":6446:6473   */\n      tag_324\n        /* \"#utility.yul\":6468:6472   */\n      dup3\n        /* \"#utility.yul\":6446:6473   */\n      tag_211\n      jump\t// in\n    tag_324:\n        /* \"#utility.yul\":6438:6444   */\n      dup2\n        /* \"#utility.yul\":6434:6474   */\n      add\n        /* \"#utility.yul\":6576:6582   */\n      dup2\n        /* \"#utility.yul\":6564:6574   */\n      dup2\n        /* \"#utility.yul\":6561:6583   */\n      lt\n        /* \"#utility.yul\":6540:6558   */\n      0xffffffffffffffff\n        /* \"#utility.yul\":6528:6538   */\n      dup3\n        /* \"#utility.yul\":6525:6559   */\n      gt\n        /* \"#utility.yul\":6522:6584   */\n      or\n        /* \"#utility.yul\":6519:6607   */\n      iszero\n      tag_325\n      jumpi\n        /* \"#utility.yul\":6587:6605   */\n      tag_326\n      tag_220\n      jump\t// in\n    tag_326:\n        /* \"#utility.yul\":6519:6607   */\n    tag_325:\n        /* \"#utility.yul\":6627:6637   */\n      dup1\n        /* \"#utility.yul\":6623:6625   */\n      0x40\n        /* \"#utility.yul\":6616:6638   */\n      mstore\n        /* \"#utility.yul\":6406:6644   */\n      pop\n        /* \"#utility.yul\":6363:6644   */\n      pop\n      pop\n      jump\t// out\n        /* \"#utility.yul\":6650:6779   */\n    tag_222:\n        /* \"#utility.yul\":6684:6690   */\n      0x00\n        /* \"#utility.yul\":6711:6731   */\n      tag_328\n      tag_201\n      jump\t// in\n    tag_328:\n        /* \"#utility.yul\":6701:6731   */\n      swap1\n      pop\n        /* \"#utility.yul\":6740:6773   */\n      tag_329\n        /* \"#utility.yul\":6768:6772   */\n      dup3\n        /* \"#utility.yul\":6760:6766   */\n      dup3\n        /* \"#utility.yul\":6740:6773   */\n      tag_221\n      jump\t// in\n    tag_329:\n        /* \"#utility.yul\":6650:6779   */\n      swap2\n      swap1\n      pop\n      jump\t// out\n        /* \"#utility.yul\":6785:7093   */\n    tag_223:\n        /* \"#utility.yul\":6847:6851   */\n      0x00\n        /* \"#utility.yul\":6937:6955   */\n      0xffffffffffffffff\n        /* \"#utility.yul\":6929:6935   */\n      dup3\n        /* \"#utility.yul\":6926:6956   */\n      gt\n        /* \"#utility.yul\":6923:6979   */\n      iszero\n      tag_331\n      jumpi\n        /* \"#utility.yul\":6959:6977   */\n      tag_332\n      tag_220\n      jump\t// in\n    tag_332:\n        /* \"#utility.yul\":6923:6979   */\n    tag_331:\n        /* \"#utility.yul\":6997:7026   */\n      tag_333\n        /* \"#utility.yul\":7019:7025   */\n      dup3\n        /* \"#utility.yul\":6997:7026   */\n      tag_211\n      jump\t// in\n    tag_333:\n        /* \"#utility.yul\":6989:7026   */\n      swap1\n      pop\n        /* \"#utility.yul\":7081:7085   */\n      0x20\n        /* \"#utility.yul\":7075:7079   */\n      dup2\n        /* \"#utility.yul\":7071:7086   */\n      add\n        /* \"#utility.yul\":7063:7086   */\n      swap1\n      pop\n        /* \"#utility.yul\":6785:7093   */\n      swap2\n      swap1\n      pop\n      jump\t// out\n        /* \"#utility.yul\":7099:7245   */\n    tag_224:\n        /* \"#utility.yul\":7196:7202   */\n      dup3\n        /* \"#utility.yul\":7191:7194   */\n      dup2\n        /* \"#utility.yul\":7186:7189   */\n      dup4\n        /* \"#utility.yul\":7173:7203   */\n      calldatacopy\n        /* \"#utility.yul\":7237:7238   */\n      0x00\n        /* \"#utility.yul\":7228:7234   */\n      dup4\n        /* \"#utility.yul\":7223:7226   */\n      dup4\n        /* \"#utility.yul\":7219:7235   */\n      add\n        /* \"#utility.yul\":7212:7239   */\n      mstore\n        /* \"#utility.yul\":7099:7245   */\n      pop\n      pop\n      pop\n      jump\t// out\n        /* \"#utility.yul\":7251:7676   */\n    tag_225:\n        /* \"#utility.yul\":7329:7334   */\n      0x00\n        /* \"#utility.yul\":7354:7420   */\n      tag_336\n        /* \"#utility.yul\":7370:7419   */\n      tag_337\n        /* \"#utility.yul\":7412:7418   */\n      dup5\n        /* \"#utility.yul\":7370:7419   */\n      tag_223\n      jump\t// in\n    tag_337:\n        /* \"#utility.yul\":7354:7420   */\n      tag_222\n      jump\t// in\n    tag_336:\n        /* \"#utility.yul\":7345:7420   */\n      swap1\n      pop\n        /* \"#utility.yul\":7443:7449   */\n      dup3\n        /* \"#utility.yul\":7436:7441   */\n      dup2\n        /* \"#utility.yul\":7429:7450   */\n      mstore\n        /* \"#utility.yul\":7481:7485   */\n      0x20\n        /* \"#utility.yul\":7474:7479   */\n      dup2\n        /* \"#utility.yul\":7470:7486   */\n      add\n        /* \"#utility.yul\":7519:7522   */\n      dup5\n        /* \"#utility.yul\":7510:7516   */\n      dup5\n        /* \"#utility.yul\":7505:7508   */\n      dup5\n        /* \"#utility.yul\":7501:7517   */\n      add\n        /* \"#utility.yul\":7498:7523   */\n      gt\n        /* \"#utility.yul\":7495:7607   */\n      iszero\n      tag_338\n      jumpi\n        /* \"#utility.yul\":7526:7605   */\n      tag_339\n      tag_219\n      jump\t// in\n    tag_339:\n        /* \"#utility.yul\":7495:7607   */\n    tag_338:\n        /* \"#utility.yul\":7616:7670   */\n      tag_340\n        /* \"#utility.yul\":7663:7669   */\n      dup5\n        /* \"#utility.yul\":7658:7661   */\n      dup3\n        /* \"#utility.yul\":7653:7656   */\n      dup6\n        /* \"#utility.yul\":7616:7670   */\n      tag_224\n      jump\t// in\n    tag_340:\n        /* \"#utility.yul\":7335:7676   */\n      pop\n        /* \"#utility.yul\":7251:7676   */\n      swap4\n      swap3\n      pop\n      pop\n      pop\n      jump\t// out\n        /* \"#utility.yul\":7696:8036   */\n    tag_226:\n        /* \"#utility.yul\":7752:7757   */\n      0x00\n        /* \"#utility.yul\":7801:7804   */\n      dup3\n        /* \"#utility.yul\":7794:7798   */\n      0x1f\n        /* \"#utility.yul\":7786:7792   */\n      dup4\n        /* \"#utility.yul\":7782:7799   */\n      add\n        /* \"#utility.yul\":7778:7805   */\n      slt\n        /* \"#utility.yul\":7768:7890   */\n      tag_342\n      jumpi\n        /* \"#utility.yul\":7809:7888   */\n      tag_343\n      tag_218\n      jump\t// in\n    tag_343:\n        /* \"#utility.yul\":7768:7890   */\n    tag_342:\n        /* \"#utility.yul\":7926:7932   */\n      dup2\n        /* \"#utility.yul\":7913:7933   */\n      calldataload\n        /* \"#utility.yul\":7951:8030   */\n      tag_344\n        /* \"#utility.yul\":8026:8029   */\n      dup5\n        /* \"#utility.yul\":8018:8024   */\n      dup3\n        /* \"#utility.yul\":8011:8015   */\n      0x20\n        /* \"#utility.yul\":8003:8009   */\n      dup7\n        /* \"#utility.yul\":7999:8016   */\n      add\n        /* \"#utility.yul\":7951:8030   */\n      tag_225\n      jump\t// in\n    tag_344:\n        /* \"#utility.yul\":7942:8030   */\n      swap2\n      pop\n        /* \"#utility.yul\":7758:8036   */\n      pop\n        /* \"#utility.yul\":7696:8036   */\n      swap3\n      swap2\n      pop\n      pop\n      jump\t// out\n        /* \"#utility.yul\":8042:9167   */\n    tag_49:\n        /* \"#utility.yul\":8148:8154   */\n      0x00\n        /* \"#utility.yul\":8156:8162   */\n      dup1\n        /* \"#utility.yul\":8164:8170   */\n      0x00\n        /* \"#utility.yul\":8172:8178   */\n      dup1\n        /* \"#utility.yul\":8221:8224   */\n      0x80\n        /* \"#utility.yul\":8209:8218   */\n      dup6\n        /* \"#utility.yul\":8200:8207   */\n      dup8\n        /* \"#utility.yul\":8196:8219   */\n      sub\n        /* \"#utility.yul\":8192:8225   */\n      slt\n        /* \"#utility.yul\":8189:8309   */\n      iszero\n      tag_346\n      jumpi\n        /* \"#utility.yul\":8228:8307   */\n      tag_347\n      tag_202\n      jump\t// in\n    tag_347:\n        /* \"#utility.yul\":8189:8309   */\n    tag_346:\n        /* \"#utility.yul\":8376:8377   */\n      0x00\n        /* \"#utility.yul\":8365:8374   */\n      dup6\n        /* \"#utility.yul\":8361:8378   */\n      add\n        /* \"#utility.yul\":8348:8379   */\n      calldataload\n        /* \"#utility.yul\":8406:8424   */\n      0xffffffffffffffff\n        /* \"#utility.yul\":8398:8404   */\n      dup2\n        /* \"#utility.yul\":8395:8425   */\n      gt\n        /* \"#utility.yul\":8392:8509   */\n      iszero\n      tag_348\n      jumpi\n        /* \"#utility.yul\":8428:8507   */\n      tag_349\n      tag_203\n      jump\t// in\n    tag_349:\n        /* \"#utility.yul\":8392:8509   */\n    tag_348:\n        /* \"#utility.yul\":8533:8596   */\n      tag_350\n        /* \"#utility.yul\":8588:8595   */\n      dup8\n        /* \"#utility.yul\":8579:8585   */\n      dup3\n        /* \"#utility.yul\":8568:8577   */\n      dup9\n        /* \"#utility.yul\":8564:8586   */\n      add\n        /* \"#utility.yul\":8533:8596   */\n      tag_226\n      jump\t// in\n    tag_350:\n        /* \"#utility.yul\":8523:8596   */\n      swap5\n      pop\n        /* \"#utility.yul\":8319:8606   */\n      pop\n        /* \"#utility.yul\":8673:8675   */\n      0x20\n        /* \"#utility.yul\":8662:8671   */\n      dup6\n        /* \"#utility.yul\":8658:8676   */\n      add\n        /* \"#utility.yul\":8645:8677   */\n      calldataload\n        /* \"#utility.yul\":8704:8722   */\n      0xffffffffffffffff\n        /* \"#utility.yul\":8696:8702   */\n      dup2\n        /* \"#utility.yul\":8693:8723   */\n      gt\n        /* \"#utility.yul\":8690:8807   */\n      iszero\n      tag_351\n      jumpi\n        /* \"#utility.yul\":8726:8805   */\n      tag_352\n      tag_203\n      jump\t// in\n    tag_352:\n        /* \"#utility.yul\":8690:8807   */\n    tag_351:\n        /* \"#utility.yul\":8831:8894   */\n      tag_353\n        /* \"#utility.yul\":8886:8893   */\n      dup8\n        /* \"#utility.yul\":8877:8883   */\n      dup3\n        /* \"#utility.yul\":8866:8875   */\n      dup9\n        /* \"#utility.yul\":8862:8884   */\n      add\n        /* \"#utility.yul\":8831:8894   */\n      tag_226\n      jump\t// in\n    tag_353:\n        /* \"#utility.yul\":8821:8894   */\n      swap4\n      pop\n        /* \"#utility.yul\":8616:8904   */\n      pop\n        /* \"#utility.yul\":8943:8945   */\n      0x40\n        /* \"#utility.yul\":8969:9022   */\n      tag_354\n        /* \"#utility.yul\":9014:9021   */\n      dup8\n        /* \"#utility.yul\":9005:9011   */\n      dup3\n        /* \"#utility.yul\":8994:9003   */\n      dup9\n        /* \"#utility.yul\":8990:9012   */\n      add\n        /* \"#utility.yul\":8969:9022   */\n      tag_206\n      jump\t// in\n    tag_354:\n        /* \"#utility.yul\":8959:9022   */\n      swap3\n      pop\n        /* \"#utility.yul\":8914:9032   */\n      pop\n        /* \"#utility.yul\":9071:9073   */\n      0x60\n        /* \"#utility.yul\":9097:9150   */\n      tag_355\n        /* \"#utility.yul\":9142:9149   */\n      dup8\n        /* \"#utility.yul\":9133:9139   */\n      dup3\n        /* \"#utility.yul\":9122:9131   */\n      dup9\n        /* \"#utility.yul\":9118:9140   */\n      add\n        /* \"#utility.yul\":9097:9150   */\n      tag_206\n      jump\t// in\n    tag_355:\n        /* \"#utility.yul\":9087:9150   */\n      swap2\n      pop\n        /* \"#utility.yul\":9042:9160   */\n      pop\n        /* \"#utility.yul\":8042:9167   */\n      swap3\n      swap6\n      swap2\n      swap5\n      pop\n      swap3\n      pop\n      jump\t// out\n        /* \"#utility.yul\":9173:10527   */\n    tag_60:\n        /* \"#utility.yul\":9562:9566   */\n      0x00\n        /* \"#utility.yul\":9600:9603   */\n      0x0120\n        /* \"#utility.yul\":9589:9598   */\n      dup3\n        /* \"#utility.yul\":9585:9604   */\n      add\n        /* \"#utility.yul\":9577:9604   */\n      swap1\n      pop\n        /* \"#utility.yul\":9614:9685   */\n      tag_357\n        /* \"#utility.yul\":9682:9683   */\n      0x00\n        /* \"#utility.yul\":9671:9680   */\n      dup4\n        /* \"#utility.yul\":9667:9684   */\n      add\n        /* \"#utility.yul\":9658:9664   */\n      dup13\n        /* \"#utility.yul\":9614:9685   */\n      tag_207\n      jump\t// in\n    tag_357:\n        /* \"#utility.yul\":9695:9767   */\n      tag_358\n        /* \"#utility.yul\":9763:9765   */\n      0x20\n        /* \"#utility.yul\":9752:9761   */\n      dup4\n        /* \"#utility.yul\":9748:9766   */\n      add\n        /* \"#utility.yul\":9739:9745   */\n      dup12\n        /* \"#utility.yul\":9695:9767   */\n      tag_207\n      jump\t// in\n    tag_358:\n        /* \"#utility.yul\":9777:9849   */\n      tag_359\n        /* \"#utility.yul\":9845:9847   */\n      0x40\n        /* \"#utility.yul\":9834:9843   */\n      dup4\n        /* \"#utility.yul\":9830:9848   */\n      add\n        /* \"#utility.yul\":9821:9827   */\n      dup11\n        /* \"#utility.yul\":9777:9849   */\n      tag_207\n      jump\t// in\n    tag_359:\n        /* \"#utility.yul\":9896:9905   */\n      dup2\n        /* \"#utility.yul\":9890:9894   */\n      dup2\n        /* \"#utility.yul\":9886:9906   */\n      sub\n        /* \"#utility.yul\":9881:9883   */\n      0x60\n        /* \"#utility.yul\":9870:9879   */\n      dup4\n        /* \"#utility.yul\":9866:9884   */\n      add\n        /* \"#utility.yul\":9859:9907   */\n      mstore\n        /* \"#utility.yul\":9924:10002   */\n      tag_360\n        /* \"#utility.yul\":9997:10001   */\n      dup2\n        /* \"#utility.yul\":9988:9994   */\n      dup10\n        /* \"#utility.yul\":9924:10002   */\n      tag_212\n      jump\t// in\n    tag_360:\n        /* \"#utility.yul\":9916:10002   */\n      swap1\n      pop\n        /* \"#utility.yul\":10050:10059   */\n      dup2\n        /* \"#utility.yul\":10044:10048   */\n      dup2\n        /* \"#utility.yul\":10040:10060   */\n      sub\n        /* \"#utility.yul\":10034:10037   */\n      0x80\n        /* \"#utility.yul\":10023:10032   */\n      dup4\n        /* \"#utility.yul\":10019:10038   */\n      add\n        /* \"#utility.yul\":10012:10061   */\n      mstore\n        /* \"#utility.yul\":10078:10156   */\n      tag_361\n        /* \"#utility.yul\":10151:10155   */\n      dup2\n        /* \"#utility.yul\":10142:10148   */\n      dup9\n        /* \"#utility.yul\":10078:10156   */\n      tag_212\n      jump\t// in\n    tag_361:\n        /* \"#utility.yul\":10070:10156   */\n      swap1\n      pop\n        /* \"#utility.yul\":10166:10239   */\n      tag_362\n        /* \"#utility.yul\":10234:10237   */\n      0xa0\n        /* \"#utility.yul\":10223:10232   */\n      dup4\n        /* \"#utility.yul\":10219:10238   */\n      add\n        /* \"#utility.yul\":10210:10216   */\n      dup8\n        /* \"#utility.yul\":10166:10239   */\n      tag_207\n      jump\t// in\n    tag_362:\n        /* \"#utility.yul\":10249:10322   */\n      tag_363\n        /* \"#utility.yul\":10317:10320   */\n      0xc0\n        /* \"#utility.yul\":10306:10315   */\n      dup4\n        /* \"#utility.yul\":10302:10321   */\n      add\n        /* \"#utility.yul\":10293:10299   */\n      dup7\n        /* \"#utility.yul\":10249:10322   */\n      tag_207\n      jump\t// in\n    tag_363:\n        /* \"#utility.yul\":10332:10421   */\n      tag_364\n        /* \"#utility.yul\":10416:10419   */\n      0xe0\n        /* \"#utility.yul\":10405:10414   */\n      dup4\n        /* \"#utility.yul\":10401:10420   */\n      add\n        /* \"#utility.yul\":10392:10398   */\n      dup6\n        /* \"#utility.yul\":10332:10421   */\n      tag_215\n      jump\t// in\n    tag_364:\n        /* \"#utility.yul\":10431:10520   */\n      tag_365\n        /* \"#utility.yul\":10515:10518   */\n      0x0100\n        /* \"#utility.yul\":10504:10513   */\n      dup4\n        /* \"#utility.yul\":10500:10519   */\n      add\n        /* \"#utility.yul\":10491:10497   */\n      dup5\n        /* \"#utility.yul\":10431:10520   */\n      tag_215\n      jump\t// in\n    tag_365:\n        /* \"#utility.yul\":9173:10527   */\n      swap11\n      swap10\n      pop\n      pop\n      pop\n      pop\n      pop\n      pop\n      pop\n      pop\n      pop\n      pop\n      jump\t// out\n        /* \"#utility.yul\":10533:10713   */\n    tag_227:\n        /* \"#utility.yul\":10581:10658   */\n      0x4e487b7100000000000000000000000000000000000000000000000000000000\n        /* \"#utility.yul\":10578:10579   */\n      0x00\n        /* \"#utility.yul\":10571:10659   */\n      mstore\n        /* \"#utility.yul\":10678:10682   */\n      0x22\n        /* \"#utility.yul\":10675:10676   */\n      0x04\n        /* \"#utility.yul\":10668:10683   */\n      mstore\n        /* \"#utility.yul\":10702:10706   */\n      0x24\n        /* \"#utility.yul\":10699:10700   */\n      0x00\n        /* \"#utility.yul\":10692:10707   */\n      revert\n        /* \"#utility.yul\":10719:11039   */\n    tag_65:\n        /* \"#utility.yul\":10763:10769   */\n      0x00\n        /* \"#utility.yul\":10800:10801   */\n      0x02\n        /* \"#utility.yul\":10794:10798   */\n      dup3\n        /* \"#utility.yul\":10790:10802   */\n      div\n        /* \"#utility.yul\":10780:10802   */\n      swap1\n      pop\n        /* \"#utility.yul\":10847:10848   */\n      0x01\n        /* \"#utility.yul\":10841:10845   */\n      dup3\n        /* \"#utility.yul\":10837:10849   */\n      and\n        /* \"#utility.yul\":10868:10886   */\n      dup1\n        /* \"#utility.yul\":10858:10939   */\n      tag_368\n      jumpi\n        /* \"#utility.yul\":10924:10928   */\n      0x7f\n        /* \"#utility.yul\":10916:10922   */\n      dup3\n        /* \"#utility.yul\":10912:10929   */\n      and\n        /* \"#utility.yul\":10902:10929   */\n      swap2\n      pop\n        /* \"#utility.yul\":10858:10939   */\n    tag_368:\n        /* \"#utility.yul\":10986:10988   */\n      0x20\n        /* \"#utility.yul\":10978:10984   */\n      dup3\n        /* \"#utility.yul\":10975:10989   */\n      lt\n        /* \"#utility.yul\":10955:10973   */\n      dup2\n        /* \"#utility.yul\":10952:10990   */\n      sub\n        /* \"#utility.yul\":10949:11033   */\n      tag_369\n      jumpi\n        /* \"#utility.yul\":11005:11023   */\n      tag_370\n      tag_227\n      jump\t// in\n    tag_370:\n        /* \"#utility.yul\":10949:11033   */\n    tag_369:\n        /* \"#utility.yul\":10770:11039   */\n      pop\n        /* \"#utility.yul\":10719:11039   */\n      swap2\n      swap1\n      pop\n      jump\t// out\n        /* \"#utility.yul\":11045:11222   */\n    tag_228:\n        /* \"#utility.yul\":11185:11214   */\n      0x4f6e6c792054656e616e742063616e2061636365737320746869730000000000\n        /* \"#utility.yul\":11181:11182   */\n      0x00\n        /* \"#utility.yul\":11173:11179   */\n      dup3\n        /* \"#utility.yul\":11169:11183   */\n      add\n        /* \"#utility.yul\":11162:11215   */\n      mstore\n        /* \"#utility.yul\":11045:11222   */\n      pop\n      jump\t// out\n        /* \"#utility.yul\":11228:11594   */\n    tag_229:\n        /* \"#utility.yul\":11370:11373   */\n      0x00\n        /* \"#utility.yul\":11391:11458   */\n      tag_373\n        /* \"#utility.yul\":11455:11457   */\n      0x1b\n        /* \"#utility.yul\":11450:11453   */\n      dup4\n        /* \"#utility.yul\":11391:11458   */\n      tag_209\n      jump\t// in\n    tag_373:\n        /* \"#utility.yul\":11384:11458   */\n      swap2\n      pop\n        /* \"#utility.yul\":11467:11560   */\n      tag_374\n        /* \"#utility.yul\":11556:11559   */\n      dup3\n        /* \"#utility.yul\":11467:11560   */\n      tag_228\n      jump\t// in\n    tag_374:\n        /* \"#utility.yul\":11585:11587   */\n      0x20\n        /* \"#utility.yul\":11580:11583   */\n      dup3\n        /* \"#utility.yul\":11576:11588   */\n      add\n        /* \"#utility.yul\":11569:11588   */\n      swap1\n      pop\n        /* \"#utility.yul\":11228:11594   */\n      swap2\n      swap1\n      pop\n      jump\t// out\n        /* \"#utility.yul\":11600:12019   */\n    tag_78:\n        /* \"#utility.yul\":11766:11770   */\n      0x00\n        /* \"#utility.yul\":11804:11806   */\n      0x20\n        /* \"#utility.yul\":11793:11802   */\n      dup3\n        /* \"#utility.yul\":11789:11807   */\n      add\n        /* \"#utility.yul\":11781:11807   */\n      swap1\n      pop\n        /* \"#utility.yul\":11853:11862   */\n      dup2\n        /* \"#utility.yul\":11847:11851   */\n      dup2\n        /* \"#utility.yul\":11843:11863   */\n      sub\n        /* \"#utility.yul\":11839:11840   */\n      0x00\n        /* \"#utility.yul\":11828:11837   */\n      dup4\n        /* \"#utility.yul\":11824:11841   */\n      add\n        /* \"#utility.yul\":11817:11864   */\n      mstore\n        /* \"#utility.yul\":11881:12012   */\n      tag_376\n        /* \"#utility.yul\":12007:12011   */\n      dup2\n        /* \"#utility.yul\":11881:12012   */\n      tag_229\n      jump\t// in\n    tag_376:\n        /* \"#utility.yul\":11873:12012   */\n      swap1\n      pop\n        /* \"#utility.yul\":11600:12019   */\n      swap2\n      swap1\n      pop\n      jump\t// out\n        /* \"#utility.yul\":12025:12205   */\n    tag_230:\n        /* \"#utility.yul\":12073:12150   */\n      0x4e487b7100000000000000000000000000000000000000000000000000000000\n        /* \"#utility.yul\":12070:12071   */\n      0x00\n        /* \"#utility.yul\":12063:12151   */\n      mstore\n        /* \"#utility.yul\":12170:12174   */\n      0x11\n        /* \"#utility.yul\":12167:12168   */\n      0x04\n        /* \"#utility.yul\":12160:12175   */\n      mstore\n        /* \"#utility.yul\":12194:12198   */\n      0x24\n        /* \"#utility.yul\":12191:12192   */\n      0x00\n        /* \"#utility.yul\":12184:12199   */\n      revert\n        /* \"#utility.yul\":12211:12402   */\n    tag_81:\n        /* \"#utility.yul\":12251:12254   */\n      0x00\n        /* \"#utility.yul\":12270:12290   */\n      tag_379\n        /* \"#utility.yul\":12288:12289   */\n      dup3\n        /* \"#utility.yul\":12270:12290   */\n      tag_204\n      jump\t// in\n    tag_379:\n        /* \"#utility.yul\":12265:12290   */\n      swap2\n      pop\n        /* \"#utility.yul\":12304:12324   */\n      tag_380\n        /* \"#utility.yul\":12322:12323   */\n      dup4\n        /* \"#utility.yul\":12304:12324   */\n      tag_204\n      jump\t// in\n    tag_380:\n        /* \"#utility.yul\":12299:12324   */\n      swap3\n      pop\n        /* \"#utility.yul\":12347:12348   */\n      dup3\n        /* \"#utility.yul\":12344:12345   */\n      dup3\n        /* \"#utility.yul\":12340:12349   */\n      add\n        /* \"#utility.yul\":12333:12349   */\n      swap1\n      pop\n        /* \"#utility.yul\":12368:12371   */\n      dup1\n        /* \"#utility.yul\":12365:12366   */\n      dup3\n        /* \"#utility.yul\":12362:12372   */\n      gt\n        /* \"#utility.yul\":12359:12395   */\n      iszero\n      tag_381\n      jumpi\n        /* \"#utility.yul\":12375:12393   */\n      tag_382\n      tag_230\n      jump\t// in\n    tag_382:\n        /* \"#utility.yul\":12359:12395   */\n    tag_381:\n        /* \"#utility.yul\":12211:12402   */\n      swap3\n      swap2\n      pop\n      pop\n      jump\t// out\n        /* \"#utility.yul\":12408:12589   */\n    tag_231:\n        /* \"#utility.yul\":12548:12581   */\n      0x4e6f7420656e6f75676820457468657220696e20796f75722077616c6c657400\n        /* \"#utility.yul\":12544:12545   */\n      0x00\n        /* \"#utility.yul\":12536:12542   */\n      dup3\n        /* \"#utility.yul\":12532:12546   */\n      add\n        /* \"#utility.yul\":12525:12582   */\n      mstore\n        /* \"#utility.yul\":12408:12589   */\n      pop\n      jump\t// out\n        /* \"#utility.yul\":12595:12961   */\n    tag_232:\n        /* \"#utility.yul\":12737:12740   */\n      0x00\n        /* \"#utility.yul\":12758:12825   */\n      tag_385\n        /* \"#utility.yul\":12822:12824   */\n      0x1f\n        /* \"#utility.yul\":12817:12820   */\n      dup4\n        /* \"#utility.yul\":12758:12825   */\n      tag_209\n      jump\t// in\n    tag_385:\n        /* \"#utility.yul\":12751:12825   */\n      swap2\n      pop\n        /* \"#utility.yul\":12834:12927   */\n      tag_386\n        /* \"#utility.yul\":12923:12926   */\n      dup3\n        /* \"#utility.yul\":12834:12927   */\n      tag_231\n      jump\t// in\n    tag_386:\n        /* \"#utility.yul\":12952:12954   */\n      0x20\n        /* \"#utility.yul\":12947:12950   */\n      dup3\n        /* \"#utility.yul\":12943:12955   */\n      add\n        /* \"#utility.yul\":12936:12955   */\n      swap1\n      pop\n        /* \"#utility.yul\":12595:12961   */\n      swap2\n      swap1\n      pop\n      jump\t// out\n        /* \"#utility.yul\":12967:13386   */\n    tag_84:\n        /* \"#utility.yul\":13133:13137   */\n      0x00\n        /* \"#utility.yul\":13171:13173   */\n      0x20\n        /* \"#utility.yul\":13160:13169   */\n      dup3\n        /* \"#utility.yul\":13156:13174   */\n      add\n        /* \"#utility.yul\":13148:13174   */\n      swap1\n      pop\n        /* \"#utility.yul\":13220:13229   */\n      dup2\n        /* \"#utility.yul\":13214:13218   */\n      dup2\n        /* \"#utility.yul\":13210:13230   */\n      sub\n        /* \"#utility.yul\":13206:13207   */\n      0x00\n        /* \"#utility.yul\":13195:13204   */\n      dup4\n        /* \"#utility.yul\":13191:13208   */\n      add\n        /* \"#utility.yul\":13184:13231   */\n      mstore\n        /* \"#utility.yul\":13248:13379   */\n      tag_388\n        /* \"#utility.yul\":13374:13378   */\n      dup2\n        /* \"#utility.yul\":13248:13379   */\n      tag_232\n      jump\t// in\n    tag_388:\n        /* \"#utility.yul\":13240:13379   */\n      swap1\n      pop\n        /* \"#utility.yul\":12967:13386   */\n      swap2\n      swap1\n      pop\n      jump\t// out\n        /* \"#utility.yul\":13392:13569   */\n    tag_233:\n        /* \"#utility.yul\":13532:13561   */\n      0x526f6f6d2069732063757272656e746c79204f636375706965642e0000000000\n        /* \"#utility.yul\":13528:13529   */\n      0x00\n        /* \"#utility.yul\":13520:13526   */\n      dup3\n        /* \"#utility.yul\":13516:13530   */\n      add\n        /* \"#utility.yul\":13509:13562   */\n      mstore\n        /* \"#utility.yul\":13392:13569   */\n      pop\n      jump\t// out\n        /* \"#utility.yul\":13575:13941   */\n    tag_234:\n        /* \"#utility.yul\":13717:13720   */\n      0x00\n        /* \"#utility.yul\":13738:13805   */\n      tag_391\n        /* \"#utility.yul\":13802:13804   */\n      0x1b\n        /* \"#utility.yul\":13797:13800   */\n      dup4\n        /* \"#utility.yul\":13738:13805   */\n      tag_209\n      jump\t// in\n    tag_391:\n        /* \"#utility.yul\":13731:13805   */\n      swap2\n      pop\n        /* \"#utility.yul\":13814:13907   */\n      tag_392\n        /* \"#utility.yul\":13903:13906   */\n      dup3\n        /* \"#utility.yul\":13814:13907   */\n      tag_233\n      jump\t// in\n    tag_392:\n        /* \"#utility.yul\":13932:13934   */\n      0x20\n        /* \"#utility.yul\":13927:13930   */\n      dup3\n        /* \"#utility.yul\":13923:13935   */\n      add\n        /* \"#utility.yul\":13916:13935   */\n      swap1\n      pop\n        /* \"#utility.yul\":13575:13941   */\n      swap2\n      swap1\n      pop\n      jump\t// out\n        /* \"#utility.yul\":13947:14366   */\n    tag_88:\n        /* \"#utility.yul\":14113:14117   */\n      0x00\n        /* \"#utility.yul\":14151:14153   */\n      0x20\n        /* \"#utility.yul\":14140:14149   */\n      dup3\n        /* \"#utility.yul\":14136:14154   */\n      add\n        /* \"#utility.yul\":14128:14154   */\n      swap1\n      pop\n        /* \"#utility.yul\":14200:14209   */\n      dup2\n        /* \"#utility.yul\":14194:14198   */\n      dup2\n        /* \"#utility.yul\":14190:14210   */\n      sub\n        /* \"#utility.yul\":14186:14187   */\n      0x00\n        /* \"#utility.yul\":14175:14184   */\n      dup4\n        /* \"#utility.yul\":14171:14188   */\n      add\n        /* \"#utility.yul\":14164:14211   */\n      mstore\n        /* \"#utility.yul\":14228:14359   */\n      tag_394\n        /* \"#utility.yul\":14354:14358   */\n      dup2\n        /* \"#utility.yul\":14228:14359   */\n      tag_234\n      jump\t// in\n    tag_394:\n        /* \"#utility.yul\":14220:14359   */\n      swap1\n      pop\n        /* \"#utility.yul\":13947:14366   */\n      swap2\n      swap1\n      pop\n      jump\t// out\n        /* \"#utility.yul\":14372:14605   */\n    tag_95:\n        /* \"#utility.yul\":14411:14414   */\n      0x00\n        /* \"#utility.yul\":14434:14458   */\n      tag_396\n        /* \"#utility.yul\":14452:14457   */\n      dup3\n        /* \"#utility.yul\":14434:14458   */\n      tag_204\n      jump\t// in\n    tag_396:\n        /* \"#utility.yul\":14425:14458   */\n      swap2\n      pop\n        /* \"#utility.yul\":14480:14546   */\n      0xffffffffffffffffffffffffffffffffffffffffffffffffffffffffffffffff\n        /* \"#utility.yul\":14473:14478   */\n      dup3\n        /* \"#utility.yul\":14470:14547   */\n      sub\n        /* \"#utility.yul\":14467:14570   */\n      tag_397\n      jumpi\n        /* \"#utility.yul\":14550:14568   */\n      tag_398\n      tag_230\n      jump\t// in\n    tag_398:\n        /* \"#utility.yul\":14467:14570   */\n    tag_397:\n        /* \"#utility.yul\":14597:14598   */\n      0x01\n        /* \"#utility.yul\":14590:14595   */\n      dup3\n        /* \"#utility.yul\":14586:14599   */\n      add\n        /* \"#utility.yul\":14579:14599   */\n      swap1\n      pop\n        /* \"#utility.yul\":14372:14605   */\n      swap2\n      swap1\n      pop\n      jump\t// out\n        /* \"#utility.yul\":14611:14752   */\n    tag_235:\n        /* \"#utility.yul\":14660:14664   */\n      0x00\n        /* \"#utility.yul\":14683:14686   */\n      dup2\n        /* \"#utility.yul\":14675:14686   */\n      swap1\n      pop\n        /* \"#utility.yul\":14706:14709   */\n      dup2\n        /* \"#utility.yul\":14703:14704   */\n      0x00\n        /* \"#utility.yul\":14696:14710   */\n      mstore\n        /* \"#utility.yul\":14740:14744   */\n      0x20\n        /* \"#utility.yul\":14737:14738   */\n      0x00\n        /* \"#utility.yul\":14727:14745   */\n      keccak256\n        /* \"#utility.yul\":14719:14745   */\n      swap1\n      pop\n        /* \"#utility.yul\":14611:14752   */\n      swap2\n      swap1\n      pop\n      jump\t// out\n        /* \"#utility.yul\":14758:14851   */\n    tag_236:\n        /* \"#utility.yul\":14795:14801   */\n      0x00\n        /* \"#utility.yul\":14842:14844   */\n      0x20\n        /* \"#utility.yul\":14837:14839   */\n      0x1f\n        /* \"#utility.yul\":14830:14835   */\n      dup4\n        /* \"#utility.yul\":14826:14840   */\n      add\n        /* \"#utility.yul\":14822:14845   */\n      div\n        /* \"#utility.yul\":14812:14845   */\n      swap1\n      pop\n        /* \"#utility.yul\":14758:14851   */\n      swap2\n      swap1\n      pop\n      jump\t// out\n        /* \"#utility.yul\":14857:14964   */\n    tag_237:\n        /* \"#utility.yul\":14901:14909   */\n      0x00\n        /* \"#utility.yul\":14951:14956   */\n      dup3\n        /* \"#utility.yul\":14945:14949   */\n      dup3\n        /* \"#utility.yul\":14941:14957   */\n      shl\n        /* \"#utility.yul\":14920:14957   */\n      swap1\n      pop\n        /* \"#utility.yul\":14857:14964   */\n      swap3\n      swap2\n      pop\n      pop\n      jump\t// out\n        /* \"#utility.yul\":14970:15363   */\n    tag_238:\n        /* \"#utility.yul\":15039:15045   */\n      0x00\n        /* \"#utility.yul\":15089:15090   */\n      0x08\n        /* \"#utility.yul\":15077:15087   */\n      dup4\n        /* \"#utility.yul\":15073:15091   */\n      mul\n        /* \"#utility.yul\":15112:15209   */\n      tag_403\n        /* \"#utility.yul\":15142:15208   */\n      0xffffffffffffffffffffffffffffffffffffffffffffffffffffffffffffffff\n        /* \"#utility.yul\":15131:15140   */\n      dup3\n        /* \"#utility.yul\":15112:15209   */\n      tag_237\n      jump\t// in\n    tag_403:\n        /* \"#utility.yul\":15230:15269   */\n      tag_404\n        /* \"#utility.yul\":15260:15268   */\n      dup7\n        /* \"#utility.yul\":15249:15258   */\n      dup4\n        /* \"#utility.yul\":15230:15269   */\n      tag_237\n      jump\t// in\n    tag_404:\n        /* \"#utility.yul\":15218:15269   */\n      swap6\n      pop\n        /* \"#utility.yul\":15302:15306   */\n      dup1\n        /* \"#utility.yul\":15298:15307   */\n      not\n        /* \"#utility.yul\":15291:15296   */\n      dup5\n        /* \"#utility.yul\":15287:15308   */\n      and\n        /* \"#utility.yul\":15278:15308   */\n      swap4\n      pop\n        /* \"#utility.yul\":15351:15355   */\n      dup1\n        /* \"#utility.yul\":15341:15349   */\n      dup7\n        /* \"#utility.yul\":15337:15356   */\n      and\n        /* \"#utility.yul\":15330:15335   */\n      dup5\n        /* \"#utility.yul\":15327:15357   */\n      or\n        /* \"#utility.yul\":15317:15357   */\n      swap3\n      pop\n        /* \"#utility.yul\":15046:15363   */\n      pop\n      pop\n        /* \"#utility.yul\":14970:15363   */\n      swap4\n      swap3\n      pop\n      pop\n      pop\n      jump\t// out\n        /* \"#utility.yul\":15369:15429   */\n    tag_239:\n        /* \"#utility.yul\":15397:15400   */\n      0x00\n        /* \"#utility.yul\":15418:15423   */\n      dup2\n        /* \"#utility.yul\":15411:15423   */\n      swap1\n      pop\n        /* \"#utility.yul\":15369:15429   */\n      swap2\n      swap1\n      pop\n      jump\t// out\n        /* \"#utility.yul\":15435:15577   */\n    tag_240:\n        /* \"#utility.yul\":15485:15494   */\n      0x00\n        /* \"#utility.yul\":15518:15571   */\n      tag_407\n        /* \"#utility.yul\":15536:15570   */\n      tag_408\n        /* \"#utility.yul\":15545:15569   */\n      tag_409\n        /* \"#utility.yul\":15563:15568   */\n      dup5\n        /* \"#utility.yul\":15545:15569   */\n      tag_204\n      jump\t// in\n    tag_409:\n        /* \"#utility.yul\":15536:15570   */\n      tag_239\n      jump\t// in\n    tag_408:\n        /* \"#utility.yul\":15518:15571   */\n      tag_204\n      jump\t// in\n    tag_407:\n        /* \"#utility.yul\":15505:15571   */\n      swap1\n      pop\n        /* \"#utility.yul\":15435:15577   */\n      swap2\n      swap1\n      pop\n      jump\t// out\n        /* \"#utility.yul\":15583:15658   */\n    tag_241:\n        /* \"#utility.yul\":15626:15629   */\n      0x00\n        /* \"#utility.yul\":15647:15652   */\n      dup2\n        /* \"#utility.yul\":15640:15652   */\n      swap1\n      pop\n        /* \"#utility.yul\":15583:15658   */\n      swap2\n      swap1\n      pop\n      jump\t// out\n        /* \"#utility.yul\":15664:15933   */\n    tag_242:\n        /* \"#utility.yul\":15774:15813   */\n      tag_412\n        /* \"#utility.yul\":15805:15812   */\n      dup4\n        /* \"#utility.yul\":15774:15813   */\n      tag_240\n      jump\t// in\n    tag_412:\n        /* \"#utility.yul\":15835:15926   */\n      tag_413\n        /* \"#utility.yul\":15884:15925   */\n      tag_414\n        /* \"#utility.yul\":15908:15924   */\n      dup3\n        /* \"#utility.yul\":15884:15925   */\n      tag_241\n      jump\t// in\n    tag_414:\n        /* \"#utility.yul\":15876:15882   */\n      dup5\n        /* \"#utility.yul\":15869:15873   */\n      dup5\n        /* \"#utility.yul\":15863:15874   */\n      sload\n        /* \"#utility.yul\":15835:15926   */\n      tag_238\n      jump\t// in\n    tag_413:\n        /* \"#utility.yul\":15829:15833   */\n      dup3\n        /* \"#utility.yul\":15822:15927   */\n      sstore\n        /* \"#utility.yul\":15740:15933   */\n      pop\n        /* \"#utility.yul\":15664:15933   */\n      pop\n      pop\n      pop\n      jump\t// out\n        /* \"#utility.yul\":15939:16012   */\n    tag_243:\n        /* \"#utility.yul\":15984:15987   */\n      0x00\n        /* \"#utility.yul\":15939:16012   */\n      swap1\n      jump\t// out\n        /* \"#utility.yul\":16018:16207   */\n    tag_244:\n        /* \"#utility.yul\":16095:16127   */\n      tag_417\n      tag_243\n      jump\t// in\n    tag_417:\n        /* \"#utility.yul\":16136:16201   */\n      tag_418\n        /* \"#utility.yul\":16194:16200   */\n      dup2\n        /* \"#utility.yul\":16186:16192   */\n      dup5\n        /* \"#utility.yul\":16180:16184   */\n      dup5\n        /* \"#utility.yul\":16136:16201   */\n      tag_242\n      jump\t// in\n    tag_418:\n        /* \"#utility.yul\":16071:16207   */\n      pop\n        /* \"#utility.yul\":16018:16207   */\n      pop\n      pop\n      jump\t// out\n        /* \"#utility.yul\":16213:16399   */\n    tag_245:\n        /* \"#utility.yul\":16273:16393   */\n    tag_420:\n        /* \"#utility.yul\":16290:16293   */\n      dup2\n        /* \"#utility.yul\":16283:16288   */\n      dup2\n        /* \"#utility.yul\":16280:16294   */\n      lt\n        /* \"#utility.yul\":16273:16393   */\n      iszero\n      tag_422\n      jumpi\n        /* \"#utility.yul\":16344:16383   */\n      tag_423\n        /* \"#utility.yul\":16381:16382   */\n      0x00\n        /* \"#utility.yul\":16374:16379   */\n      dup3\n        /* \"#utility.yul\":16344:16383   */\n      tag_244\n      jump\t// in\n    tag_423:\n        /* \"#utility.yul\":16317:16318   */\n      0x01\n        /* \"#utility.yul\":16310:16315   */\n      dup2\n        /* \"#utility.yul\":16306:16319   */\n      add\n        /* \"#utility.yul\":16297:16319   */\n      swap1\n      pop\n        /* \"#utility.yul\":16273:16393   */\n      jump(tag_420)\n    tag_422:\n        /* \"#utility.yul\":16213:16399   */\n      pop\n      pop\n      jump\t// out\n        /* \"#utility.yul\":16405:16948   */\n    tag_246:\n        /* \"#utility.yul\":16506:16508   */\n      0x1f\n        /* \"#utility.yul\":16501:16504   */\n      dup3\n        /* \"#utility.yul\":16498:16509   */\n      gt\n        /* \"#utility.yul\":16495:16941   */\n      iszero\n      tag_425\n      jumpi\n        /* \"#utility.yul\":16540:16578   */\n      tag_426\n        /* \"#utility.yul\":16572:16577   */\n      dup2\n        /* \"#utility.yul\":16540:16578   */\n      tag_235\n      jump\t// in\n    tag_426:\n        /* \"#utility.yul\":16624:16653   */\n      tag_427\n        /* \"#utility.yul\":16642:16652   */\n      dup5\n        /* \"#utility.yul\":16624:16653   */\n      tag_236\n      jump\t// in\n    tag_427:\n        /* \"#utility.yul\":16614:16622   */\n      dup2\n        /* \"#utility.yul\":16610:16654   */\n      add\n        /* \"#utility.yul\":16807:16809   */\n      0x20\n        /* \"#utility.yul\":16795:16805   */\n      dup6\n        /* \"#utility.yul\":16792:16810   */\n      lt\n        /* \"#utility.yul\":16789:16838   */\n      iszero\n      tag_428\n      jumpi\n        /* \"#utility.yul\":16828:16836   */\n      dup2\n        /* \"#utility.yul\":16813:16836   */\n      swap1\n      pop\n        /* \"#utility.yul\":16789:16838   */\n    tag_428:\n        /* \"#utility.yul\":16851:16931   */\n      tag_429\n        /* \"#utility.yul\":16907:16929   */\n      tag_430\n        /* \"#utility.yul\":16925:16928   */\n      dup6\n        /* \"#utility.yul\":16907:16929   */\n      tag_236\n      jump\t// in\n    tag_430:\n        /* \"#utility.yul\":16897:16905   */\n      dup4\n        /* \"#utility.yul\":16893:16930   */\n      add\n        /* \"#utility.yul\":16880:16891   */\n      dup3\n        /* \"#utility.yul\":16851:16931   */\n      tag_245\n      jump\t// in\n    tag_429:\n        /* \"#utility.yul\":16510:16941   */\n      pop\n      pop\n        /* \"#utility.yul\":16495:16941   */\n    tag_425:\n        /* \"#utility.yul\":16405:16948   */\n      pop\n      pop\n      pop\n      jump\t// out\n        /* \"#utility.yul\":16954:17071   */\n    tag_247:\n        /* \"#utility.yul\":17008:17016   */\n      0x00\n        /* \"#utility.yul\":17058:17063   */\n      dup3\n        /* \"#utility.yul\":17052:17056   */\n      dup3\n        /* \"#utility.yul\":17048:17064   */\n      shr\n        /* \"#utility.yul\":17027:17064   */\n      swap1\n      pop\n        /* \"#utility.yul\":16954:17071   */\n      swap3\n      swap2\n      pop\n      pop\n      jump\t// out\n        /* \"#utility.yul\":17077:17246   */\n    tag_248:\n        /* \"#utility.yul\":17121:17127   */\n      0x00\n        /* \"#utility.yul\":17154:17205   */\n      tag_433\n        /* \"#utility.yul\":17202:17203   */\n      0x00\n        /* \"#utility.yul\":17198:17204   */\n      not\n        /* \"#utility.yul\":17190:17195   */\n      dup5\n        /* \"#utility.yul\":17187:17188   */\n      0x08\n        /* \"#utility.yul\":17183:17196   */\n      mul\n        /* \"#utility.yul\":17154:17205   */\n      tag_247\n      jump\t// in\n    tag_433:\n        /* \"#utility.yul\":17150:17206   */\n      not\n        /* \"#utility.yul\":17235:17239   */\n      dup1\n        /* \"#utility.yul\":17229:17233   */\n      dup4\n        /* \"#utility.yul\":17225:17240   */\n      and\n        /* \"#utility.yul\":17215:17240   */\n      swap2\n      pop\n        /* \"#utility.yul\":17128:17246   */\n      pop\n        /* \"#utility.yul\":17077:17246   */\n      swap3\n      swap2\n      pop\n      pop\n      jump\t// out\n        /* \"#utility.yul\":17251:17546   */\n    tag_249:\n        /* \"#utility.yul\":17327:17331   */\n      0x00\n        /* \"#utility.yul\":17473:17502   */\n      tag_435\n        /* \"#utility.yul\":17498:17501   */\n      dup4\n        /* \"#utility.yul\":17492:17496   */\n      dup4\n        /* \"#utility.yul\":17473:17502   */\n      tag_248\n      jump\t// in\n    tag_435:\n        /* \"#utility.yul\":17465:17502   */\n      swap2\n      pop\n        /* \"#utility.yul\":17535:17538   */\n      dup3\n        /* \"#utility.yul\":17532:17533   */\n      0x02\n        /* \"#utility.yul\":17528:17539   */\n      mul\n        /* \"#utility.yul\":17522:17526   */\n      dup3\n        /* \"#utility.yul\":17519:17540   */\n      or\n        /* \"#utility.yul\":17511:17540   */\n      swap1\n      pop\n        /* \"#utility.yul\":17251:17546   */\n      swap3\n      swap2\n      pop\n      pop\n      jump\t// out\n        /* \"#utility.yul\":17551:18946   */\n    tag_107:\n        /* \"#utility.yul\":17668:17705   */\n      tag_437\n        /* \"#utility.yul\":17701:17704   */\n      dup3\n        /* \"#utility.yul\":17668:17705   */\n      tag_208\n      jump\t// in\n    tag_437:\n        /* \"#utility.yul\":17770:17788   */\n      0xffffffffffffffff\n        /* \"#utility.yul\":17762:17768   */\n      dup2\n        /* \"#utility.yul\":17759:17789   */\n      gt\n        /* \"#utility.yul\":17756:17812   */\n      iszero\n      tag_438\n      jumpi\n        /* \"#utility.yul\":17792:17810   */\n      tag_439\n      tag_220\n      jump\t// in\n    tag_439:\n        /* \"#utility.yul\":17756:17812   */\n    tag_438:\n        /* \"#utility.yul\":17836:17874   */\n      tag_440\n        /* \"#utility.yul\":17868:17872   */\n      dup3\n        /* \"#utility.yul\":17862:17873   */\n      sload\n        /* \"#utility.yul\":17836:17874   */\n      tag_65\n      jump\t// in\n    tag_440:\n        /* \"#utility.yul\":17921:17988   */\n      tag_441\n        /* \"#utility.yul\":17981:17987   */\n      dup3\n        /* \"#utility.yul\":17973:17979   */\n      dup3\n        /* \"#utility.yul\":17967:17971   */\n      dup6\n        /* \"#utility.yul\":17921:17988   */\n      tag_246\n      jump\t// in\n    tag_441:\n        /* \"#utility.yul\":18015:18016   */\n      0x00\n        /* \"#utility.yul\":18039:18043   */\n      0x20\n        /* \"#utility.yul\":18026:18043   */\n      swap1\n      pop\n        /* \"#utility.yul\":18071:18073   */\n      0x1f\n        /* \"#utility.yul\":18063:18069   */\n      dup4\n        /* \"#utility.yul\":18060:18074   */\n      gt\n        /* \"#utility.yul\":18088:18089   */\n      0x01\n        /* \"#utility.yul\":18083:18701   */\n      dup2\n      eq\n      tag_443\n      jumpi\n        /* \"#utility.yul\":18745:18746   */\n      0x00\n        /* \"#utility.yul\":18762:18768   */\n      dup5\n        /* \"#utility.yul\":18759:18836   */\n      iszero\n      tag_444\n      jumpi\n        /* \"#utility.yul\":18811:18820   */\n      dup3\n        /* \"#utility.yul\":18806:18809   */\n      dup8\n        /* \"#utility.yul\":18802:18821   */\n      add\n        /* \"#utility.yul\":18796:18822   */\n      mload\n        /* \"#utility.yul\":18787:18822   */\n      swap1\n      pop\n        /* \"#utility.yul\":18759:18836   */\n    tag_444:\n        /* \"#utility.yul\":18862:18929   */\n      tag_445\n        /* \"#utility.yul\":18922:18928   */\n      dup6\n        /* \"#utility.yul\":18915:18920   */\n      dup3\n        /* \"#utility.yul\":18862:18929   */\n      tag_249\n      jump\t// in\n    tag_445:\n        /* \"#utility.yul\":18856:18860   */\n      dup7\n        /* \"#utility.yul\":18849:18930   */\n      sstore\n        /* \"#utility.yul\":18718:18940   */\n      pop\n        /* \"#utility.yul\":18053:18940   */\n      jump(tag_442)\n        /* \"#utility.yul\":18083:18701   */\n    tag_443:\n        /* \"#utility.yul\":18135:18139   */\n      0x1f\n        /* \"#utility.yul\":18131:18140   */\n      not\n        /* \"#utility.yul\":18123:18129   */\n      dup5\n        /* \"#utility.yul\":18119:18141   */\n      and\n        /* \"#utility.yul\":18169:18206   */\n      tag_446\n        /* \"#utility.yul\":18201:18205   */\n      dup7\n        /* \"#utility.yul\":18169:18206   */\n      tag_235\n      jump\t// in\n    tag_446:\n        /* \"#utility.yul\":18228:18229   */\n      0x00\n        /* \"#utility.yul\":18242:18450   */\n    tag_447:\n        /* \"#utility.yul\":18256:18263   */\n      dup3\n        /* \"#utility.yul\":18253:18254   */\n      dup2\n        /* \"#utility.yul\":18250:18264   */\n      lt\n        /* \"#utility.yul\":18242:18450   */\n      iszero\n      tag_449\n      jumpi\n        /* \"#utility.yul\":18335:18344   */\n      dup5\n        /* \"#utility.yul\":18330:18333   */\n      dup10\n        /* \"#utility.yul\":18326:18345   */\n      add\n        /* \"#utility.yul\":18320:18346   */\n      mload\n        /* \"#utility.yul\":18312:18318   */\n      dup3\n        /* \"#utility.yul\":18305:18347   */\n      sstore\n        /* \"#utility.yul\":18386:18387   */\n      0x01\n        /* \"#utility.yul\":18378:18384   */\n      dup3\n        /* \"#utility.yul\":18374:18388   */\n      add\n        /* \"#utility.yul\":18364:18388   */\n      swap2\n      pop\n        /* \"#utility.yul\":18433:18435   */\n      0x20\n        /* \"#utility.yul\":18422:18431   */\n      dup6\n        /* \"#utility.yul\":18418:18436   */\n      add\n        /* \"#utility.yul\":18405:18436   */\n      swap5\n      pop\n        /* \"#utility.yul\":18279:18283   */\n      0x20\n        /* \"#utility.yul\":18276:18277   */\n      dup2\n        /* \"#utility.yul\":18272:18284   */\n      add\n        /* \"#utility.yul\":18267:18284   */\n      swap1\n      pop\n        /* \"#utility.yul\":18242:18450   */\n      jump(tag_447)\n    tag_449:\n        /* \"#utility.yul\":18478:18484   */\n      dup7\n        /* \"#utility.yul\":18469:18476   */\n      dup4\n        /* \"#utility.yul\":18466:18485   */\n      lt\n        /* \"#utility.yul\":18463:18642   */\n      iszero\n      tag_450\n      jumpi\n        /* \"#utility.yul\":18536:18545   */\n      dup5\n        /* \"#utility.yul\":18531:18534   */\n      dup10\n        /* \"#utility.yul\":18527:18546   */\n      add\n        /* \"#utility.yul\":18521:18547   */\n      mload\n        /* \"#utility.yul\":18579:18627   */\n      tag_451\n        /* \"#utility.yul\":18621:18625   */\n      0x1f\n        /* \"#utility.yul\":18613:18619   */\n      dup10\n        /* \"#utility.yul\":18609:18626   */\n      and\n        /* \"#utility.yul\":18598:18607   */\n      dup3\n        /* \"#utility.yul\":18579:18627   */\n      tag_248\n      jump\t// in\n    tag_451:\n        /* \"#utility.yul\":18571:18577   */\n      dup4\n        /* \"#utility.yul\":18564:18628   */\n      sstore\n        /* \"#utility.yul\":18486:18642   */\n      pop\n        /* \"#utility.yul\":18463:18642   */\n    tag_450:\n        /* \"#utility.yul\":18688:18689   */\n      0x01\n        /* \"#utility.yul\":18684:18685   */\n      0x02\n        /* \"#utility.yul\":18676:18682   */\n      dup9\n        /* \"#utility.yul\":18672:18686   */\n      mul\n        /* \"#utility.yul\":18668:18690   */\n      add\n        /* \"#utility.yul\":18662:18666   */\n      dup9\n        /* \"#utility.yul\":18655:18691   */\n      sstore\n        /* \"#utility.yul\":18090:18701   */\n      pop\n      pop\n      pop\n        /* \"#utility.yul\":18053:18940   */\n    tag_442:\n      pop\n        /* \"#utility.yul\":17643:18946   */\n      pop\n      pop\n      pop\n        /* \"#utility.yul\":17551:18946   */\n      pop\n      pop\n      jump\t// out\n        /* \"#utility.yul\":18952:19131   */\n    tag_250:\n        /* \"#utility.yul\":19092:19123   */\n      0x4f6e6c79206c616e646c6f72642063616e206163636573732074686973000000\n        /* \"#utility.yul\":19088:19089   */\n      0x00\n        /* \"#utility.yul\":19080:19086   */\n      dup3\n        /* \"#utility.yul\":19076:19090   */\n      add\n        /* \"#utility.yul\":19069:19124   */\n      mstore\n        /* \"#utility.yul\":18952:19131   */\n      pop\n      jump\t// out\n        /* \"#utility.yul\":19137:19503   */\n    tag_251:\n        /* \"#utility.yul\":19279:19282   */\n      0x00\n        /* \"#utility.yul\":19300:19367   */\n      tag_454\n        /* \"#utility.yul\":19364:19366   */\n      0x1d\n        /* \"#utility.yul\":19359:19362   */\n      dup4\n        /* \"#utility.yul\":19300:19367   */\n      tag_209\n      jump\t// in\n    tag_454:\n        /* \"#utility.yul\":19293:19367   */\n      swap2\n      pop\n        /* \"#utility.yul\":19376:19469   */\n      tag_455\n        /* \"#utility.yul\":19465:19468   */\n      dup3\n        /* \"#utility.yul\":19376:19469   */\n      tag_250\n      jump\t// in\n    tag_455:\n        /* \"#utility.yul\":19494:19496   */\n      0x20\n        /* \"#utility.yul\":19489:19492   */\n      dup3\n        /* \"#utility.yul\":19485:19497   */\n      add\n        /* \"#utility.yul\":19478:19497   */\n      swap1\n      pop\n        /* \"#utility.yul\":19137:19503   */\n      swap2\n      swap1\n      pop\n      jump\t// out\n        /* \"#utility.yul\":19509:19928   */\n    tag_125:\n        /* \"#utility.yul\":19675:19679   */\n      0x00\n        /* \"#utility.yul\":19713:19715   */\n      0x20\n        /* \"#utility.yul\":19702:19711   */\n      dup3\n        /* \"#utility.yul\":19698:19716   */\n      add\n        /* \"#utility.yul\":19690:19716   */\n      swap1\n      pop\n        /* \"#utility.yul\":19762:19771   */\n      dup2\n        /* \"#utility.yul\":19756:19760   */\n      dup2\n        /* \"#utility.yul\":19752:19772   */\n      sub\n        /* \"#utility.yul\":19748:19749   */\n      0x00\n        /* \"#utility.yul\":19737:19746   */\n      dup4\n        /* \"#utility.yul\":19733:19750   */\n      add\n        /* \"#utility.yul\":19726:19773   */\n      mstore\n        /* \"#utility.yul\":19790:19921   */\n      tag_457\n        /* \"#utility.yul\":19916:19920   */\n      dup2\n        /* \"#utility.yul\":19790:19921   */\n      tag_251\n      jump\t// in\n    tag_457:\n        /* \"#utility.yul\":19782:19921   */\n      swap1\n      pop\n        /* \"#utility.yul\":19509:19928   */\n      swap2\n      swap1\n      pop\n      jump\t// out\n        /* \"#utility.yul\":19934:20116   */\n    tag_252:\n        /* \"#utility.yul\":20074:20108   */\n      0x54696d65206973206c65667420666f7220636f6e747261637420746f20656e64\n        /* \"#utility.yul\":20070:20071   */\n      0x00\n        /* \"#utility.yul\":20062:20068   */\n      dup3\n        /* \"#utility.yul\":20058:20072   */\n      add\n        /* \"#utility.yul\":20051:20109   */\n      mstore\n        /* \"#utility.yul\":19934:20116   */\n      pop\n      jump\t// out\n        /* \"#utility.yul\":20122:20488   */\n    tag_253:\n        /* \"#utility.yul\":20264:20267   */\n      0x00\n        /* \"#utility.yul\":20285:20352   */\n      tag_460\n        /* \"#utility.yul\":20349:20351   */\n      0x20\n        /* \"#utility.yul\":20344:20347   */\n      dup4\n        /* \"#utility.yul\":20285:20352   */\n      tag_209\n      jump\t// in\n    tag_460:\n        /* \"#utility.yul\":20278:20352   */\n      swap2\n      pop\n        /* \"#utility.yul\":20361:20454   */\n      tag_461\n        /* \"#utility.yul\":20450:20453   */\n      dup3\n        /* \"#utility.yul\":20361:20454   */\n      tag_252\n      jump\t// in\n    tag_461:\n        /* \"#utility.yul\":20479:20481   */\n      0x20\n        /* \"#utility.yul\":20474:20477   */\n      dup3\n        /* \"#utility.yul\":20470:20482   */\n      add\n        /* \"#utility.yul\":20463:20482   */\n      swap1\n      pop\n        /* \"#utility.yul\":20122:20488   */\n      swap2\n      swap1\n      pop\n      jump\t// out\n        /* \"#utility.yul\":20494:20913   */\n    tag_130:\n        /* \"#utility.yul\":20660:20664   */\n      0x00\n        /* \"#utility.yul\":20698:20700   */\n      0x20\n        /* \"#utility.yul\":20687:20696   */\n      dup3\n        /* \"#utility.yul\":20683:20701   */\n      add\n        /* \"#utility.yul\":20675:20701   */\n      swap1\n      pop\n        /* \"#utility.yul\":20747:20756   */\n      dup2\n        /* \"#utility.yul\":20741:20745   */\n      dup2\n        /* \"#utility.yul\":20737:20757   */\n      sub\n        /* \"#utility.yul\":20733:20734   */\n      0x00\n        /* \"#utility.yul\":20722:20731   */\n      dup4\n        /* \"#utility.yul\":20718:20735   */\n      add\n        /* \"#utility.yul\":20711:20758   */\n      mstore\n        /* \"#utility.yul\":20775:20906   */\n      tag_463\n        /* \"#utility.yul\":20901:20905   */\n      dup2\n        /* \"#utility.yul\":20775:20906   */\n      tag_253\n      jump\t// in\n    tag_463:\n        /* \"#utility.yul\":20767:20906   */\n      swap1\n      pop\n        /* \"#utility.yul\":20494:20913   */\n      swap2\n      swap1\n      pop\n      jump\t// out\n        /* \"#utility.yul\":20919:21092   */\n    tag_254:\n        /* \"#utility.yul\":21059:21084   */\n      0x41677265656d656e7420616c726561647920456e646564000000000000000000\n        /* \"#utility.yul\":21055:21056   */\n      0x00\n        /* \"#utility.yul\":21047:21053   */\n      dup3\n        /* \"#utility.yul\":21043:21057   */\n      add\n        /* \"#utility.yul\":21036:21085   */\n      mstore\n        /* \"#utility.yul\":20919:21092   */\n      pop\n      jump\t// out\n        /* \"#utility.yul\":21098:21464   */\n    tag_255:\n        /* \"#utility.yul\":21240:21243   */\n      0x00\n        /* \"#utility.yul\":21261:21328   */\n      tag_466\n        /* \"#utility.yul\":21325:21327   */\n      0x17\n        /* \"#utility.yul\":21320:21323   */\n      dup4\n        /* \"#utility.yul\":21261:21328   */\n      tag_209\n      jump\t// in\n    tag_466:\n        /* \"#utility.yul\":21254:21328   */\n      swap2\n      pop\n        /* \"#utility.yul\":21337:21430   */\n      tag_467\n        /* \"#utility.yul\":21426:21429   */\n      dup3\n        /* \"#utility.yul\":21337:21430   */\n      tag_254\n      jump\t// in\n    tag_467:\n        /* \"#utility.yul\":21455:21457   */\n      0x20\n        /* \"#utility.yul\":21450:21453   */\n      dup3\n        /* \"#utility.yul\":21446:21458   */\n      add\n        /* \"#utility.yul\":21439:21458   */\n      swap1\n      pop\n        /* \"#utility.yul\":21098:21464   */\n      swap2\n      swap1\n      pop\n      jump\t// out\n        /* \"#utility.yul\":21470:21889   */\n    tag_154:\n        /* \"#utility.yul\":21636:21640   */\n      0x00\n        /* \"#utility.yul\":21674:21676   */\n      0x20\n        /* \"#utility.yul\":21663:21672   */\n      dup3\n        /* \"#utility.yul\":21659:21677   */\n      add\n        /* \"#utility.yul\":21651:21677   */\n      swap1\n      pop\n        /* \"#utility.yul\":21723:21732   */\n      dup2\n        /* \"#utility.yul\":21717:21721   */\n      dup2\n        /* \"#utility.yul\":21713:21733   */\n      sub\n        /* \"#utility.yul\":21709:21710   */\n      0x00\n        /* \"#utility.yul\":21698:21707   */\n      dup4\n        /* \"#utility.yul\":21694:21711   */\n      add\n        /* \"#utility.yul\":21687:21734   */\n      mstore\n        /* \"#utility.yul\":21751:21882   */\n      tag_469\n        /* \"#utility.yul\":21877:21881   */\n      dup2\n        /* \"#utility.yul\":21751:21882   */\n      tag_255\n      jump\t// in\n    tag_469:\n        /* \"#utility.yul\":21743:21882   */\n      swap1\n      pop\n        /* \"#utility.yul\":21470:21889   */\n      swap2\n      swap1\n      pop\n      jump\t// out\n        /* \"#utility.yul\":21895:22129   */\n    tag_256:\n        /* \"#utility.yul\":22035:22069   */\n      0x4e6f2070726576696f75732061677265656d656e7420666f756e642077697468\n        /* \"#utility.yul\":22031:22032   */\n      0x00\n        /* \"#utility.yul\":22023:22029   */\n      dup3\n        /* \"#utility.yul\":22019:22033   */\n      add\n        /* \"#utility.yul\":22012:22070   */\n      mstore\n        /* \"#utility.yul\":22104:22121   */\n      0x20796f752026206c616e646c6f72640000000000000000000000000000000000\n        /* \"#utility.yul\":22099:22101   */\n      0x20\n        /* \"#utility.yul\":22091:22097   */\n      dup3\n        /* \"#utility.yul\":22087:22102   */\n      add\n        /* \"#utility.yul\":22080:22122   */\n      mstore\n        /* \"#utility.yul\":21895:22129   */\n      pop\n      jump\t// out\n        /* \"#utility.yul\":22135:22501   */\n    tag_257:\n        /* \"#utility.yul\":22277:22280   */\n      0x00\n        /* \"#utility.yul\":22298:22365   */\n      tag_472\n        /* \"#utility.yul\":22362:22364   */\n      0x2f\n        /* \"#utility.yul\":22357:22360   */\n      dup4\n        /* \"#utility.yul\":22298:22365   */\n      tag_209\n      jump\t// in\n    tag_472:\n        /* \"#utility.yul\":22291:22365   */\n      swap2\n      pop\n        /* \"#utility.yul\":22374:22467   */\n      tag_473\n        /* \"#utility.yul\":22463:22466   */\n      dup3\n        /* \"#utility.yul\":22374:22467   */\n      tag_256\n      jump\t// in\n    tag_473:\n        /* \"#utility.yul\":22492:22494   */\n      0x40\n        /* \"#utility.yul\":22487:22490   */\n      dup3\n        /* \"#utility.yul\":22483:22495   */\n      add\n        /* \"#utility.yul\":22476:22495   */\n      swap1\n      pop\n        /* \"#utility.yul\":22135:22501   */\n      swap2\n      swap1\n      pop\n      jump\t// out\n        /* \"#utility.yul\":22507:22926   */\n    tag_175:\n        /* \"#utility.yul\":22673:22677   */\n      0x00\n        /* \"#utility.yul\":22711:22713   */\n      0x20\n        /* \"#utility.yul\":22700:22709   */\n      dup3\n        /* \"#utility.yul\":22696:22714   */\n      add\n        /* \"#utility.yul\":22688:22714   */\n      swap1\n      pop\n        /* \"#utility.yul\":22760:22769   */\n      dup2\n        /* \"#utility.yul\":22754:22758   */\n      dup2\n        /* \"#utility.yul\":22750:22770   */\n      sub\n        /* \"#utility.yul\":22746:22747   */\n      0x00\n        /* \"#utility.yul\":22735:22744   */\n      dup4\n        /* \"#utility.yul\":22731:22748   */\n      add\n        /* \"#utility.yul\":22724:22771   */\n      mstore\n        /* \"#utility.yul\":22788:22919   */\n      tag_475\n        /* \"#utility.yul\":22914:22918   */\n      dup2\n        /* \"#utility.yul\":22788:22919   */\n      tag_257\n      jump\t// in\n    tag_475:\n        /* \"#utility.yul\":22780:22919   */\n      swap1\n      pop\n        /* \"#utility.yul\":22507:22926   */\n      swap2\n      swap1\n      pop\n      jump\t// out\n        /* \"#utility.yul\":22932:23103   */\n    tag_258:\n        /* \"#utility.yul\":23072:23095   */\n      0x54696d65206c65667420746f207061792052656e740000000000000000000000\n        /* \"#utility.yul\":23068:23069   */\n      0x00\n        /* \"#utility.yul\":23060:23066   */\n      dup3\n        /* \"#utility.yul\":23056:23070   */\n      add\n        /* \"#utility.yul\":23049:23096   */\n      mstore\n        /* \"#utility.yul\":22932:23103   */\n      pop\n      jump\t// out\n        /* \"#utility.yul\":23109:23475   */\n    tag_259:\n        /* \"#utility.yul\":23251:23254   */\n      0x00\n        /* \"#utility.yul\":23272:23339   */\n      tag_478\n        /* \"#utility.yul\":23336:23338   */\n      0x15\n        /* \"#utility.yul\":23331:23334   */\n      dup4\n        /* \"#utility.yul\":23272:23339   */\n      tag_209\n      jump\t// in\n    tag_478:\n        /* \"#utility.yul\":23265:23339   */\n      swap2\n      pop\n        /* \"#utility.yul\":23348:23441   */\n      tag_479\n        /* \"#utility.yul\":23437:23440   */\n      dup3\n        /* \"#utility.yul\":23348:23441   */\n      tag_258\n      jump\t// in\n    tag_479:\n        /* \"#utility.yul\":23466:23468   */\n      0x20\n        /* \"#utility.yul\":23461:23464   */\n      dup3\n        /* \"#utility.yul\":23457:23469   */\n      add\n        /* \"#utility.yul\":23450:23469   */\n      swap1\n      pop\n        /* \"#utility.yul\":23109:23475   */\n      swap2\n      swap1\n      pop\n      jump\t// out\n        /* \"#utility.yul\":23481:23900   */\n    tag_180:\n        /* \"#utility.yul\":23647:23651   */\n      0x00\n        /* \"#utility.yul\":23685:23687   */\n      0x20\n        /* \"#utility.yul\":23674:23683   */\n      dup3\n        /* \"#utility.yul\":23670:23688   */\n      add\n        /* \"#utility.yul\":23662:23688   */\n      swap1\n      pop\n        /* \"#utility.yul\":23734:23743   */\n      dup2\n        /* \"#utility.yul\":23728:23732   */\n      dup2\n        /* \"#utility.yul\":23724:23744   */\n      sub\n        /* \"#utility.yul\":23720:23721   */\n      0x00\n        /* \"#utility.yul\":23709:23718   */\n      dup4\n        /* \"#utility.yul\":23705:23722   */\n      add\n        /* \"#utility.yul\":23698:23745   */\n      mstore\n        /* \"#utility.yul\":23762:23893   */\n      tag_481\n        /* \"#utility.yul\":23888:23892   */\n      dup2\n        /* \"#utility.yul\":23762:23893   */\n      tag_259\n      jump\t// in\n    tag_481:\n        /* \"#utility.yul\":23754:23893   */\n      swap1\n      pop\n        /* \"#utility.yul\":23481:23900   */\n      swap2\n      swap1\n      pop\n      jump\t// out\n\n    auxdata: 0xa264697066735822122079e1e58f386d7c5558ef2df0e115958be33aaa6df345749c300b31c443b25e9364736f6c63430008120033\n}\n",
				"bytecode": {
					"linkReferences": {},
					"object": "608060405260006002556000600355600060045534801561001f57600080fd5b506129a48061002f6000396000f3fe60806040526004361061009c5760003560e01c80634f5e4428116100645780634f5e44281461019057806359e2cbec146101b957806363e475bd146101e457806375eb9ef61461020d578063d0d205b714610238578063d9e8843f1461027d5761009c565b806302bb2725146100a157806303742de0146100e75780630ff2a8061461010357806316abb8a11461012e578063469595871461014a575b600080fd5b3480156100ad57600080fd5b506100c860048036038101906100c39190611d59565b610299565b6040516100de9a99989796959493929190611e66565b60405180910390f35b61010160048036038101906100fc9190611d59565b61043d565b005b34801561010f57600080fd5b50610118610d6a565b6040516101259190611f10565b60405180910390f35b61014860048036038101906101439190611d59565b610d70565b005b34801561015657600080fd5b50610171600480360381019061016c9190611d59565b611027565b6040516101879a99989796959493929190611f46565b60405180910390f35b34801561019c57600080fd5b506101b760048036038101906101b29190611d59565b6111d8565b005b3480156101c557600080fd5b506101ce611386565b6040516101db9190611f10565b60405180910390f35b3480156101f057600080fd5b5061020b60048036038101906102069190612125565b61138c565b005b34801561021957600080fd5b50610222611589565b60405161022f9190611f10565b60405180910390f35b34801561024457600080fd5b5061025f600480360381019061025a9190611d59565b61158f565b604051610274999897969594939291906121c4565b60405180910390f35b61029760048036038101906102929190611d59565b61172d565b005b60066020528060005260406000206000915090508060000154908060010154908060020180546102c89061228e565b80601f01602080910402602001604051908101604052809291908181526020018280546102f49061228e565b80156103415780601f1061031657610100808354040283529160200191610341565b820191906000526020600020905b81548152906001019060200180831161032457829003601f168201915b5050505050908060030180546103569061228e565b80601f01602080910402602001604051908101604052809291908181526020018280546103829061228e565b80156103cf5780601f106103a4576101008083540402835291602001916103cf565b820191906000526020600020905b8154815290600101906020018083116103b257829003601f168201915b5050505050908060040154908060050154908060060154908060070154908060080160009054906101000a900473ffffffffffffffffffffffffffffffffffffffff16908060090160009054906101000a900473ffffffffffffffffffffffffffffffffffffffff1690508a565b806005600082815260200190815260200160002060070160019054906101000a900473ffffffffffffffffffffffffffffffffffffffff1673ffffffffffffffffffffffffffffffffffffffff163373ffffffffffffffffffffffffffffffffffffffff16036104e2576040517f08c379a00000000000000000000000000000000000000000000000000000000081526004016104d99061230b565b60405180910390fd5b816005600082815260200190815260200160002060050154600560008381526020019081526020016000206004015461051b919061235a565b34101561055d576040517f08c379a0000000000000000000000000000000000000000000000000000000008152600401610554906123da565b60405180910390fd5b82600115156005600083815260200190815260200160002060070160009054906101000a900460ff161515146105c8576040517f08c379a00000000000000000000000000000000000000000000000000000000081526004016105bf90612446565b60405180910390fd5b600073ffffffffffffffffffffffffffffffffffffffff163373ffffffffffffffffffffffffffffffffffffffff160361060157600080fd5b60006005600086815260200190815260200160002060070160019054906101000a900473ffffffffffffffffffffffffffffffffffffffff169050600060056000878152602001908152602001600020600501546005600088815260200190815260200160002060040154610676919061235a565b90508173ffffffffffffffffffffffffffffffffffffffff166108fc829081150290604051600060405180830381858888f193505050501580156106be573d6000803e3d6000fd5b50600360008154809291906106d290612466565b9190505550336005600088815260200190815260200160002060080160006101000a81548173ffffffffffffffffffffffffffffffffffffffff021916908373ffffffffffffffffffffffffffffffffffffffff16021790555060006005600088815260200190815260200160002060070160006101000a81548160ff021916908315150217905550426005600088815260200190815260200160002060060181905550600354600560008881526020019081526020016000206001018190555060405180610140016040528087815260200160035481526020016005600089815260200190815260200160002060020180546107ce9061228e565b80601f01602080910402602001604051908101604052809291908181526020018280546107fa9061228e565b80156108475780601f1061081c57610100808354040283529160200191610847565b820191906000526020600020905b81548152906001019060200180831161082a57829003601f168201915b505050505081526020016005600089815260200190815260200160002060030180546108729061228e565b80601f016020809104026020016040519081016040528092919081815260200182805461089e9061228e565b80156108eb5780601f106108c0576101008083540402835291602001916108eb565b820191906000526020600020905b8154815290600101906020018083116108ce57829003601f168201915b5050505050815260200160056000898152602001908152602001600020600401548152602001600560008981526020019081526020016000206005015481526020016301e1338081526020014281526020013373ffffffffffffffffffffffffffffffffffffffff1681526020018373ffffffffffffffffffffffffffffffffffffffff16815250600660006003548152602001908152602001600020600082015181600001556020820151816001015560408201518160020190816109b1919061265a565b5060608201518160030190816109c7919061265a565b506080820151816004015560a0820151816005015560c0820151816006015560e082015181600701556101008201518160080160006101000a81548173ffffffffffffffffffffffffffffffffffffffff021916908373ffffffffffffffffffffffffffffffffffffffff1602179055506101208201518160090160006101000a81548173ffffffffffffffffffffffffffffffffffffffff021916908373ffffffffffffffffffffffffffffffffffffffff16021790555090505060046000815480929190610a9690612466565b919050555060405180610120016040528060045481526020018781526020016003548152602001600560008981526020019081526020016000206002018054610ade9061228e565b80601f0160208091040260200160405190810160405280929190818152602001828054610b0a9061228e565b8015610b575780601f10610b2c57610100808354040283529160200191610b57565b820191906000526020600020905b815481529060010190602001808311610b3a57829003601f168201915b50505050508152602001600560008981526020019081526020016000206003018054610b829061228e565b80601f0160208091040260200160405190810160405280929190818152602001828054610bae9061228e565b8015610bfb5780601f10610bd057610100808354040283529160200191610bfb565b820191906000526020600020905b815481529060010190602001808311610bde57829003601f168201915b50505050508152602001600560008981526020019081526020016000206004015481526020014281526020013373ffffffffffffffffffffffffffffffffffffffff1681526020018373ffffffffffffffffffffffffffffffffffffffff168152506007600060045481526020019081526020016000206000820151816000015560208201518160010155604082015181600201556060820151816003019081610ca5919061265a565b506080820151816004019081610cbb919061265a565b5060a0820151816005015560c0820151816006015560e08201518160070160006101000a81548173ffffffffffffffffffffffffffffffffffffffff021916908373ffffffffffffffffffffffffffffffffffffffff1602179055506101008201518160080160006101000a81548173ffffffffffffffffffffffffffffffffffffffff021916908373ffffffffffffffffffffffffffffffffffffffff160217905550905050505050505050565b60035481565b806005600082815260200190815260200160002060070160019054906101000a900473ffffffffffffffffffffffffffffffffffffffff1673ffffffffffffffffffffffffffffffffffffffff163373ffffffffffffffffffffffffffffffffffffffff1614610e15576040517f08c379a0000000000000000000000000000000000000000000000000000000008152600401610e0c90612778565b60405180910390fd5b81600060056000838152602001908152602001600020600101549050600060066000838152602001908152602001600020600601546006600084815260200190815260200160002060070154610e6b919061235a565b9050804211610eaf576040517f08c379a0000000000000000000000000000000000000000000000000000000008152600401610ea6906127e4565b60405180910390fd5b600073ffffffffffffffffffffffffffffffffffffffff163373ffffffffffffffffffffffffffffffffffffffff1603610ee857600080fd5b600015156005600087815260200190815260200160002060070160009054906101000a900460ff16151514610f52576040517f08c379a0000000000000000000000000000000000000000000000000000000008152600401610f4990612446565b60405180910390fd5b60016005600087815260200190815260200160002060070160006101000a81548160ff02191690831515021790555060006005600087815260200190815260200160002060080160009054906101000a900473ffffffffffffffffffffffffffffffffffffffff1690506000600560008881526020019081526020016000206005015490508173ffffffffffffffffffffffffffffffffffffffff166108fc829081150290604051600060405180830381858888f1935050505015801561101d573d6000803e3d6000fd5b5050505050505050565b60056020528060005260406000206000915090508060000154908060010154908060020180546110569061228e565b80601f01602080910402602001604051908101604052809291908181526020018280546110829061228e565b80156110cf5780601f106110a4576101008083540402835291602001916110cf565b820191906000526020600020905b8154815290600101906020018083116110b257829003601f168201915b5050505050908060030180546110e49061228e565b80601f01602080910402602001604051908101604052809291908181526020018280546111109061228e565b801561115d5780601f106111325761010080835404028352916020019161115d565b820191906000526020600020905b81548152906001019060200180831161114057829003601f168201915b5050505050908060040154908060050154908060060154908060070160009054906101000a900460ff16908060070160019054906101000a900473ffffffffffffffffffffffffffffffffffffffff16908060080160009054906101000a900473ffffffffffffffffffffffffffffffffffffffff1690508a565b806005600082815260200190815260200160002060070160019054906101000a900473ffffffffffffffffffffffffffffffffffffffff1673ffffffffffffffffffffffffffffffffffffffff163373ffffffffffffffffffffffffffffffffffffffff161461127d576040517f08c379a000000000000000000000000000000000000000000000000000000000815260040161127490612778565b60405180910390fd5b816000600560008381526020019081526020016000206001015490506000600660008381526020019081526020016000206006015460066000848152602001908152602001600020600701546112d3919061235a565b9050804210611317576040517f08c379a000000000000000000000000000000000000000000000000000000000815260040161130e90612850565b60405180910390fd5b600073ffffffffffffffffffffffffffffffffffffffff163373ffffffffffffffffffffffffffffffffffffffff160361135057600080fd5b60016005600087815260200190815260200160002060070160006101000a81548160ff0219169083151502179055505050505050565b60025481565b600073ffffffffffffffffffffffffffffffffffffffff163373ffffffffffffffffffffffffffffffffffffffff16036113c557600080fd5b600260008154809291906113d890612466565b91905055506000600190506040518061014001604052806002548152602001600081526020018681526020018581526020018481526020018381526020016000815260200182151581526020013373ffffffffffffffffffffffffffffffffffffffff168152602001600073ffffffffffffffffffffffffffffffffffffffff168152506005600060025481526020019081526020016000206000820151816000015560208201518160010155604082015181600201908161149a919061265a565b5060608201518160030190816114b0919061265a565b506080820151816004015560a0820151816005015560c0820151816006015560e08201518160070160006101000a81548160ff0219169083151502179055506101008201518160070160016101000a81548173ffffffffffffffffffffffffffffffffffffffff021916908373ffffffffffffffffffffffffffffffffffffffff1602179055506101208201518160080160006101000a81548173ffffffffffffffffffffffffffffffffffffffff021916908373ffffffffffffffffffffffffffffffffffffffff1602179055509050505050505050565b60045481565b60076020528060005260406000206000915090508060000154908060010154908060020154908060030180546115c49061228e565b80601f01602080910402602001604051908101604052809291908181526020018280546115f09061228e565b801561163d5780601f106116125761010080835404028352916020019161163d565b820191906000526020600020905b81548152906001019060200180831161162057829003601f168201915b5050505050908060040180546116529061228e565b80601f016020809104026020016040519081016040528092919081815260200182805461167e9061228e565b80156116cb5780601f106116a0576101008083540402835291602001916116cb565b820191906000526020600020905b8154815290600101906020018083116116ae57829003601f168201915b5050505050908060050154908060060154908060070160009054906101000a900473ffffffffffffffffffffffffffffffffffffffff16908060080160009054906101000a900473ffffffffffffffffffffffffffffffffffffffff16905089565b806005600082815260200190815260200160002060080160009054906101000a900473ffffffffffffffffffffffffffffffffffffffff1673ffffffffffffffffffffffffffffffffffffffff163373ffffffffffffffffffffffffffffffffffffffff16146117d2576040517f08c379a00000000000000000000000000000000000000000000000000000000081526004016117c9906128e2565b60405180910390fd5b81600062278d0060056000848152602001908152602001600020600601546117fa919061235a565b90508042101561183f576040517f08c379a00000000000000000000000000000000000000000000000000000000081526004016118369061294e565b60405180910390fd5b836005600082815260200190815260200160002060040154341015611899576040517f08c379a0000000000000000000000000000000000000000000000000000000008152600401611890906123da565b60405180910390fd5b600073ffffffffffffffffffffffffffffffffffffffff163373ffffffffffffffffffffffffffffffffffffffff16036118d257600080fd5b60006005600087815260200190815260200160002060070160019054906101000a900473ffffffffffffffffffffffffffffffffffffffff1690506000600560008881526020019081526020016000206004015490508173ffffffffffffffffffffffffffffffffffffffff166108fc829081150290604051600060405180830381858888f1935050505015801561196e573d6000803e3d6000fd5b50336005600089815260200190815260200160002060080160006101000a81548173ffffffffffffffffffffffffffffffffffffffff021916908373ffffffffffffffffffffffffffffffffffffffff16021790555060006005600089815260200190815260200160002060070160006101000a81548160ff02191690831515021790555060046000815480929190611a0690612466565b91905055506040518061012001604052806004548152602001888152602001600560008a8152602001908152602001600020600101548152602001600560008a81526020019081526020016000206002018054611a629061228e565b80601f0160208091040260200160405190810160405280929190818152602001828054611a8e9061228e565b8015611adb5780601f10611ab057610100808354040283529160200191611adb565b820191906000526020600020905b815481529060010190602001808311611abe57829003601f168201915b50505050508152602001600560008a81526020019081526020016000206003018054611b069061228e565b80601f0160208091040260200160405190810160405280929190818152602001828054611b329061228e565b8015611b7f5780601f10611b5457610100808354040283529160200191611b7f565b820191906000526020600020905b815481529060010190602001808311611b6257829003601f168201915b505050505081526020018281526020014281526020013373ffffffffffffffffffffffffffffffffffffffff168152602001600560008a815260200190815260200160002060070160019054906101000a900473ffffffffffffffffffffffffffffffffffffffff1673ffffffffffffffffffffffffffffffffffffffff168152506007600060045481526020019081526020016000206000820151816000015560208201518160010155604082015181600201556060820151816003019081611c49919061265a565b506080820151816004019081611c5f919061265a565b5060a0820151816005015560c0820151816006015560e08201518160070160006101000a81548173ffffffffffffffffffffffffffffffffffffffff021916908373ffffffffffffffffffffffffffffffffffffffff1602179055506101008201518160080160006101000a81548173ffffffffffffffffffffffffffffffffffffffff021916908373ffffffffffffffffffffffffffffffffffffffff16021790555090505050505050505050565b6000604051905090565b600080fd5b600080fd5b6000819050919050565b611d3681611d23565b8114611d4157600080fd5b50565b600081359050611d5381611d2d565b92915050565b600060208284031215611d6f57611d6e611d19565b5b6000611d7d84828501611d44565b91505092915050565b611d8f81611d23565b82525050565b600081519050919050565b600082825260208201905092915050565b60005b83811015611dcf578082015181840152602081019050611db4565b60008484015250505050565b6000601f19601f8301169050919050565b6000611df782611d95565b611e018185611da0565b9350611e11818560208601611db1565b611e1a81611ddb565b840191505092915050565b600073ffffffffffffffffffffffffffffffffffffffff82169050919050565b6000611e5082611e25565b9050919050565b611e6081611e45565b82525050565b600061014082019050611e7c600083018d611d86565b611e89602083018c611d86565b8181036040830152611e9b818b611dec565b90508181036060830152611eaf818a611dec565b9050611ebe6080830189611d86565b611ecb60a0830188611d86565b611ed860c0830187611d86565b611ee560e0830186611d86565b611ef3610100830185611e57565b611f01610120830184611e57565b9b9a5050505050505050505050565b6000602082019050611f256000830184611d86565b92915050565b60008115159050919050565b611f4081611f2b565b82525050565b600061014082019050611f5c600083018d611d86565b611f69602083018c611d86565b8181036040830152611f7b818b611dec565b90508181036060830152611f8f818a611dec565b9050611f9e6080830189611d86565b611fab60a0830188611d86565b611fb860c0830187611d86565b611fc560e0830186611f37565b611fd3610100830185611e57565b611fe1610120830184611e57565b9b9a5050505050505050505050565b600080fd5b600080fd5b7f4e487b7100000000000000000000000000000000000000000000000000000000600052604160045260246000fd5b61203282611ddb565b810181811067ffffffffffffffff8211171561205157612050611ffa565b5b80604052505050565b6000612064611d0f565b90506120708282612029565b919050565b600067ffffffffffffffff8211156120905761208f611ffa565b5b61209982611ddb565b9050602081019050919050565b82818337600083830152505050565b60006120c86120c384612075565b61205a565b9050828152602081018484840111156120e4576120e3611ff5565b5b6120ef8482856120a6565b509392505050565b600082601f83011261210c5761210b611ff0565b5b813561211c8482602086016120b5565b91505092915050565b6000806000806080858703121561213f5761213e611d19565b5b600085013567ffffffffffffffff81111561215d5761215c611d1e565b5b612169878288016120f7565b945050602085013567ffffffffffffffff81111561218a57612189611d1e565b5b612196878288016120f7565b93505060406121a787828801611d44565b92505060606121b887828801611d44565b91505092959194509250565b6000610120820190506121da600083018c611d86565b6121e7602083018b611d86565b6121f4604083018a611d86565b81810360608301526122068189611dec565b9050818103608083015261221a8188611dec565b905061222960a0830187611d86565b61223660c0830186611d86565b61224360e0830185611e57565b612251610100830184611e57565b9a9950505050505050505050565b7f4e487b7100000000000000000000000000000000000000000000000000000000600052602260045260246000fd5b600060028204905060018216806122a657607f821691505b6020821081036122b9576122b861225f565b5b50919050565b7f4f6e6c792054656e616e742063616e2061636365737320746869730000000000600082015250565b60006122f5601b83611da0565b9150612300826122bf565b602082019050919050565b60006020820190508181036000830152612324816122e8565b9050919050565b7f4e487b7100000000000000000000000000000000000000000000000000000000600052601160045260246000fd5b600061236582611d23565b915061237083611d23565b92508282019050808211156123885761238761232b565b5b92915050565b7f4e6f7420656e6f75676820457468657220696e20796f75722077616c6c657400600082015250565b60006123c4601f83611da0565b91506123cf8261238e565b602082019050919050565b600060208201905081810360008301526123f3816123b7565b9050919050565b7f526f6f6d2069732063757272656e746c79204f636375706965642e0000000000600082015250565b6000612430601b83611da0565b915061243b826123fa565b602082019050919050565b6000602082019050818103600083015261245f81612423565b9050919050565b600061247182611d23565b91507fffffffffffffffffffffffffffffffffffffffffffffffffffffffffffffffff82036124a3576124a261232b565b5b600182019050919050565b60008190508160005260206000209050919050565b60006020601f8301049050919050565b600082821b905092915050565b6000600883026125107fffffffffffffffffffffffffffffffffffffffffffffffffffffffffffffffff826124d3565b61251a86836124d3565b95508019841693508086168417925050509392505050565b6000819050919050565b600061255761255261254d84611d23565b612532565b611d23565b9050919050565b6000819050919050565b6125718361253c565b61258561257d8261255e565b8484546124e0565b825550505050565b600090565b61259a61258d565b6125a5818484612568565b505050565b5b818110156125c9576125be600082612592565b6001810190506125ab565b5050565b601f82111561260e576125df816124ae565b6125e8846124c3565b810160208510156125f7578190505b61260b612603856124c3565b8301826125aa565b50505b505050565b600082821c905092915050565b600061263160001984600802612613565b1980831691505092915050565b600061264a8383612620565b9150826002028217905092915050565b61266382611d95565b67ffffffffffffffff81111561267c5761267b611ffa565b5b612686825461228e565b6126918282856125cd565b600060209050601f8311600181146126c457600084156126b2578287015190505b6126bc858261263e565b865550612724565b601f1984166126d2866124ae565b60005b828110156126fa578489015182556001820191506020850194506020810190506126d5565b868310156127175784890151612713601f891682612620565b8355505b6001600288020188555050505b505050505050565b7f4f6e6c79206c616e646c6f72642063616e206163636573732074686973000000600082015250565b6000612762601d83611da0565b915061276d8261272c565b602082019050919050565b6000602082019050818103600083015261279181612755565b9050919050565b7f54696d65206973206c65667420666f7220636f6e747261637420746f20656e64600082015250565b60006127ce602083611da0565b91506127d982612798565b602082019050919050565b600060208201905081810360008301526127fd816127c1565b9050919050565b7f41677265656d656e7420616c726561647920456e646564000000000000000000600082015250565b600061283a601783611da0565b915061284582612804565b602082019050919050565b600060208201905081810360008301526128698161282d565b9050919050565b7f4e6f2070726576696f75732061677265656d656e7420666f756e64207769746860008201527f20796f752026206c616e646c6f72640000000000000000000000000000000000602082015250565b60006128cc602f83611da0565b91506128d782612870565b604082019050919050565b600060208201905081810360008301526128fb816128bf565b9050919050565b7f54696d65206c65667420746f207061792052656e740000000000000000000000600082015250565b6000612938601583611da0565b915061294382612902565b602082019050919050565b600060208201905081810360008301526129678161292b565b905091905056fea264697066735822122079e1e58f386d7c5558ef2df0e115958be33aaa6df345749c300b31c443b25e9364736f6c63430008120033",
					"opcodes": "PUSH1 0x80 PUSH1 0x40 MSTORE PUSH1 0x0 PUSH1 0x2 SSTORE PUSH1 0x0 PUSH1 0x3 SSTORE PUSH1 0x0 PUSH1 0x4 SSTORE CALLVALUE DUP1 ISZERO PUSH2 0x1F JUMPI PUSH1 0x0 DUP1 REVERT JUMPDEST POP PUSH2 0x29A4 DUP1 PUSH2 0x2F PUSH1 0x0 CODECOPY PUSH1 0x0 RETURN INVALID PUSH1 0x80 PUSH1 0x40 MSTORE PUSH1 0x4 CALLDATASIZE LT PUSH2 0x9C JUMPI PUSH1 0x0 CALLDATALOAD PUSH1 0xE0 SHR DUP1 PUSH4 0x4F5E4428 GT PUSH2 0x64 JUMPI DUP1 PUSH4 0x4F5E4428 EQ PUSH2 0x190 JUMPI DUP1 PUSH4 0x59E2CBEC EQ PUSH2 0x1B9 JUMPI DUP1 PUSH4 0x63E475BD EQ PUSH2 0x1E4 JUMPI DUP1 PUSH4 0x75EB9EF6 EQ PUSH2 0x20D JUMPI DUP1 PUSH4 0xD0D205B7 EQ PUSH2 0x238 JUMPI DUP1 PUSH4 0xD9E8843F EQ PUSH2 0x27D JUMPI PUSH2 0x9C JUMP JUMPDEST DUP1 PUSH4 0x2BB2725 EQ PUSH2 0xA1 JUMPI DUP1 PUSH4 0x3742DE0 EQ PUSH2 0xE7 JUMPI DUP1 PUSH4 0xFF2A806 EQ PUSH2 0x103 JUMPI DUP1 PUSH4 0x16ABB8A1 EQ PUSH2 0x12E JUMPI DUP1 PUSH4 0x46959587 EQ PUSH2 0x14A JUMPI JUMPDEST PUSH1 0x0 DUP1 REVERT JUMPDEST CALLVALUE DUP1 ISZERO PUSH2 0xAD JUMPI PUSH1 0x0 DUP1 REVERT JUMPDEST POP PUSH2 0xC8 PUSH1 0x4 DUP1 CALLDATASIZE SUB DUP2 ADD SWAP1 PUSH2 0xC3 SWAP2 SWAP1 PUSH2 0x1D59 JUMP JUMPDEST PUSH2 0x299 JUMP JUMPDEST PUSH1 0x40 MLOAD PUSH2 0xDE SWAP11 SWAP10 SWAP9 SWAP8 SWAP7 SWAP6 SWAP5 SWAP4 SWAP3 SWAP2 SWAP1 PUSH2 0x1E66 JUMP JUMPDEST PUSH1 0x40 MLOAD DUP1 SWAP2 SUB SWAP1 RETURN JUMPDEST PUSH2 0x101 PUSH1 0x4 DUP1 CALLDATASIZE SUB DUP2 ADD SWAP1 PUSH2 0xFC SWAP2 SWAP1 PUSH2 0x1D59 JUMP JUMPDEST PUSH2 0x43D JUMP JUMPDEST STOP JUMPDEST CALLVALUE DUP1 ISZERO PUSH2 0x10F JUMPI PUSH1 0x0 DUP1 REVERT JUMPDEST POP PUSH2 0x118 PUSH2 0xD6A JUMP JUMPDEST PUSH1 0x40 MLOAD PUSH2 0x125 SWAP2 SWAP1 PUSH2 0x1F10 JUMP JUMPDEST PUSH1 0x40 MLOAD DUP1 SWAP2 SUB SWAP1 RETURN JUMPDEST PUSH2 0x148 PUSH1 0x4 DUP1 CALLDATASIZE SUB DUP2 ADD SWAP1 PUSH2 0x143 SWAP2 SWAP1 PUSH2 0x1D59 JUMP JUMPDEST PUSH2 0xD70 JUMP JUMPDEST STOP JUMPDEST CALLVALUE DUP1 ISZERO PUSH2 0x156 JUMPI PUSH1 0x0 DUP1 REVERT JUMPDEST POP PUSH2 0x171 PUSH1 0x4 DUP1 CALLDATASIZE SUB DUP2 ADD SWAP1 PUSH2 0x16C SWAP2 SWAP1 PUSH2 0x1D59 JUMP JUMPDEST PUSH2 0x1027 JUMP JUMPDEST PUSH1 0x40 MLOAD PUSH2 0x187 SWAP11 SWAP10 SWAP9 SWAP8 SWAP7 SWAP6 SWAP5 SWAP4 SWAP3 SWAP2 SWAP1 PUSH2 0x1F46 JUMP JUMPDEST PUSH1 0x40 MLOAD DUP1 SWAP2 SUB SWAP1 RETURN JUMPDEST CALLVALUE DUP1 ISZERO PUSH2 0x19C JUMPI PUSH1 0x0 DUP1 REVERT JUMPDEST POP PUSH2 0x1B7 PUSH1 0x4 DUP1 CALLDATASIZE SUB DUP2 ADD SWAP1 PUSH2 0x1B2 SWAP2 SWAP1 PUSH2 0x1D59 JUMP JUMPDEST PUSH2 0x11D8 JUMP JUMPDEST STOP JUMPDEST CALLVALUE DUP1 ISZERO PUSH2 0x1C5 JUMPI PUSH1 0x0 DUP1 REVERT JUMPDEST POP PUSH2 0x1CE PUSH2 0x1386 JUMP JUMPDEST PUSH1 0x40 MLOAD PUSH2 0x1DB SWAP2 SWAP1 PUSH2 0x1F10 JUMP JUMPDEST PUSH1 0x40 MLOAD DUP1 SWAP2 SUB SWAP1 RETURN JUMPDEST CALLVALUE DUP1 ISZERO PUSH2 0x1F0 JUMPI PUSH1 0x0 DUP1 REVERT JUMPDEST POP PUSH2 0x20B PUSH1 0x4 DUP1 CALLDATASIZE SUB DUP2 ADD SWAP1 PUSH2 0x206 SWAP2 SWAP1 PUSH2 0x2125 JUMP JUMPDEST PUSH2 0x138C JUMP JUMPDEST STOP JUMPDEST CALLVALUE DUP1 ISZERO PUSH2 0x219 JUMPI PUSH1 0x0 DUP1 REVERT JUMPDEST POP PUSH2 0x222 PUSH2 0x1589 JUMP JUMPDEST PUSH1 0x40 MLOAD PUSH2 0x22F SWAP2 SWAP1 PUSH2 0x1F10 JUMP JUMPDEST PUSH1 0x40 MLOAD DUP1 SWAP2 SUB SWAP1 RETURN JUMPDEST CALLVALUE DUP1 ISZERO PUSH2 0x244 JUMPI PUSH1 0x0 DUP1 REVERT JUMPDEST POP PUSH2 0x25F PUSH1 0x4 DUP1 CALLDATASIZE SUB DUP2 ADD SWAP1 PUSH2 0x25A SWAP2 SWAP1 PUSH2 0x1D59 JUMP JUMPDEST PUSH2 0x158F JUMP JUMPDEST PUSH1 0x40 MLOAD PUSH2 0x274 SWAP10 SWAP9 SWAP8 SWAP7 SWAP6 SWAP5 SWAP4 SWAP3 SWAP2 SWAP1 PUSH2 0x21C4 JUMP JUMPDEST PUSH1 0x40 MLOAD DUP1 SWAP2 SUB SWAP1 RETURN JUMPDEST PUSH2 0x297 PUSH1 0x4 DUP1 CALLDATASIZE SUB DUP2 ADD SWAP1 PUSH2 0x292 SWAP2 SWAP1 PUSH2 0x1D59 JUMP JUMPDEST PUSH2 0x172D JUMP JUMPDEST STOP JUMPDEST PUSH1 0x6 PUSH1 0x20 MSTORE DUP1 PUSH1 0x0 MSTORE PUSH1 0x40 PUSH1 0x0 KECCAK256 PUSH1 0x0 SWAP2 POP SWAP1 POP DUP1 PUSH1 0x0 ADD SLOAD SWAP1 DUP1 PUSH1 0x1 ADD SLOAD SWAP1 DUP1 PUSH1 0x2 ADD DUP1 SLOAD PUSH2 0x2C8 SWAP1 PUSH2 0x228E JUMP JUMPDEST DUP1 PUSH1 0x1F ADD PUSH1 0x20 DUP1 SWAP2 DIV MUL PUSH1 0x20 ADD PUSH1 0x40 MLOAD SWAP1 DUP2 ADD PUSH1 0x40 MSTORE DUP1 SWAP3 SWAP2 SWAP1 DUP2 DUP2 MSTORE PUSH1 0x20 ADD DUP3 DUP1 SLOAD PUSH2 0x2F4 SWAP1 PUSH2 0x228E JUMP JUMPDEST DUP1 ISZERO PUSH2 0x341 JUMPI DUP1 PUSH1 0x1F LT PUSH2 0x316 JUMPI PUSH2 0x100 DUP1 DUP4 SLOAD DIV MUL DUP4 MSTORE SWAP2 PUSH1 0x20 ADD SWAP2 PUSH2 0x341 JUMP JUMPDEST DUP3 ADD SWAP2 SWAP1 PUSH1 0x0 MSTORE PUSH1 0x20 PUSH1 0x0 KECCAK256 SWAP1 JUMPDEST DUP2 SLOAD DUP2 MSTORE SWAP1 PUSH1 0x1 ADD SWAP1 PUSH1 0x20 ADD DUP1 DUP4 GT PUSH2 0x324 JUMPI DUP3 SWAP1 SUB PUSH1 0x1F AND DUP3 ADD SWAP2 JUMPDEST POP POP POP POP POP SWAP1 DUP1 PUSH1 0x3 ADD DUP1 SLOAD PUSH2 0x356 SWAP1 PUSH2 0x228E JUMP JUMPDEST DUP1 PUSH1 0x1F ADD PUSH1 0x20 DUP1 SWAP2 DIV MUL PUSH1 0x20 ADD PUSH1 0x40 MLOAD SWAP1 DUP2 ADD PUSH1 0x40 MSTORE DUP1 SWAP3 SWAP2 SWAP1 DUP2 DUP2 MSTORE PUSH1 0x20 ADD DUP3 DUP1 SLOAD PUSH2 0x382 SWAP1 PUSH2 0x228E JUMP JUMPDEST DUP1 ISZERO PUSH2 0x3CF JUMPI DUP1 PUSH1 0x1F LT PUSH2 0x3A4 JUMPI PUSH2 0x100 DUP1 DUP4 SLOAD DIV MUL DUP4 MSTORE SWAP2 PUSH1 0x20 ADD SWAP2 PUSH2 0x3CF JUMP JUMPDEST DUP3 ADD SWAP2 SWAP1 PUSH1 0x0 MSTORE PUSH1 0x20 PUSH1 0x0 KECCAK256 SWAP1 JUMPDEST DUP2 SLOAD DUP2 MSTORE SWAP1 PUSH1 0x1 ADD SWAP1 PUSH1 0x20 ADD DUP1 DUP4 GT PUSH2 0x3B2 JUMPI DUP3 SWAP1 SUB PUSH1 0x1F AND DUP3 ADD SWAP2 JUMPDEST POP POP POP POP POP SWAP1 DUP1 PUSH1 0x4 ADD SLOAD SWAP1 DUP1 PUSH1 0x5 ADD SLOAD SWAP1 DUP1 PUSH1 0x6 ADD SLOAD SWAP1 DUP1 PUSH1 0x7 ADD SLOAD SWAP1 DUP1 PUSH1 0x8 ADD PUSH1 0x0 SWAP1 SLOAD SWAP1 PUSH2 0x100 EXP SWAP1 DIV PUSH20 0xFFFFFFFFFFFFFFFFFFFFFFFFFFFFFFFFFFFFFFFF AND SWAP1 DUP1 PUSH1 0x9 ADD PUSH1 0x0 SWAP1 SLOAD SWAP1 PUSH2 0x100 EXP SWAP1 DIV PUSH20 0xFFFFFFFFFFFFFFFFFFFFFFFFFFFFFFFFFFFFFFFF AND SWAP1 POP DUP11 JUMP JUMPDEST DUP1 PUSH1 0x5 PUSH1 0x0 DUP3 DUP2 MSTORE PUSH1 0x20 ADD SWAP1 DUP2 MSTORE PUSH1 0x20 ADD PUSH1 0x0 KECCAK256 PUSH1 0x7 ADD PUSH1 0x1 SWAP1 SLOAD SWAP1 PUSH2 0x100 EXP SWAP1 DIV PUSH20 0xFFFFFFFFFFFFFFFFFFFFFFFFFFFFFFFFFFFFFFFF AND PUSH20 0xFFFFFFFFFFFFFFFFFFFFFFFFFFFFFFFFFFFFFFFF AND CALLER PUSH20 0xFFFFFFFFFFFFFFFFFFFFFFFFFFFFFFFFFFFFFFFF AND SUB PUSH2 0x4E2 JUMPI PUSH1 0x40 MLOAD PUSH32 0x8C379A000000000000000000000000000000000000000000000000000000000 DUP2 MSTORE PUSH1 0x4 ADD PUSH2 0x4D9 SWAP1 PUSH2 0x230B JUMP JUMPDEST PUSH1 0x40 MLOAD DUP1 SWAP2 SUB SWAP1 REVERT JUMPDEST DUP2 PUSH1 0x5 PUSH1 0x0 DUP3 DUP2 MSTORE PUSH1 0x20 ADD SWAP1 DUP2 MSTORE PUSH1 0x20 ADD PUSH1 0x0 KECCAK256 PUSH1 0x5 ADD SLOAD PUSH1 0x5 PUSH1 0x0 DUP4 DUP2 MSTORE PUSH1 0x20 ADD SWAP1 DUP2 MSTORE PUSH1 0x20 ADD PUSH1 0x0 KECCAK256 PUSH1 0x4 ADD SLOAD PUSH2 0x51B SWAP2 SWAP1 PUSH2 0x235A JUMP JUMPDEST CALLVALUE LT ISZERO PUSH2 0x55D JUMPI PUSH1 0x40 MLOAD PUSH32 0x8C379A000000000000000000000000000000000000000000000000000000000 DUP2 MSTORE PUSH1 0x4 ADD PUSH2 0x554 SWAP1 PUSH2 0x23DA JUMP JUMPDEST PUSH1 0x40 MLOAD DUP1 SWAP2 SUB SWAP1 REVERT JUMPDEST DUP3 PUSH1 0x1 ISZERO ISZERO PUSH1 0x5 PUSH1 0x0 DUP4 DUP2 MSTORE PUSH1 0x20 ADD SWAP1 DUP2 MSTORE PUSH1 0x20 ADD PUSH1 0x0 KECCAK256 PUSH1 0x7 ADD PUSH1 0x0 SWAP1 SLOAD SWAP1 PUSH2 0x100 EXP SWAP1 DIV PUSH1 0xFF AND ISZERO ISZERO EQ PUSH2 0x5C8 JUMPI PUSH1 0x40 MLOAD PUSH32 0x8C379A000000000000000000000000000000000000000000000000000000000 DUP2 MSTORE PUSH1 0x4 ADD PUSH2 0x5BF SWAP1 PUSH2 0x2446 JUMP JUMPDEST PUSH1 0x40 MLOAD DUP1 SWAP2 SUB SWAP1 REVERT JUMPDEST PUSH1 0x0 PUSH20 0xFFFFFFFFFFFFFFFFFFFFFFFFFFFFFFFFFFFFFFFF AND CALLER PUSH20 0xFFFFFFFFFFFFFFFFFFFFFFFFFFFFFFFFFFFFFFFF AND SUB PUSH2 0x601 JUMPI PUSH1 0x0 DUP1 REVERT JUMPDEST PUSH1 0x0 PUSH1 0x5 PUSH1 0x0 DUP7 DUP2 MSTORE PUSH1 0x20 ADD SWAP1 DUP2 MSTORE PUSH1 0x20 ADD PUSH1 0x0 KECCAK256 PUSH1 0x7 ADD PUSH1 0x1 SWAP1 SLOAD SWAP1 PUSH2 0x100 EXP SWAP1 DIV PUSH20 0xFFFFFFFFFFFFFFFFFFFFFFFFFFFFFFFFFFFFFFFF AND SWAP1 POP PUSH1 0x0 PUSH1 0x5 PUSH1 0x0 DUP8 DUP2 MSTORE PUSH1 0x20 ADD SWAP1 DUP2 MSTORE PUSH1 0x20 ADD PUSH1 0x0 KECCAK256 PUSH1 0x5 ADD SLOAD PUSH1 0x5 PUSH1 0x0 DUP9 DUP2 MSTORE PUSH1 0x20 ADD SWAP1 DUP2 MSTORE PUSH1 0x20 ADD PUSH1 0x0 KECCAK256 PUSH1 0x4 ADD SLOAD PUSH2 0x676 SWAP2 SWAP1 PUSH2 0x235A JUMP JUMPDEST SWAP1 POP DUP2 PUSH20 0xFFFFFFFFFFFFFFFFFFFFFFFFFFFFFFFFFFFFFFFF AND PUSH2 0x8FC DUP3 SWAP1 DUP2 ISZERO MUL SWAP1 PUSH1 0x40 MLOAD PUSH1 0x0 PUSH1 0x40 MLOAD DUP1 DUP4 SUB DUP2 DUP6 DUP9 DUP9 CALL SWAP4 POP POP POP POP ISZERO DUP1 ISZERO PUSH2 0x6BE JUMPI RETURNDATASIZE PUSH1 0x0 DUP1 RETURNDATACOPY RETURNDATASIZE PUSH1 0x0 REVERT JUMPDEST POP PUSH1 0x3 PUSH1 0x0 DUP2 SLOAD DUP1 SWAP3 SWAP2 SWAP1 PUSH2 0x6D2 SWAP1 PUSH2 0x2466 JUMP JUMPDEST SWAP2 SWAP1 POP SSTORE POP CALLER PUSH1 0x5 PUSH1 0x0 DUP9 DUP2 MSTORE PUSH1 0x20 ADD SWAP1 DUP2 MSTORE PUSH1 0x20 ADD PUSH1 0x0 KECCAK256 PUSH1 0x8 ADD PUSH1 0x0 PUSH2 0x100 EXP DUP2 SLOAD DUP2 PUSH20 0xFFFFFFFFFFFFFFFFFFFFFFFFFFFFFFFFFFFFFFFF MUL NOT AND SWAP1 DUP4 PUSH20 0xFFFFFFFFFFFFFFFFFFFFFFFFFFFFFFFFFFFFFFFF AND MUL OR SWAP1 SSTORE POP PUSH1 0x0 PUSH1 0x5 PUSH1 0x0 DUP9 DUP2 MSTORE PUSH1 0x20 ADD SWAP1 DUP2 MSTORE PUSH1 0x20 ADD PUSH1 0x0 KECCAK256 PUSH1 0x7 ADD PUSH1 0x0 PUSH2 0x100 EXP DUP2 SLOAD DUP2 PUSH1 0xFF MUL NOT AND SWAP1 DUP4 ISZERO ISZERO MUL OR SWAP1 SSTORE POP TIMESTAMP PUSH1 0x5 PUSH1 0x0 DUP9 DUP2 MSTORE PUSH1 0x20 ADD SWAP1 DUP2 MSTORE PUSH1 0x20 ADD PUSH1 0x0 KECCAK256 PUSH1 0x6 ADD DUP2 SWAP1 SSTORE POP PUSH1 0x3 SLOAD PUSH1 0x5 PUSH1 0x0 DUP9 DUP2 MSTORE PUSH1 0x20 ADD SWAP1 DUP2 MSTORE PUSH1 0x20 ADD PUSH1 0x0 KECCAK256 PUSH1 0x1 ADD DUP2 SWAP1 SSTORE POP PUSH1 0x40 MLOAD DUP1 PUSH2 0x140 ADD PUSH1 0x40 MSTORE DUP1 DUP8 DUP2 MSTORE PUSH1 0x20 ADD PUSH1 0x3 SLOAD DUP2 MSTORE PUSH1 0x20 ADD PUSH1 0x5 PUSH1 0x0 DUP10 DUP2 MSTORE PUSH1 0x20 ADD SWAP1 DUP2 MSTORE PUSH1 0x20 ADD PUSH1 0x0 KECCAK256 PUSH1 0x2 ADD DUP1 SLOAD PUSH2 0x7CE SWAP1 PUSH2 0x228E JUMP JUMPDEST DUP1 PUSH1 0x1F ADD PUSH1 0x20 DUP1 SWAP2 DIV MUL PUSH1 0x20 ADD PUSH1 0x40 MLOAD SWAP1 DUP2 ADD PUSH1 0x40 MSTORE DUP1 SWAP3 SWAP2 SWAP1 DUP2 DUP2 MSTORE PUSH1 0x20 ADD DUP3 DUP1 SLOAD PUSH2 0x7FA SWAP1 PUSH2 0x228E JUMP JUMPDEST DUP1 ISZERO PUSH2 0x847 JUMPI DUP1 PUSH1 0x1F LT PUSH2 0x81C JUMPI PUSH2 0x100 DUP1 DUP4 SLOAD DIV MUL DUP4 MSTORE SWAP2 PUSH1 0x20 ADD SWAP2 PUSH2 0x847 JUMP JUMPDEST DUP3 ADD SWAP2 SWAP1 PUSH1 0x0 MSTORE PUSH1 0x20 PUSH1 0x0 KECCAK256 SWAP1 JUMPDEST DUP2 SLOAD DUP2 MSTORE SWAP1 PUSH1 0x1 ADD SWAP1 PUSH1 0x20 ADD DUP1 DUP4 GT PUSH2 0x82A JUMPI DUP3 SWAP1 SUB PUSH1 0x1F AND DUP3 ADD SWAP2 JUMPDEST POP POP POP POP POP DUP2 MSTORE PUSH1 0x20 ADD PUSH1 0x5 PUSH1 0x0 DUP10 DUP2 MSTORE PUSH1 0x20 ADD SWAP1 DUP2 MSTORE PUSH1 0x20 ADD PUSH1 0x0 KECCAK256 PUSH1 0x3 ADD DUP1 SLOAD PUSH2 0x872 SWAP1 PUSH2 0x228E JUMP JUMPDEST DUP1 PUSH1 0x1F ADD PUSH1 0x20 DUP1 SWAP2 DIV MUL PUSH1 0x20 ADD PUSH1 0x40 MLOAD SWAP1 DUP2 ADD PUSH1 0x40 MSTORE DUP1 SWAP3 SWAP2 SWAP1 DUP2 DUP2 MSTORE PUSH1 0x20 ADD DUP3 DUP1 SLOAD PUSH2 0x89E SWAP1 PUSH2 0x228E JUMP JUMPDEST DUP1 ISZERO PUSH2 0x8EB JUMPI DUP1 PUSH1 0x1F LT PUSH2 0x8C0 JUMPI PUSH2 0x100 DUP1 DUP4 SLOAD DIV MUL DUP4 MSTORE SWAP2 PUSH1 0x20 ADD SWAP2 PUSH2 0x8EB JUMP JUMPDEST DUP3 ADD SWAP2 SWAP1 PUSH1 0x0 MSTORE PUSH1 0x20 PUSH1 0x0 KECCAK256 SWAP1 JUMPDEST DUP2 SLOAD DUP2 MSTORE SWAP1 PUSH1 0x1 ADD SWAP1 PUSH1 0x20 ADD DUP1 DUP4 GT PUSH2 0x8CE JUMPI DUP3 SWAP1 SUB PUSH1 0x1F AND DUP3 ADD SWAP2 JUMPDEST POP POP POP POP POP DUP2 MSTORE PUSH1 0x20 ADD PUSH1 0x5 PUSH1 0x0 DUP10 DUP2 MSTORE PUSH1 0x20 ADD SWAP1 DUP2 MSTORE PUSH1 0x20 ADD PUSH1 0x0 KECCAK256 PUSH1 0x4 ADD SLOAD DUP2 MSTORE PUSH1 0x20 ADD PUSH1 0x5 PUSH1 0x0 DUP10 DUP2 MSTORE PUSH1 0x20 ADD SWAP1 DUP2 MSTORE PUSH1 0x20 ADD PUSH1 0x0 KECCAK256 PUSH1 0x5 ADD SLOAD DUP2 MSTORE PUSH1 0x20 ADD PUSH4 0x1E13380 DUP2 MSTORE PUSH1 0x20 ADD TIMESTAMP DUP2 MSTORE PUSH1 0x20 ADD CALLER PUSH20 0xFFFFFFFFFFFFFFFFFFFFFFFFFFFFFFFFFFFFFFFF AND DUP2 MSTORE PUSH1 0x20 ADD DUP4 PUSH20 0xFFFFFFFFFFFFFFFFFFFFFFFFFFFFFFFFFFFFFFFF AND DUP2 MSTORE POP PUSH1 0x6 PUSH1 0x0 PUSH1 0x3 SLOAD DUP2 MSTORE PUSH1 0x20 ADD SWAP1 DUP2 MSTORE PUSH1 0x20 ADD PUSH1 0x0 KECCAK256 PUSH1 0x0 DUP3 ADD MLOAD DUP2 PUSH1 0x0 ADD SSTORE PUSH1 0x20 DUP3 ADD MLOAD DUP2 PUSH1 0x1 ADD SSTORE PUSH1 0x40 DUP3 ADD MLOAD DUP2 PUSH1 0x2 ADD SWAP1 DUP2 PUSH2 0x9B1 SWAP2 SWAP1 PUSH2 0x265A JUMP JUMPDEST POP PUSH1 0x60 DUP3 ADD MLOAD DUP2 PUSH1 0x3 ADD SWAP1 DUP2 PUSH2 0x9C7 SWAP2 SWAP1 PUSH2 0x265A JUMP JUMPDEST POP PUSH1 0x80 DUP3 ADD MLOAD DUP2 PUSH1 0x4 ADD SSTORE PUSH1 0xA0 DUP3 ADD MLOAD DUP2 PUSH1 0x5 ADD SSTORE PUSH1 0xC0 DUP3 ADD MLOAD DUP2 PUSH1 0x6 ADD SSTORE PUSH1 0xE0 DUP3 ADD MLOAD DUP2 PUSH1 0x7 ADD SSTORE PUSH2 0x100 DUP3 ADD MLOAD DUP2 PUSH1 0x8 ADD PUSH1 0x0 PUSH2 0x100 EXP DUP2 SLOAD DUP2 PUSH20 0xFFFFFFFFFFFFFFFFFFFFFFFFFFFFFFFFFFFFFFFF MUL NOT AND SWAP1 DUP4 PUSH20 0xFFFFFFFFFFFFFFFFFFFFFFFFFFFFFFFFFFFFFFFF AND MUL OR SWAP1 SSTORE POP PUSH2 0x120 DUP3 ADD MLOAD DUP2 PUSH1 0x9 ADD PUSH1 0x0 PUSH2 0x100 EXP DUP2 SLOAD DUP2 PUSH20 0xFFFFFFFFFFFFFFFFFFFFFFFFFFFFFFFFFFFFFFFF MUL NOT AND SWAP1 DUP4 PUSH20 0xFFFFFFFFFFFFFFFFFFFFFFFFFFFFFFFFFFFFFFFF AND MUL OR SWAP1 SSTORE POP SWAP1 POP POP PUSH1 0x4 PUSH1 0x0 DUP2 SLOAD DUP1 SWAP3 SWAP2 SWAP1 PUSH2 0xA96 SWAP1 PUSH2 0x2466 JUMP JUMPDEST SWAP2 SWAP1 POP SSTORE POP PUSH1 0x40 MLOAD DUP1 PUSH2 0x120 ADD PUSH1 0x40 MSTORE DUP1 PUSH1 0x4 SLOAD DUP2 MSTORE PUSH1 0x20 ADD DUP8 DUP2 MSTORE PUSH1 0x20 ADD PUSH1 0x3 SLOAD DUP2 MSTORE PUSH1 0x20 ADD PUSH1 0x5 PUSH1 0x0 DUP10 DUP2 MSTORE PUSH1 0x20 ADD SWAP1 DUP2 MSTORE PUSH1 0x20 ADD PUSH1 0x0 KECCAK256 PUSH1 0x2 ADD DUP1 SLOAD PUSH2 0xADE SWAP1 PUSH2 0x228E JUMP JUMPDEST DUP1 PUSH1 0x1F ADD PUSH1 0x20 DUP1 SWAP2 DIV MUL PUSH1 0x20 ADD PUSH1 0x40 MLOAD SWAP1 DUP2 ADD PUSH1 0x40 MSTORE DUP1 SWAP3 SWAP2 SWAP1 DUP2 DUP2 MSTORE PUSH1 0x20 ADD DUP3 DUP1 SLOAD PUSH2 0xB0A SWAP1 PUSH2 0x228E JUMP JUMPDEST DUP1 ISZERO PUSH2 0xB57 JUMPI DUP1 PUSH1 0x1F LT PUSH2 0xB2C JUMPI PUSH2 0x100 DUP1 DUP4 SLOAD DIV MUL DUP4 MSTORE SWAP2 PUSH1 0x20 ADD SWAP2 PUSH2 0xB57 JUMP JUMPDEST DUP3 ADD SWAP2 SWAP1 PUSH1 0x0 MSTORE PUSH1 0x20 PUSH1 0x0 KECCAK256 SWAP1 JUMPDEST DUP2 SLOAD DUP2 MSTORE SWAP1 PUSH1 0x1 ADD SWAP1 PUSH1 0x20 ADD DUP1 DUP4 GT PUSH2 0xB3A JUMPI DUP3 SWAP1 SUB PUSH1 0x1F AND DUP3 ADD SWAP2 JUMPDEST POP POP POP POP POP DUP2 MSTORE PUSH1 0x20 ADD PUSH1 0x5 PUSH1 0x0 DUP10 DUP2 MSTORE PUSH1 0x20 ADD SWAP1 DUP2 MSTORE PUSH1 0x20 ADD PUSH1 0x0 KECCAK256 PUSH1 0x3 ADD DUP1 SLOAD PUSH2 0xB82 SWAP1 PUSH2 0x228E JUMP JUMPDEST DUP1 PUSH1 0x1F ADD PUSH1 0x20 DUP1 SWAP2 DIV MUL PUSH1 0x20 ADD PUSH1 0x40 MLOAD SWAP1 DUP2 ADD PUSH1 0x40 MSTORE DUP1 SWAP3 SWAP2 SWAP1 DUP2 DUP2 MSTORE PUSH1 0x20 ADD DUP3 DUP1 SLOAD PUSH2 0xBAE SWAP1 PUSH2 0x228E JUMP JUMPDEST DUP1 ISZERO PUSH2 0xBFB JUMPI DUP1 PUSH1 0x1F LT PUSH2 0xBD0 JUMPI PUSH2 0x100 DUP1 DUP4 SLOAD DIV MUL DUP4 MSTORE SWAP2 PUSH1 0x20 ADD SWAP2 PUSH2 0xBFB JUMP JUMPDEST DUP3 ADD SWAP2 SWAP1 PUSH1 0x0 MSTORE PUSH1 0x20 PUSH1 0x0 KECCAK256 SWAP1 JUMPDEST DUP2 SLOAD DUP2 MSTORE SWAP1 PUSH1 0x1 ADD SWAP1 PUSH1 0x20 ADD DUP1 DUP4 GT PUSH2 0xBDE JUMPI DUP3 SWAP1 SUB PUSH1 0x1F AND DUP3 ADD SWAP2 JUMPDEST POP POP POP POP POP DUP2 MSTORE PUSH1 0x20 ADD PUSH1 0x5 PUSH1 0x0 DUP10 DUP2 MSTORE PUSH1 0x20 ADD SWAP1 DUP2 MSTORE PUSH1 0x20 ADD PUSH1 0x0 KECCAK256 PUSH1 0x4 ADD SLOAD DUP2 MSTORE PUSH1 0x20 ADD TIMESTAMP DUP2 MSTORE PUSH1 0x20 ADD CALLER PUSH20 0xFFFFFFFFFFFFFFFFFFFFFFFFFFFFFFFFFFFFFFFF AND DUP2 MSTORE PUSH1 0x20 ADD DUP4 PUSH20 0xFFFFFFFFFFFFFFFFFFFFFFFFFFFFFFFFFFFFFFFF AND DUP2 MSTORE POP PUSH1 0x7 PUSH1 0x0 PUSH1 0x4 SLOAD DUP2 MSTORE PUSH1 0x20 ADD SWAP1 DUP2 MSTORE PUSH1 0x20 ADD PUSH1 0x0 KECCAK256 PUSH1 0x0 DUP3 ADD MLOAD DUP2 PUSH1 0x0 ADD SSTORE PUSH1 0x20 DUP3 ADD MLOAD DUP2 PUSH1 0x1 ADD SSTORE PUSH1 0x40 DUP3 ADD MLOAD DUP2 PUSH1 0x2 ADD SSTORE PUSH1 0x60 DUP3 ADD MLOAD DUP2 PUSH1 0x3 ADD SWAP1 DUP2 PUSH2 0xCA5 SWAP2 SWAP1 PUSH2 0x265A JUMP JUMPDEST POP PUSH1 0x80 DUP3 ADD MLOAD DUP2 PUSH1 0x4 ADD SWAP1 DUP2 PUSH2 0xCBB SWAP2 SWAP1 PUSH2 0x265A JUMP JUMPDEST POP PUSH1 0xA0 DUP3 ADD MLOAD DUP2 PUSH1 0x5 ADD SSTORE PUSH1 0xC0 DUP3 ADD MLOAD DUP2 PUSH1 0x6 ADD SSTORE PUSH1 0xE0 DUP3 ADD MLOAD DUP2 PUSH1 0x7 ADD PUSH1 0x0 PUSH2 0x100 EXP DUP2 SLOAD DUP2 PUSH20 0xFFFFFFFFFFFFFFFFFFFFFFFFFFFFFFFFFFFFFFFF MUL NOT AND SWAP1 DUP4 PUSH20 0xFFFFFFFFFFFFFFFFFFFFFFFFFFFFFFFFFFFFFFFF AND MUL OR SWAP1 SSTORE POP PUSH2 0x100 DUP3 ADD MLOAD DUP2 PUSH1 0x8 ADD PUSH1 0x0 PUSH2 0x100 EXP DUP2 SLOAD DUP2 PUSH20 0xFFFFFFFFFFFFFFFFFFFFFFFFFFFFFFFFFFFFFFFF MUL NOT AND SWAP1 DUP4 PUSH20 0xFFFFFFFFFFFFFFFFFFFFFFFFFFFFFFFFFFFFFFFF AND MUL OR SWAP1 SSTORE POP SWAP1 POP POP POP POP POP POP POP POP JUMP JUMPDEST PUSH1 0x3 SLOAD DUP2 JUMP JUMPDEST DUP1 PUSH1 0x5 PUSH1 0x0 DUP3 DUP2 MSTORE PUSH1 0x20 ADD SWAP1 DUP2 MSTORE PUSH1 0x20 ADD PUSH1 0x0 KECCAK256 PUSH1 0x7 ADD PUSH1 0x1 SWAP1 SLOAD SWAP1 PUSH2 0x100 EXP SWAP1 DIV PUSH20 0xFFFFFFFFFFFFFFFFFFFFFFFFFFFFFFFFFFFFFFFF AND PUSH20 0xFFFFFFFFFFFFFFFFFFFFFFFFFFFFFFFFFFFFFFFF AND CALLER PUSH20 0xFFFFFFFFFFFFFFFFFFFFFFFFFFFFFFFFFFFFFFFF AND EQ PUSH2 0xE15 JUMPI PUSH1 0x40 MLOAD PUSH32 0x8C379A000000000000000000000000000000000000000000000000000000000 DUP2 MSTORE PUSH1 0x4 ADD PUSH2 0xE0C SWAP1 PUSH2 0x2778 JUMP JUMPDEST PUSH1 0x40 MLOAD DUP1 SWAP2 SUB SWAP1 REVERT JUMPDEST DUP2 PUSH1 0x0 PUSH1 0x5 PUSH1 0x0 DUP4 DUP2 MSTORE PUSH1 0x20 ADD SWAP1 DUP2 MSTORE PUSH1 0x20 ADD PUSH1 0x0 KECCAK256 PUSH1 0x1 ADD SLOAD SWAP1 POP PUSH1 0x0 PUSH1 0x6 PUSH1 0x0 DUP4 DUP2 MSTORE PUSH1 0x20 ADD SWAP1 DUP2 MSTORE PUSH1 0x20 ADD PUSH1 0x0 KECCAK256 PUSH1 0x6 ADD SLOAD PUSH1 0x6 PUSH1 0x0 DUP5 DUP2 MSTORE PUSH1 0x20 ADD SWAP1 DUP2 MSTORE PUSH1 0x20 ADD PUSH1 0x0 KECCAK256 PUSH1 0x7 ADD SLOAD PUSH2 0xE6B SWAP2 SWAP1 PUSH2 0x235A JUMP JUMPDEST SWAP1 POP DUP1 TIMESTAMP GT PUSH2 0xEAF JUMPI PUSH1 0x40 MLOAD PUSH32 0x8C379A000000000000000000000000000000000000000000000000000000000 DUP2 MSTORE PUSH1 0x4 ADD PUSH2 0xEA6 SWAP1 PUSH2 0x27E4 JUMP JUMPDEST PUSH1 0x40 MLOAD DUP1 SWAP2 SUB SWAP1 REVERT JUMPDEST PUSH1 0x0 PUSH20 0xFFFFFFFFFFFFFFFFFFFFFFFFFFFFFFFFFFFFFFFF AND CALLER PUSH20 0xFFFFFFFFFFFFFFFFFFFFFFFFFFFFFFFFFFFFFFFF AND SUB PUSH2 0xEE8 JUMPI PUSH1 0x0 DUP1 REVERT JUMPDEST PUSH1 0x0 ISZERO ISZERO PUSH1 0x5 PUSH1 0x0 DUP8 DUP2 MSTORE PUSH1 0x20 ADD SWAP1 DUP2 MSTORE PUSH1 0x20 ADD PUSH1 0x0 KECCAK256 PUSH1 0x7 ADD PUSH1 0x0 SWAP1 SLOAD SWAP1 PUSH2 0x100 EXP SWAP1 DIV PUSH1 0xFF AND ISZERO ISZERO EQ PUSH2 0xF52 JUMPI PUSH1 0x40 MLOAD PUSH32 0x8C379A000000000000000000000000000000000000000000000000000000000 DUP2 MSTORE PUSH1 0x4 ADD PUSH2 0xF49 SWAP1 PUSH2 0x2446 JUMP JUMPDEST PUSH1 0x40 MLOAD DUP1 SWAP2 SUB SWAP1 REVERT JUMPDEST PUSH1 0x1 PUSH1 0x5 PUSH1 0x0 DUP8 DUP2 MSTORE PUSH1 0x20 ADD SWAP1 DUP2 MSTORE PUSH1 0x20 ADD PUSH1 0x0 KECCAK256 PUSH1 0x7 ADD PUSH1 0x0 PUSH2 0x100 EXP DUP2 SLOAD DUP2 PUSH1 0xFF MUL NOT AND SWAP1 DUP4 ISZERO ISZERO MUL OR SWAP1 SSTORE POP PUSH1 0x0 PUSH1 0x5 PUSH1 0x0 DUP8 DUP2 MSTORE PUSH1 0x20 ADD SWAP1 DUP2 MSTORE PUSH1 0x20 ADD PUSH1 0x0 KECCAK256 PUSH1 0x8 ADD PUSH1 0x0 SWAP1 SLOAD SWAP1 PUSH2 0x100 EXP SWAP1 DIV PUSH20 0xFFFFFFFFFFFFFFFFFFFFFFFFFFFFFFFFFFFFFFFF AND SWAP1 POP PUSH1 0x0 PUSH1 0x5 PUSH1 0x0 DUP9 DUP2 MSTORE PUSH1 0x20 ADD SWAP1 DUP2 MSTORE PUSH1 0x20 ADD PUSH1 0x0 KECCAK256 PUSH1 0x5 ADD SLOAD SWAP1 POP DUP2 PUSH20 0xFFFFFFFFFFFFFFFFFFFFFFFFFFFFFFFFFFFFFFFF AND PUSH2 0x8FC DUP3 SWAP1 DUP2 ISZERO MUL SWAP1 PUSH1 0x40 MLOAD PUSH1 0x0 PUSH1 0x40 MLOAD DUP1 DUP4 SUB DUP2 DUP6 DUP9 DUP9 CALL SWAP4 POP POP POP POP ISZERO DUP1 ISZERO PUSH2 0x101D JUMPI RETURNDATASIZE PUSH1 0x0 DUP1 RETURNDATACOPY RETURNDATASIZE PUSH1 0x0 REVERT JUMPDEST POP POP POP POP POP POP POP POP JUMP JUMPDEST PUSH1 0x5 PUSH1 0x20 MSTORE DUP1 PUSH1 0x0 MSTORE PUSH1 0x40 PUSH1 0x0 KECCAK256 PUSH1 0x0 SWAP2 POP SWAP1 POP DUP1 PUSH1 0x0 ADD SLOAD SWAP1 DUP1 PUSH1 0x1 ADD SLOAD SWAP1 DUP1 PUSH1 0x2 ADD DUP1 SLOAD PUSH2 0x1056 SWAP1 PUSH2 0x228E JUMP JUMPDEST DUP1 PUSH1 0x1F ADD PUSH1 0x20 DUP1 SWAP2 DIV MUL PUSH1 0x20 ADD PUSH1 0x40 MLOAD SWAP1 DUP2 ADD PUSH1 0x40 MSTORE DUP1 SWAP3 SWAP2 SWAP1 DUP2 DUP2 MSTORE PUSH1 0x20 ADD DUP3 DUP1 SLOAD PUSH2 0x1082 SWAP1 PUSH2 0x228E JUMP JUMPDEST DUP1 ISZERO PUSH2 0x10CF JUMPI DUP1 PUSH1 0x1F LT PUSH2 0x10A4 JUMPI PUSH2 0x100 DUP1 DUP4 SLOAD DIV MUL DUP4 MSTORE SWAP2 PUSH1 0x20 ADD SWAP2 PUSH2 0x10CF JUMP JUMPDEST DUP3 ADD SWAP2 SWAP1 PUSH1 0x0 MSTORE PUSH1 0x20 PUSH1 0x0 KECCAK256 SWAP1 JUMPDEST DUP2 SLOAD DUP2 MSTORE SWAP1 PUSH1 0x1 ADD SWAP1 PUSH1 0x20 ADD DUP1 DUP4 GT PUSH2 0x10B2 JUMPI DUP3 SWAP1 SUB PUSH1 0x1F AND DUP3 ADD SWAP2 JUMPDEST POP POP POP POP POP SWAP1 DUP1 PUSH1 0x3 ADD DUP1 SLOAD PUSH2 0x10E4 SWAP1 PUSH2 0x228E JUMP JUMPDEST DUP1 PUSH1 0x1F ADD PUSH1 0x20 DUP1 SWAP2 DIV MUL PUSH1 0x20 ADD PUSH1 0x40 MLOAD SWAP1 DUP2 ADD PUSH1 0x40 MSTORE DUP1 SWAP3 SWAP2 SWAP1 DUP2 DUP2 MSTORE PUSH1 0x20 ADD DUP3 DUP1 SLOAD PUSH2 0x1110 SWAP1 PUSH2 0x228E JUMP JUMPDEST DUP1 ISZERO PUSH2 0x115D JUMPI DUP1 PUSH1 0x1F LT PUSH2 0x1132 JUMPI PUSH2 0x100 DUP1 DUP4 SLOAD DIV MUL DUP4 MSTORE SWAP2 PUSH1 0x20 ADD SWAP2 PUSH2 0x115D JUMP JUMPDEST DUP3 ADD SWAP2 SWAP1 PUSH1 0x0 MSTORE PUSH1 0x20 PUSH1 0x0 KECCAK256 SWAP1 JUMPDEST DUP2 SLOAD DUP2 MSTORE SWAP1 PUSH1 0x1 ADD SWAP1 PUSH1 0x20 ADD DUP1 DUP4 GT PUSH2 0x1140 JUMPI DUP3 SWAP1 SUB PUSH1 0x1F AND DUP3 ADD SWAP2 JUMPDEST POP POP POP POP POP SWAP1 DUP1 PUSH1 0x4 ADD SLOAD SWAP1 DUP1 PUSH1 0x5 ADD SLOAD SWAP1 DUP1 PUSH1 0x6 ADD SLOAD SWAP1 DUP1 PUSH1 0x7 ADD PUSH1 0x0 SWAP1 SLOAD SWAP1 PUSH2 0x100 EXP SWAP1 DIV PUSH1 0xFF AND SWAP1 DUP1 PUSH1 0x7 ADD PUSH1 0x1 SWAP1 SLOAD SWAP1 PUSH2 0x100 EXP SWAP1 DIV PUSH20 0xFFFFFFFFFFFFFFFFFFFFFFFFFFFFFFFFFFFFFFFF AND SWAP1 DUP1 PUSH1 0x8 ADD PUSH1 0x0 SWAP1 SLOAD SWAP1 PUSH2 0x100 EXP SWAP1 DIV PUSH20 0xFFFFFFFFFFFFFFFFFFFFFFFFFFFFFFFFFFFFFFFF AND SWAP1 POP DUP11 JUMP JUMPDEST DUP1 PUSH1 0x5 PUSH1 0x0 DUP3 DUP2 MSTORE PUSH1 0x20 ADD SWAP1 DUP2 MSTORE PUSH1 0x20 ADD PUSH1 0x0 KECCAK256 PUSH1 0x7 ADD PUSH1 0x1 SWAP1 SLOAD SWAP1 PUSH2 0x100 EXP SWAP1 DIV PUSH20 0xFFFFFFFFFFFFFFFFFFFFFFFFFFFFFFFFFFFFFFFF AND PUSH20 0xFFFFFFFFFFFFFFFFFFFFFFFFFFFFFFFFFFFFFFFF AND CALLER PUSH20 0xFFFFFFFFFFFFFFFFFFFFFFFFFFFFFFFFFFFFFFFF AND EQ PUSH2 0x127D JUMPI PUSH1 0x40 MLOAD PUSH32 0x8C379A000000000000000000000000000000000000000000000000000000000 DUP2 MSTORE PUSH1 0x4 ADD PUSH2 0x1274 SWAP1 PUSH2 0x2778 JUMP JUMPDEST PUSH1 0x40 MLOAD DUP1 SWAP2 SUB SWAP1 REVERT JUMPDEST DUP2 PUSH1 0x0 PUSH1 0x5 PUSH1 0x0 DUP4 DUP2 MSTORE PUSH1 0x20 ADD SWAP1 DUP2 MSTORE PUSH1 0x20 ADD PUSH1 0x0 KECCAK256 PUSH1 0x1 ADD SLOAD SWAP1 POP PUSH1 0x0 PUSH1 0x6 PUSH1 0x0 DUP4 DUP2 MSTORE PUSH1 0x20 ADD SWAP1 DUP2 MSTORE PUSH1 0x20 ADD PUSH1 0x0 KECCAK256 PUSH1 0x6 ADD SLOAD PUSH1 0x6 PUSH1 0x0 DUP5 DUP2 MSTORE PUSH1 0x20 ADD SWAP1 DUP2 MSTORE PUSH1 0x20 ADD PUSH1 0x0 KECCAK256 PUSH1 0x7 ADD SLOAD PUSH2 0x12D3 SWAP2 SWAP1 PUSH2 0x235A JUMP JUMPDEST SWAP1 POP DUP1 TIMESTAMP LT PUSH2 0x1317 JUMPI PUSH1 0x40 MLOAD PUSH32 0x8C379A000000000000000000000000000000000000000000000000000000000 DUP2 MSTORE PUSH1 0x4 ADD PUSH2 0x130E SWAP1 PUSH2 0x2850 JUMP JUMPDEST PUSH1 0x40 MLOAD DUP1 SWAP2 SUB SWAP1 REVERT JUMPDEST PUSH1 0x0 PUSH20 0xFFFFFFFFFFFFFFFFFFFFFFFFFFFFFFFFFFFFFFFF AND CALLER PUSH20 0xFFFFFFFFFFFFFFFFFFFFFFFFFFFFFFFFFFFFFFFF AND SUB PUSH2 0x1350 JUMPI PUSH1 0x0 DUP1 REVERT JUMPDEST PUSH1 0x1 PUSH1 0x5 PUSH1 0x0 DUP8 DUP2 MSTORE PUSH1 0x20 ADD SWAP1 DUP2 MSTORE PUSH1 0x20 ADD PUSH1 0x0 KECCAK256 PUSH1 0x7 ADD PUSH1 0x0 PUSH2 0x100 EXP DUP2 SLOAD DUP2 PUSH1 0xFF MUL NOT AND SWAP1 DUP4 ISZERO ISZERO MUL OR SWAP1 SSTORE POP POP POP POP POP POP JUMP JUMPDEST PUSH1 0x2 SLOAD DUP2 JUMP JUMPDEST PUSH1 0x0 PUSH20 0xFFFFFFFFFFFFFFFFFFFFFFFFFFFFFFFFFFFFFFFF AND CALLER PUSH20 0xFFFFFFFFFFFFFFFFFFFFFFFFFFFFFFFFFFFFFFFF AND SUB PUSH2 0x13C5 JUMPI PUSH1 0x0 DUP1 REVERT JUMPDEST PUSH1 0x2 PUSH1 0x0 DUP2 SLOAD DUP1 SWAP3 SWAP2 SWAP1 PUSH2 0x13D8 SWAP1 PUSH2 0x2466 JUMP JUMPDEST SWAP2 SWAP1 POP SSTORE POP PUSH1 0x0 PUSH1 0x1 SWAP1 POP PUSH1 0x40 MLOAD DUP1 PUSH2 0x140 ADD PUSH1 0x40 MSTORE DUP1 PUSH1 0x2 SLOAD DUP2 MSTORE PUSH1 0x20 ADD PUSH1 0x0 DUP2 MSTORE PUSH1 0x20 ADD DUP7 DUP2 MSTORE PUSH1 0x20 ADD DUP6 DUP2 MSTORE PUSH1 0x20 ADD DUP5 DUP2 MSTORE PUSH1 0x20 ADD DUP4 DUP2 MSTORE PUSH1 0x20 ADD PUSH1 0x0 DUP2 MSTORE PUSH1 0x20 ADD DUP3 ISZERO ISZERO DUP2 MSTORE PUSH1 0x20 ADD CALLER PUSH20 0xFFFFFFFFFFFFFFFFFFFFFFFFFFFFFFFFFFFFFFFF AND DUP2 MSTORE PUSH1 0x20 ADD PUSH1 0x0 PUSH20 0xFFFFFFFFFFFFFFFFFFFFFFFFFFFFFFFFFFFFFFFF AND DUP2 MSTORE POP PUSH1 0x5 PUSH1 0x0 PUSH1 0x2 SLOAD DUP2 MSTORE PUSH1 0x20 ADD SWAP1 DUP2 MSTORE PUSH1 0x20 ADD PUSH1 0x0 KECCAK256 PUSH1 0x0 DUP3 ADD MLOAD DUP2 PUSH1 0x0 ADD SSTORE PUSH1 0x20 DUP3 ADD MLOAD DUP2 PUSH1 0x1 ADD SSTORE PUSH1 0x40 DUP3 ADD MLOAD DUP2 PUSH1 0x2 ADD SWAP1 DUP2 PUSH2 0x149A SWAP2 SWAP1 PUSH2 0x265A JUMP JUMPDEST POP PUSH1 0x60 DUP3 ADD MLOAD DUP2 PUSH1 0x3 ADD SWAP1 DUP2 PUSH2 0x14B0 SWAP2 SWAP1 PUSH2 0x265A JUMP JUMPDEST POP PUSH1 0x80 DUP3 ADD MLOAD DUP2 PUSH1 0x4 ADD SSTORE PUSH1 0xA0 DUP3 ADD MLOAD DUP2 PUSH1 0x5 ADD SSTORE PUSH1 0xC0 DUP3 ADD MLOAD DUP2 PUSH1 0x6 ADD SSTORE PUSH1 0xE0 DUP3 ADD MLOAD DUP2 PUSH1 0x7 ADD PUSH1 0x0 PUSH2 0x100 EXP DUP2 SLOAD DUP2 PUSH1 0xFF MUL NOT AND SWAP1 DUP4 ISZERO ISZERO MUL OR SWAP1 SSTORE POP PUSH2 0x100 DUP3 ADD MLOAD DUP2 PUSH1 0x7 ADD PUSH1 0x1 PUSH2 0x100 EXP DUP2 SLOAD DUP2 PUSH20 0xFFFFFFFFFFFFFFFFFFFFFFFFFFFFFFFFFFFFFFFF MUL NOT AND SWAP1 DUP4 PUSH20 0xFFFFFFFFFFFFFFFFFFFFFFFFFFFFFFFFFFFFFFFF AND MUL OR SWAP1 SSTORE POP PUSH2 0x120 DUP3 ADD MLOAD DUP2 PUSH1 0x8 ADD PUSH1 0x0 PUSH2 0x100 EXP DUP2 SLOAD DUP2 PUSH20 0xFFFFFFFFFFFFFFFFFFFFFFFFFFFFFFFFFFFFFFFF MUL NOT AND SWAP1 DUP4 PUSH20 0xFFFFFFFFFFFFFFFFFFFFFFFFFFFFFFFFFFFFFFFF AND MUL OR SWAP1 SSTORE POP SWAP1 POP POP POP POP POP POP POP JUMP JUMPDEST PUSH1 0x4 SLOAD DUP2 JUMP JUMPDEST PUSH1 0x7 PUSH1 0x20 MSTORE DUP1 PUSH1 0x0 MSTORE PUSH1 0x40 PUSH1 0x0 KECCAK256 PUSH1 0x0 SWAP2 POP SWAP1 POP DUP1 PUSH1 0x0 ADD SLOAD SWAP1 DUP1 PUSH1 0x1 ADD SLOAD SWAP1 DUP1 PUSH1 0x2 ADD SLOAD SWAP1 DUP1 PUSH1 0x3 ADD DUP1 SLOAD PUSH2 0x15C4 SWAP1 PUSH2 0x228E JUMP JUMPDEST DUP1 PUSH1 0x1F ADD PUSH1 0x20 DUP1 SWAP2 DIV MUL PUSH1 0x20 ADD PUSH1 0x40 MLOAD SWAP1 DUP2 ADD PUSH1 0x40 MSTORE DUP1 SWAP3 SWAP2 SWAP1 DUP2 DUP2 MSTORE PUSH1 0x20 ADD DUP3 DUP1 SLOAD PUSH2 0x15F0 SWAP1 PUSH2 0x228E JUMP JUMPDEST DUP1 ISZERO PUSH2 0x163D JUMPI DUP1 PUSH1 0x1F LT PUSH2 0x1612 JUMPI PUSH2 0x100 DUP1 DUP4 SLOAD DIV MUL DUP4 MSTORE SWAP2 PUSH1 0x20 ADD SWAP2 PUSH2 0x163D JUMP JUMPDEST DUP3 ADD SWAP2 SWAP1 PUSH1 0x0 MSTORE PUSH1 0x20 PUSH1 0x0 KECCAK256 SWAP1 JUMPDEST DUP2 SLOAD DUP2 MSTORE SWAP1 PUSH1 0x1 ADD SWAP1 PUSH1 0x20 ADD DUP1 DUP4 GT PUSH2 0x1620 JUMPI DUP3 SWAP1 SUB PUSH1 0x1F AND DUP3 ADD SWAP2 JUMPDEST POP POP POP POP POP SWAP1 DUP1 PUSH1 0x4 ADD DUP1 SLOAD PUSH2 0x1652 SWAP1 PUSH2 0x228E JUMP JUMPDEST DUP1 PUSH1 0x1F ADD PUSH1 0x20 DUP1 SWAP2 DIV MUL PUSH1 0x20 ADD PUSH1 0x40 MLOAD SWAP1 DUP2 ADD PUSH1 0x40 MSTORE DUP1 SWAP3 SWAP2 SWAP1 DUP2 DUP2 MSTORE PUSH1 0x20 ADD DUP3 DUP1 SLOAD PUSH2 0x167E SWAP1 PUSH2 0x228E JUMP JUMPDEST DUP1 ISZERO PUSH2 0x16CB JUMPI DUP1 PUSH1 0x1F LT PUSH2 0x16A0 JUMPI PUSH2 0x100 DUP1 DUP4 SLOAD DIV MUL DUP4 MSTORE SWAP2 PUSH1 0x20 ADD SWAP2 PUSH2 0x16CB JUMP JUMPDEST DUP3 ADD SWAP2 SWAP1 PUSH1 0x0 MSTORE PUSH1 0x20 PUSH1 0x0 KECCAK256 SWAP1 JUMPDEST DUP2 SLOAD DUP2 MSTORE SWAP1 PUSH1 0x1 ADD SWAP1 PUSH1 0x20 ADD DUP1 DUP4 GT PUSH2 0x16AE JUMPI DUP3 SWAP1 SUB PUSH1 0x1F AND DUP3 ADD SWAP2 JUMPDEST POP POP POP POP POP SWAP1 DUP1 PUSH1 0x5 ADD SLOAD SWAP1 DUP1 PUSH1 0x6 ADD SLOAD SWAP1 DUP1 PUSH1 0x7 ADD PUSH1 0x0 SWAP1 SLOAD SWAP1 PUSH2 0x100 EXP SWAP1 DIV PUSH20 0xFFFFFFFFFFFFFFFFFFFFFFFFFFFFFFFFFFFFFFFF AND SWAP1 DUP1 PUSH1 0x8 ADD PUSH1 0x0 SWAP1 SLOAD SWAP1 PUSH2 0x100 EXP SWAP1 DIV PUSH20 0xFFFFFFFFFFFFFFFFFFFFFFFFFFFFFFFFFFFFFFFF AND SWAP1 POP DUP10 JUMP JUMPDEST DUP1 PUSH1 0x5 PUSH1 0x0 DUP3 DUP2 MSTORE PUSH1 0x20 ADD SWAP1 DUP2 MSTORE PUSH1 0x20 ADD PUSH1 0x0 KECCAK256 PUSH1 0x8 ADD PUSH1 0x0 SWAP1 SLOAD SWAP1 PUSH2 0x100 EXP SWAP1 DIV PUSH20 0xFFFFFFFFFFFFFFFFFFFFFFFFFFFFFFFFFFFFFFFF AND PUSH20 0xFFFFFFFFFFFFFFFFFFFFFFFFFFFFFFFFFFFFFFFF AND CALLER PUSH20 0xFFFFFFFFFFFFFFFFFFFFFFFFFFFFFFFFFFFFFFFF AND EQ PUSH2 0x17D2 JUMPI PUSH1 0x40 MLOAD PUSH32 0x8C379A000000000000000000000000000000000000000000000000000000000 DUP2 MSTORE PUSH1 0x4 ADD PUSH2 0x17C9 SWAP1 PUSH2 0x28E2 JUMP JUMPDEST PUSH1 0x40 MLOAD DUP1 SWAP2 SUB SWAP1 REVERT JUMPDEST DUP2 PUSH1 0x0 PUSH3 0x278D00 PUSH1 0x5 PUSH1 0x0 DUP5 DUP2 MSTORE PUSH1 0x20 ADD SWAP1 DUP2 MSTORE PUSH1 0x20 ADD PUSH1 0x0 KECCAK256 PUSH1 0x6 ADD SLOAD PUSH2 0x17FA SWAP2 SWAP1 PUSH2 0x235A JUMP JUMPDEST SWAP1 POP DUP1 TIMESTAMP LT ISZERO PUSH2 0x183F JUMPI PUSH1 0x40 MLOAD PUSH32 0x8C379A000000000000000000000000000000000000000000000000000000000 DUP2 MSTORE PUSH1 0x4 ADD PUSH2 0x1836 SWAP1 PUSH2 0x294E JUMP JUMPDEST PUSH1 0x40 MLOAD DUP1 SWAP2 SUB SWAP1 REVERT JUMPDEST DUP4 PUSH1 0x5 PUSH1 0x0 DUP3 DUP2 MSTORE PUSH1 0x20 ADD SWAP1 DUP2 MSTORE PUSH1 0x20 ADD PUSH1 0x0 KECCAK256 PUSH1 0x4 ADD SLOAD CALLVALUE LT ISZERO PUSH2 0x1899 JUMPI PUSH1 0x40 MLOAD PUSH32 0x8C379A000000000000000000000000000000000000000000000000000000000 DUP2 MSTORE PUSH1 0x4 ADD PUSH2 0x1890 SWAP1 PUSH2 0x23DA JUMP JUMPDEST PUSH1 0x40 MLOAD DUP1 SWAP2 SUB SWAP1 REVERT JUMPDEST PUSH1 0x0 PUSH20 0xFFFFFFFFFFFFFFFFFFFFFFFFFFFFFFFFFFFFFFFF AND CALLER PUSH20 0xFFFFFFFFFFFFFFFFFFFFFFFFFFFFFFFFFFFFFFFF AND SUB PUSH2 0x18D2 JUMPI PUSH1 0x0 DUP1 REVERT JUMPDEST PUSH1 0x0 PUSH1 0x5 PUSH1 0x0 DUP8 DUP2 MSTORE PUSH1 0x20 ADD SWAP1 DUP2 MSTORE PUSH1 0x20 ADD PUSH1 0x0 KECCAK256 PUSH1 0x7 ADD PUSH1 0x1 SWAP1 SLOAD SWAP1 PUSH2 0x100 EXP SWAP1 DIV PUSH20 0xFFFFFFFFFFFFFFFFFFFFFFFFFFFFFFFFFFFFFFFF AND SWAP1 POP PUSH1 0x0 PUSH1 0x5 PUSH1 0x0 DUP9 DUP2 MSTORE PUSH1 0x20 ADD SWAP1 DUP2 MSTORE PUSH1 0x20 ADD PUSH1 0x0 KECCAK256 PUSH1 0x4 ADD SLOAD SWAP1 POP DUP2 PUSH20 0xFFFFFFFFFFFFFFFFFFFFFFFFFFFFFFFFFFFFFFFF AND PUSH2 0x8FC DUP3 SWAP1 DUP2 ISZERO MUL SWAP1 PUSH1 0x40 MLOAD PUSH1 0x0 PUSH1 0x40 MLOAD DUP1 DUP4 SUB DUP2 DUP6 DUP9 DUP9 CALL SWAP4 POP POP POP POP ISZERO DUP1 ISZERO PUSH2 0x196E JUMPI RETURNDATASIZE PUSH1 0x0 DUP1 RETURNDATACOPY RETURNDATASIZE PUSH1 0x0 REVERT JUMPDEST POP CALLER PUSH1 0x5 PUSH1 0x0 DUP10 DUP2 MSTORE PUSH1 0x20 ADD SWAP1 DUP2 MSTORE PUSH1 0x20 ADD PUSH1 0x0 KECCAK256 PUSH1 0x8 ADD PUSH1 0x0 PUSH2 0x100 EXP DUP2 SLOAD DUP2 PUSH20 0xFFFFFFFFFFFFFFFFFFFFFFFFFFFFFFFFFFFFFFFF MUL NOT AND SWAP1 DUP4 PUSH20 0xFFFFFFFFFFFFFFFFFFFFFFFFFFFFFFFFFFFFFFFF AND MUL OR SWAP1 SSTORE POP PUSH1 0x0 PUSH1 0x5 PUSH1 0x0 DUP10 DUP2 MSTORE PUSH1 0x20 ADD SWAP1 DUP2 MSTORE PUSH1 0x20 ADD PUSH1 0x0 KECCAK256 PUSH1 0x7 ADD PUSH1 0x0 PUSH2 0x100 EXP DUP2 SLOAD DUP2 PUSH1 0xFF MUL NOT AND SWAP1 DUP4 ISZERO ISZERO MUL OR SWAP1 SSTORE POP PUSH1 0x4 PUSH1 0x0 DUP2 SLOAD DUP1 SWAP3 SWAP2 SWAP1 PUSH2 0x1A06 SWAP1 PUSH2 0x2466 JUMP JUMPDEST SWAP2 SWAP1 POP SSTORE POP PUSH1 0x40 MLOAD DUP1 PUSH2 0x120 ADD PUSH1 0x40 MSTORE DUP1 PUSH1 0x4 SLOAD DUP2 MSTORE PUSH1 0x20 ADD DUP9 DUP2 MSTORE PUSH1 0x20 ADD PUSH1 0x5 PUSH1 0x0 DUP11 DUP2 MSTORE PUSH1 0x20 ADD SWAP1 DUP2 MSTORE PUSH1 0x20 ADD PUSH1 0x0 KECCAK256 PUSH1 0x1 ADD SLOAD DUP2 MSTORE PUSH1 0x20 ADD PUSH1 0x5 PUSH1 0x0 DUP11 DUP2 MSTORE PUSH1 0x20 ADD SWAP1 DUP2 MSTORE PUSH1 0x20 ADD PUSH1 0x0 KECCAK256 PUSH1 0x2 ADD DUP1 SLOAD PUSH2 0x1A62 SWAP1 PUSH2 0x228E JUMP JUMPDEST DUP1 PUSH1 0x1F ADD PUSH1 0x20 DUP1 SWAP2 DIV MUL PUSH1 0x20 ADD PUSH1 0x40 MLOAD SWAP1 DUP2 ADD PUSH1 0x40 MSTORE DUP1 SWAP3 SWAP2 SWAP1 DUP2 DUP2 MSTORE PUSH1 0x20 ADD DUP3 DUP1 SLOAD PUSH2 0x1A8E SWAP1 PUSH2 0x228E JUMP JUMPDEST DUP1 ISZERO PUSH2 0x1ADB JUMPI DUP1 PUSH1 0x1F LT PUSH2 0x1AB0 JUMPI PUSH2 0x100 DUP1 DUP4 SLOAD DIV MUL DUP4 MSTORE SWAP2 PUSH1 0x20 ADD SWAP2 PUSH2 0x1ADB JUMP JUMPDEST DUP3 ADD SWAP2 SWAP1 PUSH1 0x0 MSTORE PUSH1 0x20 PUSH1 0x0 KECCAK256 SWAP1 JUMPDEST DUP2 SLOAD DUP2 MSTORE SWAP1 PUSH1 0x1 ADD SWAP1 PUSH1 0x20 ADD DUP1 DUP4 GT PUSH2 0x1ABE JUMPI DUP3 SWAP1 SUB PUSH1 0x1F AND DUP3 ADD SWAP2 JUMPDEST POP POP POP POP POP DUP2 MSTORE PUSH1 0x20 ADD PUSH1 0x5 PUSH1 0x0 DUP11 DUP2 MSTORE PUSH1 0x20 ADD SWAP1 DUP2 MSTORE PUSH1 0x20 ADD PUSH1 0x0 KECCAK256 PUSH1 0x3 ADD DUP1 SLOAD PUSH2 0x1B06 SWAP1 PUSH2 0x228E JUMP JUMPDEST DUP1 PUSH1 0x1F ADD PUSH1 0x20 DUP1 SWAP2 DIV MUL PUSH1 0x20 ADD PUSH1 0x40 MLOAD SWAP1 DUP2 ADD PUSH1 0x40 MSTORE DUP1 SWAP3 SWAP2 SWAP1 DUP2 DUP2 MSTORE PUSH1 0x20 ADD DUP3 DUP1 SLOAD PUSH2 0x1B32 SWAP1 PUSH2 0x228E JUMP JUMPDEST DUP1 ISZERO PUSH2 0x1B7F JUMPI DUP1 PUSH1 0x1F LT PUSH2 0x1B54 JUMPI PUSH2 0x100 DUP1 DUP4 SLOAD DIV MUL DUP4 MSTORE SWAP2 PUSH1 0x20 ADD SWAP2 PUSH2 0x1B7F JUMP JUMPDEST DUP3 ADD SWAP2 SWAP1 PUSH1 0x0 MSTORE PUSH1 0x20 PUSH1 0x0 KECCAK256 SWAP1 JUMPDEST DUP2 SLOAD DUP2 MSTORE SWAP1 PUSH1 0x1 ADD SWAP1 PUSH1 0x20 ADD DUP1 DUP4 GT PUSH2 0x1B62 JUMPI DUP3 SWAP1 SUB PUSH1 0x1F AND DUP3 ADD SWAP2 JUMPDEST POP POP POP POP POP DUP2 MSTORE PUSH1 0x20 ADD DUP3 DUP2 MSTORE PUSH1 0x20 ADD TIMESTAMP DUP2 MSTORE PUSH1 0x20 ADD CALLER PUSH20 0xFFFFFFFFFFFFFFFFFFFFFFFFFFFFFFFFFFFFFFFF AND DUP2 MSTORE PUSH1 0x20 ADD PUSH1 0x5 PUSH1 0x0 DUP11 DUP2 MSTORE PUSH1 0x20 ADD SWAP1 DUP2 MSTORE PUSH1 0x20 ADD PUSH1 0x0 KECCAK256 PUSH1 0x7 ADD PUSH1 0x1 SWAP1 SLOAD SWAP1 PUSH2 0x100 EXP SWAP1 DIV PUSH20 0xFFFFFFFFFFFFFFFFFFFFFFFFFFFFFFFFFFFFFFFF AND PUSH20 0xFFFFFFFFFFFFFFFFFFFFFFFFFFFFFFFFFFFFFFFF AND DUP2 MSTORE POP PUSH1 0x7 PUSH1 0x0 PUSH1 0x4 SLOAD DUP2 MSTORE PUSH1 0x20 ADD SWAP1 DUP2 MSTORE PUSH1 0x20 ADD PUSH1 0x0 KECCAK256 PUSH1 0x0 DUP3 ADD MLOAD DUP2 PUSH1 0x0 ADD SSTORE PUSH1 0x20 DUP3 ADD MLOAD DUP2 PUSH1 0x1 ADD SSTORE PUSH1 0x40 DUP3 ADD MLOAD DUP2 PUSH1 0x2 ADD SSTORE PUSH1 0x60 DUP3 ADD MLOAD DUP2 PUSH1 0x3 ADD SWAP1 DUP2 PUSH2 0x1C49 SWAP2 SWAP1 PUSH2 0x265A JUMP JUMPDEST POP PUSH1 0x80 DUP3 ADD MLOAD DUP2 PUSH1 0x4 ADD SWAP1 DUP2 PUSH2 0x1C5F SWAP2 SWAP1 PUSH2 0x265A JUMP JUMPDEST POP PUSH1 0xA0 DUP3 ADD MLOAD DUP2 PUSH1 0x5 ADD SSTORE PUSH1 0xC0 DUP3 ADD MLOAD DUP2 PUSH1 0x6 ADD SSTORE PUSH1 0xE0 DUP3 ADD MLOAD DUP2 PUSH1 0x7 ADD PUSH1 0x0 PUSH2 0x100 EXP DUP2 SLOAD DUP2 PUSH20 0xFFFFFFFFFFFFFFFFFFFFFFFFFFFFFFFFFFFFFFFF MUL NOT AND SWAP1 DUP4 PUSH20 0xFFFFFFFFFFFFFFFFFFFFFFFFFFFFFFFFFFFFFFFF AND MUL OR SWAP1 SSTORE POP PUSH2 0x100 DUP3 ADD MLOAD DUP2 PUSH1 0x8 ADD PUSH1 0x0 PUSH2 0x100 EXP DUP2 SLOAD DUP2 PUSH20 0xFFFFFFFFFFFFFFFFFFFFFFFFFFFFFFFFFFFFFFFF MUL NOT AND SWAP1 DUP4 PUSH20 0xFFFFFFFFFFFFFFFFFFFFFFFFFFFFFFFFFFFFFFFF AND MUL OR SWAP1 SSTORE POP SWAP1 POP POP POP POP POP POP POP POP POP JUMP JUMPDEST PUSH1 0x0 PUSH1 0x40 MLOAD SWAP1 POP SWAP1 JUMP JUMPDEST PUSH1 0x0 DUP1 REVERT JUMPDEST PUSH1 0x0 DUP1 REVERT JUMPDEST PUSH1 0x0 DUP2 SWAP1 POP SWAP2 SWAP1 POP JUMP JUMPDEST PUSH2 0x1D36 DUP2 PUSH2 0x1D23 JUMP JUMPDEST DUP2 EQ PUSH2 0x1D41 JUMPI PUSH1 0x0 DUP1 REVERT JUMPDEST POP JUMP JUMPDEST PUSH1 0x0 DUP2 CALLDATALOAD SWAP1 POP PUSH2 0x1D53 DUP2 PUSH2 0x1D2D JUMP JUMPDEST SWAP3 SWAP2 POP POP JUMP JUMPDEST PUSH1 0x0 PUSH1 0x20 DUP3 DUP5 SUB SLT ISZERO PUSH2 0x1D6F JUMPI PUSH2 0x1D6E PUSH2 0x1D19 JUMP JUMPDEST JUMPDEST PUSH1 0x0 PUSH2 0x1D7D DUP5 DUP3 DUP6 ADD PUSH2 0x1D44 JUMP JUMPDEST SWAP2 POP POP SWAP3 SWAP2 POP POP JUMP JUMPDEST PUSH2 0x1D8F DUP2 PUSH2 0x1D23 JUMP JUMPDEST DUP3 MSTORE POP POP JUMP JUMPDEST PUSH1 0x0 DUP2 MLOAD SWAP1 POP SWAP2 SWAP1 POP JUMP JUMPDEST PUSH1 0x0 DUP3 DUP3 MSTORE PUSH1 0x20 DUP3 ADD SWAP1 POP SWAP3 SWAP2 POP POP JUMP JUMPDEST PUSH1 0x0 JUMPDEST DUP4 DUP2 LT ISZERO PUSH2 0x1DCF JUMPI DUP1 DUP3 ADD MLOAD DUP2 DUP5 ADD MSTORE PUSH1 0x20 DUP2 ADD SWAP1 POP PUSH2 0x1DB4 JUMP JUMPDEST PUSH1 0x0 DUP5 DUP5 ADD MSTORE POP POP POP POP JUMP JUMPDEST PUSH1 0x0 PUSH1 0x1F NOT PUSH1 0x1F DUP4 ADD AND SWAP1 POP SWAP2 SWAP1 POP JUMP JUMPDEST PUSH1 0x0 PUSH2 0x1DF7 DUP3 PUSH2 0x1D95 JUMP JUMPDEST PUSH2 0x1E01 DUP2 DUP6 PUSH2 0x1DA0 JUMP JUMPDEST SWAP4 POP PUSH2 0x1E11 DUP2 DUP6 PUSH1 0x20 DUP7 ADD PUSH2 0x1DB1 JUMP JUMPDEST PUSH2 0x1E1A DUP2 PUSH2 0x1DDB JUMP JUMPDEST DUP5 ADD SWAP2 POP POP SWAP3 SWAP2 POP POP JUMP JUMPDEST PUSH1 0x0 PUSH20 0xFFFFFFFFFFFFFFFFFFFFFFFFFFFFFFFFFFFFFFFF DUP3 AND SWAP1 POP SWAP2 SWAP1 POP JUMP JUMPDEST PUSH1 0x0 PUSH2 0x1E50 DUP3 PUSH2 0x1E25 JUMP JUMPDEST SWAP1 POP SWAP2 SWAP1 POP JUMP JUMPDEST PUSH2 0x1E60 DUP2 PUSH2 0x1E45 JUMP JUMPDEST DUP3 MSTORE POP POP JUMP JUMPDEST PUSH1 0x0 PUSH2 0x140 DUP3 ADD SWAP1 POP PUSH2 0x1E7C PUSH1 0x0 DUP4 ADD DUP14 PUSH2 0x1D86 JUMP JUMPDEST PUSH2 0x1E89 PUSH1 0x20 DUP4 ADD DUP13 PUSH2 0x1D86 JUMP JUMPDEST DUP2 DUP2 SUB PUSH1 0x40 DUP4 ADD MSTORE PUSH2 0x1E9B DUP2 DUP12 PUSH2 0x1DEC JUMP JUMPDEST SWAP1 POP DUP2 DUP2 SUB PUSH1 0x60 DUP4 ADD MSTORE PUSH2 0x1EAF DUP2 DUP11 PUSH2 0x1DEC JUMP JUMPDEST SWAP1 POP PUSH2 0x1EBE PUSH1 0x80 DUP4 ADD DUP10 PUSH2 0x1D86 JUMP JUMPDEST PUSH2 0x1ECB PUSH1 0xA0 DUP4 ADD DUP9 PUSH2 0x1D86 JUMP JUMPDEST PUSH2 0x1ED8 PUSH1 0xC0 DUP4 ADD DUP8 PUSH2 0x1D86 JUMP JUMPDEST PUSH2 0x1EE5 PUSH1 0xE0 DUP4 ADD DUP7 PUSH2 0x1D86 JUMP JUMPDEST PUSH2 0x1EF3 PUSH2 0x100 DUP4 ADD DUP6 PUSH2 0x1E57 JUMP JUMPDEST PUSH2 0x1F01 PUSH2 0x120 DUP4 ADD DUP5 PUSH2 0x1E57 JUMP JUMPDEST SWAP12 SWAP11 POP POP POP POP POP POP POP POP POP POP POP JUMP JUMPDEST PUSH1 0x0 PUSH1 0x20 DUP3 ADD SWAP1 POP PUSH2 0x1F25 PUSH1 0x0 DUP4 ADD DUP5 PUSH2 0x1D86 JUMP JUMPDEST SWAP3 SWAP2 POP POP JUMP JUMPDEST PUSH1 0x0 DUP2 ISZERO ISZERO SWAP1 POP SWAP2 SWAP1 POP JUMP JUMPDEST PUSH2 0x1F40 DUP2 PUSH2 0x1F2B JUMP JUMPDEST DUP3 MSTORE POP POP JUMP JUMPDEST PUSH1 0x0 PUSH2 0x140 DUP3 ADD SWAP1 POP PUSH2 0x1F5C PUSH1 0x0 DUP4 ADD DUP14 PUSH2 0x1D86 JUMP JUMPDEST PUSH2 0x1F69 PUSH1 0x20 DUP4 ADD DUP13 PUSH2 0x1D86 JUMP JUMPDEST DUP2 DUP2 SUB PUSH1 0x40 DUP4 ADD MSTORE PUSH2 0x1F7B DUP2 DUP12 PUSH2 0x1DEC JUMP JUMPDEST SWAP1 POP DUP2 DUP2 SUB PUSH1 0x60 DUP4 ADD MSTORE PUSH2 0x1F8F DUP2 DUP11 PUSH2 0x1DEC JUMP JUMPDEST SWAP1 POP PUSH2 0x1F9E PUSH1 0x80 DUP4 ADD DUP10 PUSH2 0x1D86 JUMP JUMPDEST PUSH2 0x1FAB PUSH1 0xA0 DUP4 ADD DUP9 PUSH2 0x1D86 JUMP JUMPDEST PUSH2 0x1FB8 PUSH1 0xC0 DUP4 ADD DUP8 PUSH2 0x1D86 JUMP JUMPDEST PUSH2 0x1FC5 PUSH1 0xE0 DUP4 ADD DUP7 PUSH2 0x1F37 JUMP JUMPDEST PUSH2 0x1FD3 PUSH2 0x100 DUP4 ADD DUP6 PUSH2 0x1E57 JUMP JUMPDEST PUSH2 0x1FE1 PUSH2 0x120 DUP4 ADD DUP5 PUSH2 0x1E57 JUMP JUMPDEST SWAP12 SWAP11 POP POP POP POP POP POP POP POP POP POP POP JUMP JUMPDEST PUSH1 0x0 DUP1 REVERT JUMPDEST PUSH1 0x0 DUP1 REVERT JUMPDEST PUSH32 0x4E487B7100000000000000000000000000000000000000000000000000000000 PUSH1 0x0 MSTORE PUSH1 0x41 PUSH1 0x4 MSTORE PUSH1 0x24 PUSH1 0x0 REVERT JUMPDEST PUSH2 0x2032 DUP3 PUSH2 0x1DDB JUMP JUMPDEST DUP2 ADD DUP2 DUP2 LT PUSH8 0xFFFFFFFFFFFFFFFF DUP3 GT OR ISZERO PUSH2 0x2051 JUMPI PUSH2 0x2050 PUSH2 0x1FFA JUMP JUMPDEST JUMPDEST DUP1 PUSH1 0x40 MSTORE POP POP POP JUMP JUMPDEST PUSH1 0x0 PUSH2 0x2064 PUSH2 0x1D0F JUMP JUMPDEST SWAP1 POP PUSH2 0x2070 DUP3 DUP3 PUSH2 0x2029 JUMP JUMPDEST SWAP2 SWAP1 POP JUMP JUMPDEST PUSH1 0x0 PUSH8 0xFFFFFFFFFFFFFFFF DUP3 GT ISZERO PUSH2 0x2090 JUMPI PUSH2 0x208F PUSH2 0x1FFA JUMP JUMPDEST JUMPDEST PUSH2 0x2099 DUP3 PUSH2 0x1DDB JUMP JUMPDEST SWAP1 POP PUSH1 0x20 DUP2 ADD SWAP1 POP SWAP2 SWAP1 POP JUMP JUMPDEST DUP3 DUP2 DUP4 CALLDATACOPY PUSH1 0x0 DUP4 DUP4 ADD MSTORE POP POP POP JUMP JUMPDEST PUSH1 0x0 PUSH2 0x20C8 PUSH2 0x20C3 DUP5 PUSH2 0x2075 JUMP JUMPDEST PUSH2 0x205A JUMP JUMPDEST SWAP1 POP DUP3 DUP2 MSTORE PUSH1 0x20 DUP2 ADD DUP5 DUP5 DUP5 ADD GT ISZERO PUSH2 0x20E4 JUMPI PUSH2 0x20E3 PUSH2 0x1FF5 JUMP JUMPDEST JUMPDEST PUSH2 0x20EF DUP5 DUP3 DUP6 PUSH2 0x20A6 JUMP JUMPDEST POP SWAP4 SWAP3 POP POP POP JUMP JUMPDEST PUSH1 0x0 DUP3 PUSH1 0x1F DUP4 ADD SLT PUSH2 0x210C JUMPI PUSH2 0x210B PUSH2 0x1FF0 JUMP JUMPDEST JUMPDEST DUP2 CALLDATALOAD PUSH2 0x211C DUP5 DUP3 PUSH1 0x20 DUP7 ADD PUSH2 0x20B5 JUMP JUMPDEST SWAP2 POP POP SWAP3 SWAP2 POP POP JUMP JUMPDEST PUSH1 0x0 DUP1 PUSH1 0x0 DUP1 PUSH1 0x80 DUP6 DUP8 SUB SLT ISZERO PUSH2 0x213F JUMPI PUSH2 0x213E PUSH2 0x1D19 JUMP JUMPDEST JUMPDEST PUSH1 0x0 DUP6 ADD CALLDATALOAD PUSH8 0xFFFFFFFFFFFFFFFF DUP2 GT ISZERO PUSH2 0x215D JUMPI PUSH2 0x215C PUSH2 0x1D1E JUMP JUMPDEST JUMPDEST PUSH2 0x2169 DUP8 DUP3 DUP9 ADD PUSH2 0x20F7 JUMP JUMPDEST SWAP5 POP POP PUSH1 0x20 DUP6 ADD CALLDATALOAD PUSH8 0xFFFFFFFFFFFFFFFF DUP2 GT ISZERO PUSH2 0x218A JUMPI PUSH2 0x2189 PUSH2 0x1D1E JUMP JUMPDEST JUMPDEST PUSH2 0x2196 DUP8 DUP3 DUP9 ADD PUSH2 0x20F7 JUMP JUMPDEST SWAP4 POP POP PUSH1 0x40 PUSH2 0x21A7 DUP8 DUP3 DUP9 ADD PUSH2 0x1D44 JUMP JUMPDEST SWAP3 POP POP PUSH1 0x60 PUSH2 0x21B8 DUP8 DUP3 DUP9 ADD PUSH2 0x1D44 JUMP JUMPDEST SWAP2 POP POP SWAP3 SWAP6 SWAP2 SWAP5 POP SWAP3 POP JUMP JUMPDEST PUSH1 0x0 PUSH2 0x120 DUP3 ADD SWAP1 POP PUSH2 0x21DA PUSH1 0x0 DUP4 ADD DUP13 PUSH2 0x1D86 JUMP JUMPDEST PUSH2 0x21E7 PUSH1 0x20 DUP4 ADD DUP12 PUSH2 0x1D86 JUMP JUMPDEST PUSH2 0x21F4 PUSH1 0x40 DUP4 ADD DUP11 PUSH2 0x1D86 JUMP JUMPDEST DUP2 DUP2 SUB PUSH1 0x60 DUP4 ADD MSTORE PUSH2 0x2206 DUP2 DUP10 PUSH2 0x1DEC JUMP JUMPDEST SWAP1 POP DUP2 DUP2 SUB PUSH1 0x80 DUP4 ADD MSTORE PUSH2 0x221A DUP2 DUP9 PUSH2 0x1DEC JUMP JUMPDEST SWAP1 POP PUSH2 0x2229 PUSH1 0xA0 DUP4 ADD DUP8 PUSH2 0x1D86 JUMP JUMPDEST PUSH2 0x2236 PUSH1 0xC0 DUP4 ADD DUP7 PUSH2 0x1D86 JUMP JUMPDEST PUSH2 0x2243 PUSH1 0xE0 DUP4 ADD DUP6 PUSH2 0x1E57 JUMP JUMPDEST PUSH2 0x2251 PUSH2 0x100 DUP4 ADD DUP5 PUSH2 0x1E57 JUMP JUMPDEST SWAP11 SWAP10 POP POP POP POP POP POP POP POP POP POP JUMP JUMPDEST PUSH32 0x4E487B7100000000000000000000000000000000000000000000000000000000 PUSH1 0x0 MSTORE PUSH1 0x22 PUSH1 0x4 MSTORE PUSH1 0x24 PUSH1 0x0 REVERT JUMPDEST PUSH1 0x0 PUSH1 0x2 DUP3 DIV SWAP1 POP PUSH1 0x1 DUP3 AND DUP1 PUSH2 0x22A6 JUMPI PUSH1 0x7F DUP3 AND SWAP2 POP JUMPDEST PUSH1 0x20 DUP3 LT DUP2 SUB PUSH2 0x22B9 JUMPI PUSH2 0x22B8 PUSH2 0x225F JUMP JUMPDEST JUMPDEST POP SWAP2 SWAP1 POP JUMP JUMPDEST PUSH32 0x4F6E6C792054656E616E742063616E2061636365737320746869730000000000 PUSH1 0x0 DUP3 ADD MSTORE POP JUMP JUMPDEST PUSH1 0x0 PUSH2 0x22F5 PUSH1 0x1B DUP4 PUSH2 0x1DA0 JUMP JUMPDEST SWAP2 POP PUSH2 0x2300 DUP3 PUSH2 0x22BF JUMP JUMPDEST PUSH1 0x20 DUP3 ADD SWAP1 POP SWAP2 SWAP1 POP JUMP JUMPDEST PUSH1 0x0 PUSH1 0x20 DUP3 ADD SWAP1 POP DUP2 DUP2 SUB PUSH1 0x0 DUP4 ADD MSTORE PUSH2 0x2324 DUP2 PUSH2 0x22E8 JUMP JUMPDEST SWAP1 POP SWAP2 SWAP1 POP JUMP JUMPDEST PUSH32 0x4E487B7100000000000000000000000000000000000000000000000000000000 PUSH1 0x0 MSTORE PUSH1 0x11 PUSH1 0x4 MSTORE PUSH1 0x24 PUSH1 0x0 REVERT JUMPDEST PUSH1 0x0 PUSH2 0x2365 DUP3 PUSH2 0x1D23 JUMP JUMPDEST SWAP2 POP PUSH2 0x2370 DUP4 PUSH2 0x1D23 JUMP JUMPDEST SWAP3 POP DUP3 DUP3 ADD SWAP1 POP DUP1 DUP3 GT ISZERO PUSH2 0x2388 JUMPI PUSH2 0x2387 PUSH2 0x232B JUMP JUMPDEST JUMPDEST SWAP3 SWAP2 POP POP JUMP JUMPDEST PUSH32 0x4E6F7420656E6F75676820457468657220696E20796F75722077616C6C657400 PUSH1 0x0 DUP3 ADD MSTORE POP JUMP JUMPDEST PUSH1 0x0 PUSH2 0x23C4 PUSH1 0x1F DUP4 PUSH2 0x1DA0 JUMP JUMPDEST SWAP2 POP PUSH2 0x23CF DUP3 PUSH2 0x238E JUMP JUMPDEST PUSH1 0x20 DUP3 ADD SWAP1 POP SWAP2 SWAP1 POP JUMP JUMPDEST PUSH1 0x0 PUSH1 0x20 DUP3 ADD SWAP1 POP DUP2 DUP2 SUB PUSH1 0x0 DUP4 ADD MSTORE PUSH2 0x23F3 DUP2 PUSH2 0x23B7 JUMP JUMPDEST SWAP1 POP SWAP2 SWAP1 POP JUMP JUMPDEST PUSH32 0x526F6F6D2069732063757272656E746C79204F636375706965642E0000000000 PUSH1 0x0 DUP3 ADD MSTORE POP JUMP JUMPDEST PUSH1 0x0 PUSH2 0x2430 PUSH1 0x1B DUP4 PUSH2 0x1DA0 JUMP JUMPDEST SWAP2 POP PUSH2 0x243B DUP3 PUSH2 0x23FA JUMP JUMPDEST PUSH1 0x20 DUP3 ADD SWAP1 POP SWAP2 SWAP1 POP JUMP JUMPDEST PUSH1 0x0 PUSH1 0x20 DUP3 ADD SWAP1 POP DUP2 DUP2 SUB PUSH1 0x0 DUP4 ADD MSTORE PUSH2 0x245F DUP2 PUSH2 0x2423 JUMP JUMPDEST SWAP1 POP SWAP2 SWAP1 POP JUMP JUMPDEST PUSH1 0x0 PUSH2 0x2471 DUP3 PUSH2 0x1D23 JUMP JUMPDEST SWAP2 POP PUSH32 0xFFFFFFFFFFFFFFFFFFFFFFFFFFFFFFFFFFFFFFFFFFFFFFFFFFFFFFFFFFFFFFFF DUP3 SUB PUSH2 0x24A3 JUMPI PUSH2 0x24A2 PUSH2 0x232B JUMP JUMPDEST JUMPDEST PUSH1 0x1 DUP3 ADD SWAP1 POP SWAP2 SWAP1 POP JUMP JUMPDEST PUSH1 0x0 DUP2 SWAP1 POP DUP2 PUSH1 0x0 MSTORE PUSH1 0x20 PUSH1 0x0 KECCAK256 SWAP1 POP SWAP2 SWAP1 POP JUMP JUMPDEST PUSH1 0x0 PUSH1 0x20 PUSH1 0x1F DUP4 ADD DIV SWAP1 POP SWAP2 SWAP1 POP JUMP JUMPDEST PUSH1 0x0 DUP3 DUP3 SHL SWAP1 POP SWAP3 SWAP2 POP POP JUMP JUMPDEST PUSH1 0x0 PUSH1 0x8 DUP4 MUL PUSH2 0x2510 PUSH32 0xFFFFFFFFFFFFFFFFFFFFFFFFFFFFFFFFFFFFFFFFFFFFFFFFFFFFFFFFFFFFFFFF DUP3 PUSH2 0x24D3 JUMP JUMPDEST PUSH2 0x251A DUP7 DUP4 PUSH2 0x24D3 JUMP JUMPDEST SWAP6 POP DUP1 NOT DUP5 AND SWAP4 POP DUP1 DUP7 AND DUP5 OR SWAP3 POP POP POP SWAP4 SWAP3 POP POP POP JUMP JUMPDEST PUSH1 0x0 DUP2 SWAP1 POP SWAP2 SWAP1 POP JUMP JUMPDEST PUSH1 0x0 PUSH2 0x2557 PUSH2 0x2552 PUSH2 0x254D DUP5 PUSH2 0x1D23 JUMP JUMPDEST PUSH2 0x2532 JUMP JUMPDEST PUSH2 0x1D23 JUMP JUMPDEST SWAP1 POP SWAP2 SWAP1 POP JUMP JUMPDEST PUSH1 0x0 DUP2 SWAP1 POP SWAP2 SWAP1 POP JUMP JUMPDEST PUSH2 0x2571 DUP4 PUSH2 0x253C JUMP JUMPDEST PUSH2 0x2585 PUSH2 0x257D DUP3 PUSH2 0x255E JUMP JUMPDEST DUP5 DUP5 SLOAD PUSH2 0x24E0 JUMP JUMPDEST DUP3 SSTORE POP POP POP POP JUMP JUMPDEST PUSH1 0x0 SWAP1 JUMP JUMPDEST PUSH2 0x259A PUSH2 0x258D JUMP JUMPDEST PUSH2 0x25A5 DUP2 DUP5 DUP5 PUSH2 0x2568 JUMP JUMPDEST POP POP POP JUMP JUMPDEST JUMPDEST DUP2 DUP2 LT ISZERO PUSH2 0x25C9 JUMPI PUSH2 0x25BE PUSH1 0x0 DUP3 PUSH2 0x2592 JUMP JUMPDEST PUSH1 0x1 DUP2 ADD SWAP1 POP PUSH2 0x25AB JUMP JUMPDEST POP POP JUMP JUMPDEST PUSH1 0x1F DUP3 GT ISZERO PUSH2 0x260E JUMPI PUSH2 0x25DF DUP2 PUSH2 0x24AE JUMP JUMPDEST PUSH2 0x25E8 DUP5 PUSH2 0x24C3 JUMP JUMPDEST DUP2 ADD PUSH1 0x20 DUP6 LT ISZERO PUSH2 0x25F7 JUMPI DUP2 SWAP1 POP JUMPDEST PUSH2 0x260B PUSH2 0x2603 DUP6 PUSH2 0x24C3 JUMP JUMPDEST DUP4 ADD DUP3 PUSH2 0x25AA JUMP JUMPDEST POP POP JUMPDEST POP POP POP JUMP JUMPDEST PUSH1 0x0 DUP3 DUP3 SHR SWAP1 POP SWAP3 SWAP2 POP POP JUMP JUMPDEST PUSH1 0x0 PUSH2 0x2631 PUSH1 0x0 NOT DUP5 PUSH1 0x8 MUL PUSH2 0x2613 JUMP JUMPDEST NOT DUP1 DUP4 AND SWAP2 POP POP SWAP3 SWAP2 POP POP JUMP JUMPDEST PUSH1 0x0 PUSH2 0x264A DUP4 DUP4 PUSH2 0x2620 JUMP JUMPDEST SWAP2 POP DUP3 PUSH1 0x2 MUL DUP3 OR SWAP1 POP SWAP3 SWAP2 POP POP JUMP JUMPDEST PUSH2 0x2663 DUP3 PUSH2 0x1D95 JUMP JUMPDEST PUSH8 0xFFFFFFFFFFFFFFFF DUP2 GT ISZERO PUSH2 0x267C JUMPI PUSH2 0x267B PUSH2 0x1FFA JUMP JUMPDEST JUMPDEST PUSH2 0x2686 DUP3 SLOAD PUSH2 0x228E JUMP JUMPDEST PUSH2 0x2691 DUP3 DUP3 DUP6 PUSH2 0x25CD JUMP JUMPDEST PUSH1 0x0 PUSH1 0x20 SWAP1 POP PUSH1 0x1F DUP4 GT PUSH1 0x1 DUP2 EQ PUSH2 0x26C4 JUMPI PUSH1 0x0 DUP5 ISZERO PUSH2 0x26B2 JUMPI DUP3 DUP8 ADD MLOAD SWAP1 POP JUMPDEST PUSH2 0x26BC DUP6 DUP3 PUSH2 0x263E JUMP JUMPDEST DUP7 SSTORE POP PUSH2 0x2724 JUMP JUMPDEST PUSH1 0x1F NOT DUP5 AND PUSH2 0x26D2 DUP7 PUSH2 0x24AE JUMP JUMPDEST PUSH1 0x0 JUMPDEST DUP3 DUP2 LT ISZERO PUSH2 0x26FA JUMPI DUP5 DUP10 ADD MLOAD DUP3 SSTORE PUSH1 0x1 DUP3 ADD SWAP2 POP PUSH1 0x20 DUP6 ADD SWAP5 POP PUSH1 0x20 DUP2 ADD SWAP1 POP PUSH2 0x26D5 JUMP JUMPDEST DUP7 DUP4 LT ISZERO PUSH2 0x2717 JUMPI DUP5 DUP10 ADD MLOAD PUSH2 0x2713 PUSH1 0x1F DUP10 AND DUP3 PUSH2 0x2620 JUMP JUMPDEST DUP4 SSTORE POP JUMPDEST PUSH1 0x1 PUSH1 0x2 DUP9 MUL ADD DUP9 SSTORE POP POP POP JUMPDEST POP POP POP POP POP POP JUMP JUMPDEST PUSH32 0x4F6E6C79206C616E646C6F72642063616E206163636573732074686973000000 PUSH1 0x0 DUP3 ADD MSTORE POP JUMP JUMPDEST PUSH1 0x0 PUSH2 0x2762 PUSH1 0x1D DUP4 PUSH2 0x1DA0 JUMP JUMPDEST SWAP2 POP PUSH2 0x276D DUP3 PUSH2 0x272C JUMP JUMPDEST PUSH1 0x20 DUP3 ADD SWAP1 POP SWAP2 SWAP1 POP JUMP JUMPDEST PUSH1 0x0 PUSH1 0x20 DUP3 ADD SWAP1 POP DUP2 DUP2 SUB PUSH1 0x0 DUP4 ADD MSTORE PUSH2 0x2791 DUP2 PUSH2 0x2755 JUMP JUMPDEST SWAP1 POP SWAP2 SWAP1 POP JUMP JUMPDEST PUSH32 0x54696D65206973206C65667420666F7220636F6E747261637420746F20656E64 PUSH1 0x0 DUP3 ADD MSTORE POP JUMP JUMPDEST PUSH1 0x0 PUSH2 0x27CE PUSH1 0x20 DUP4 PUSH2 0x1DA0 JUMP JUMPDEST SWAP2 POP PUSH2 0x27D9 DUP3 PUSH2 0x2798 JUMP JUMPDEST PUSH1 0x20 DUP3 ADD SWAP1 POP SWAP2 SWAP1 POP JUMP JUMPDEST PUSH1 0x0 PUSH1 0x20 DUP3 ADD SWAP1 POP DUP2 DUP2 SUB PUSH1 0x0 DUP4 ADD MSTORE PUSH2 0x27FD DUP2 PUSH2 0x27C1 JUMP JUMPDEST SWAP1 POP SWAP2 SWAP1 POP JUMP JUMPDEST PUSH32 0x41677265656D656E7420616C726561647920456E646564000000000000000000 PUSH1 0x0 DUP3 ADD MSTORE POP JUMP JUMPDEST PUSH1 0x0 PUSH2 0x283A PUSH1 0x17 DUP4 PUSH2 0x1DA0 JUMP JUMPDEST SWAP2 POP PUSH2 0x2845 DUP3 PUSH2 0x2804 JUMP JUMPDEST PUSH1 0x20 DUP3 ADD SWAP1 POP SWAP2 SWAP1 POP JUMP JUMPDEST PUSH1 0x0 PUSH1 0x20 DUP3 ADD SWAP1 POP DUP2 DUP2 SUB PUSH1 0x0 DUP4 ADD MSTORE PUSH2 0x2869 DUP2 PUSH2 0x282D JUMP JUMPDEST SWAP1 POP SWAP2 SWAP1 POP JUMP JUMPDEST PUSH32 0x4E6F2070726576696F75732061677265656D656E7420666F756E642077697468 PUSH1 0x0 DUP3 ADD MSTORE PUSH32 0x20796F752026206C616E646C6F72640000000000000000000000000000000000 PUSH1 0x20 DUP3 ADD MSTORE POP JUMP JUMPDEST PUSH1 0x0 PUSH2 0x28CC PUSH1 0x2F DUP4 PUSH2 0x1DA0 JUMP JUMPDEST SWAP2 POP PUSH2 0x28D7 DUP3 PUSH2 0x2870 JUMP JUMPDEST PUSH1 0x40 DUP3 ADD SWAP1 POP SWAP2 SWAP1 POP JUMP JUMPDEST PUSH1 0x0 PUSH1 0x20 DUP3 ADD SWAP1 POP DUP2 DUP2 SUB PUSH1 0x0 DUP4 ADD MSTORE PUSH2 0x28FB DUP2 PUSH2 0x28BF JUMP JUMPDEST SWAP1 POP SWAP2 SWAP1 POP JUMP JUMPDEST PUSH32 0x54696D65206C65667420746F207061792052656E740000000000000000000000 PUSH1 0x0 DUP3 ADD MSTORE POP JUMP JUMPDEST PUSH1 0x0 PUSH2 0x2938 PUSH1 0x15 DUP4 PUSH2 0x1DA0 JUMP JUMPDEST SWAP2 POP PUSH2 0x2943 DUP3 PUSH2 0x2902 JUMP JUMPDEST PUSH1 0x20 DUP3 ADD SWAP1 POP SWAP2 SWAP1 POP JUMP JUMPDEST PUSH1 0x0 PUSH1 0x20 DUP3 ADD SWAP1 POP DUP2 DUP2 SUB PUSH1 0x0 DUP4 ADD MSTORE PUSH2 0x2967 DUP2 PUSH2 0x292B JUMP JUMPDEST SWAP1 POP SWAP2 SWAP1 POP JUMP INVALID LOG2 PUSH5 0x6970667358 0x22 SLT KECCAK256 PUSH26 0xE1E58F386D7C5558EF2DF0E115958BE33AAA6DF345749C300B31 0xC4 NUMBER 0xB2 0x5E SWAP4 PUSH5 0x736F6C6343 STOP ADDMOD SLT STOP CALLER "
				},
				"gasEstimates": {
					"creation": {
						"codeDepositCost": "2132000",
						"executionCost": "17290",
						"totalCost": "2149290"
					},
					"external": {
						"Rent_by_No(uint256)": "infinite",
						"RoomAgreement_by_No(uint256)": "infinite",
						"Room_by_No(uint256)": "infinite",
						"addRoom(string,string,uint256,uint256)": "infinite",
						"agreementCompleted(uint256)": "infinite",
						"agreementTerminated(uint256)": "infinite",
						"no_of_agreement()": "2474",
						"no_of_rent()": "2495",
						"no_of_rooms()": "2451",
						"payRent(uint256)": "infinite",
						"signAgreement(uint256)": "infinite"
					}
				},
				"methodIdentifiers": {
					"Rent_by_No(uint256)": "d0d205b7",
					"RoomAgreement_by_No(uint256)": "02bb2725",
					"Room_by_No(uint256)": "46959587",
					"addRoom(string,string,uint256,uint256)": "63e475bd",
					"agreementCompleted(uint256)": "16abb8a1",
					"agreementTerminated(uint256)": "4f5e4428",
					"no_of_agreement()": "0ff2a806",
					"no_of_rent()": "75eb9ef6",
					"no_of_rooms()": "59e2cbec",
					"payRent(uint256)": "d9e8843f",
					"signAgreement(uint256)": "03742de0"
				}
			},
			"storageLayout": {
				"storage": [
					{
						"astId": 3,
						"contract": "Desktop/SolidityGit/Hostel.sol:Hostel",
						"label": "tenant",
						"offset": 0,
						"slot": "0",
						"type": "t_address_payable"
					},
					{
						"astId": 5,
						"contract": "Desktop/SolidityGit/Hostel.sol:Hostel",
						"label": "landlord",
						"offset": 0,
						"slot": "1",
						"type": "t_address_payable"
					},
					{
						"astId": 8,
						"contract": "Desktop/SolidityGit/Hostel.sol:Hostel",
						"label": "no_of_rooms",
						"offset": 0,
						"slot": "2",
						"type": "t_uint256"
					},
					{
						"astId": 11,
						"contract": "Desktop/SolidityGit/Hostel.sol:Hostel",
						"label": "no_of_agreement",
						"offset": 0,
						"slot": "3",
						"type": "t_uint256"
					},
					{
						"astId": 14,
						"contract": "Desktop/SolidityGit/Hostel.sol:Hostel",
						"label": "no_of_rent",
						"offset": 0,
						"slot": "4",
						"type": "t_uint256"
					},
					{
						"astId": 40,
						"contract": "Desktop/SolidityGit/Hostel.sol:Hostel",
						"label": "Room_by_No",
						"offset": 0,
						"slot": "5",
						"type": "t_mapping(t_uint256,t_struct(Room)35_storage)"
					},
					{
						"astId": 66,
						"contract": "Desktop/SolidityGit/Hostel.sol:Hostel",
						"label": "RoomAgreement_by_No",
						"offset": 0,
						"slot": "6",
						"type": "t_mapping(t_uint256,t_struct(RoomAgreement)61_storage)"
					},
					{
						"astId": 90,
						"contract": "Desktop/SolidityGit/Hostel.sol:Hostel",
						"label": "Rent_by_No",
						"offset": 0,
						"slot": "7",
						"type": "t_mapping(t_uint256,t_struct(Rent)85_storage)"
					}
				],
				"types": {
					"t_address_payable": {
						"encoding": "inplace",
						"label": "address payable",
						"numberOfBytes": "20"
					},
					"t_bool": {
						"encoding": "inplace",
						"label": "bool",
						"numberOfBytes": "1"
					},
					"t_mapping(t_uint256,t_struct(Rent)85_storage)": {
						"encoding": "mapping",
						"key": "t_uint256",
						"label": "mapping(uint256 => struct Hostel.Rent)",
						"numberOfBytes": "32",
						"value": "t_struct(Rent)85_storage"
					},
					"t_mapping(t_uint256,t_struct(Room)35_storage)": {
						"encoding": "mapping",
						"key": "t_uint256",
						"label": "mapping(uint256 => struct Hostel.Room)",
						"numberOfBytes": "32",
						"value": "t_struct(Room)35_storage"
					},
					"t_mapping(t_uint256,t_struct(RoomAgreement)61_storage)": {
						"encoding": "mapping",
						"key": "t_uint256",
						"label": "mapping(uint256 => struct Hostel.RoomAgreement)",
						"numberOfBytes": "32",
						"value": "t_struct(RoomAgreement)61_storage"
					},
					"t_string_storage": {
						"encoding": "bytes",
						"label": "string",
						"numberOfBytes": "32"
					},
					"t_struct(Rent)85_storage": {
						"encoding": "inplace",
						"label": "struct Hostel.Rent",
						"members": [
							{
								"astId": 68,
								"contract": "Desktop/SolidityGit/Hostel.sol:Hostel",
								"label": "rentno",
								"offset": 0,
								"slot": "0",
								"type": "t_uint256"
							},
							{
								"astId": 70,
								"contract": "Desktop/SolidityGit/Hostel.sol:Hostel",
								"label": "roomid",
								"offset": 0,
								"slot": "1",
								"type": "t_uint256"
							},
							{
								"astId": 72,
								"contract": "Desktop/SolidityGit/Hostel.sol:Hostel",
								"label": "agreementid",
								"offset": 0,
								"slot": "2",
								"type": "t_uint256"
							},
							{
								"astId": 74,
								"contract": "Desktop/SolidityGit/Hostel.sol:Hostel",
								"label": "Roomname",
								"offset": 0,
								"slot": "3",
								"type": "t_string_storage"
							},
							{
								"astId": 76,
								"contract": "Desktop/SolidityGit/Hostel.sol:Hostel",
								"label": "RoomAddresss",
								"offset": 0,
								"slot": "4",
								"type": "t_string_storage"
							},
							{
								"astId": 78,
								"contract": "Desktop/SolidityGit/Hostel.sol:Hostel",
								"label": "rent_per_month",
								"offset": 0,
								"slot": "5",
								"type": "t_uint256"
							},
							{
								"astId": 80,
								"contract": "Desktop/SolidityGit/Hostel.sol:Hostel",
								"label": "timestamp",
								"offset": 0,
								"slot": "6",
								"type": "t_uint256"
							},
							{
								"astId": 82,
								"contract": "Desktop/SolidityGit/Hostel.sol:Hostel",
								"label": "tenantAddress",
								"offset": 0,
								"slot": "7",
								"type": "t_address_payable"
							},
							{
								"astId": 84,
								"contract": "Desktop/SolidityGit/Hostel.sol:Hostel",
								"label": "landlordAddress",
								"offset": 0,
								"slot": "8",
								"type": "t_address_payable"
							}
						],
						"numberOfBytes": "288"
					},
					"t_struct(Room)35_storage": {
						"encoding": "inplace",
						"label": "struct Hostel.Room",
						"members": [
							{
								"astId": 16,
								"contract": "Desktop/SolidityGit/Hostel.sol:Hostel",
								"label": "roomid",
								"offset": 0,
								"slot": "0",
								"type": "t_uint256"
							},
							{
								"astId": 18,
								"contract": "Desktop/SolidityGit/Hostel.sol:Hostel",
								"label": "agreementid",
								"offset": 0,
								"slot": "1",
								"type": "t_uint256"
							},
							{
								"astId": 20,
								"contract": "Desktop/SolidityGit/Hostel.sol:Hostel",
								"label": "roomname",
								"offset": 0,
								"slot": "2",
								"type": "t_string_storage"
							},
							{
								"astId": 22,
								"contract": "Desktop/SolidityGit/Hostel.sol:Hostel",
								"label": "roomaddress",
								"offset": 0,
								"slot": "3",
								"type": "t_string_storage"
							},
							{
								"astId": 24,
								"contract": "Desktop/SolidityGit/Hostel.sol:Hostel",
								"label": "rent_per_month",
								"offset": 0,
								"slot": "4",
								"type": "t_uint256"
							},
							{
								"astId": 26,
								"contract": "Desktop/SolidityGit/Hostel.sol:Hostel",
								"label": "securityDeposit",
								"offset": 0,
								"slot": "5",
								"type": "t_uint256"
							},
							{
								"astId": 28,
								"contract": "Desktop/SolidityGit/Hostel.sol:Hostel",
								"label": "timestamp",
								"offset": 0,
								"slot": "6",
								"type": "t_uint256"
							},
							{
								"astId": 30,
								"contract": "Desktop/SolidityGit/Hostel.sol:Hostel",
								"label": "vacant",
								"offset": 0,
								"slot": "7",
								"type": "t_bool"
							},
							{
								"astId": 32,
								"contract": "Desktop/SolidityGit/Hostel.sol:Hostel",
								"label": "landlord",
								"offset": 1,
								"slot": "7",
								"type": "t_address_payable"
							},
							{
								"astId": 34,
								"contract": "Desktop/SolidityGit/Hostel.sol:Hostel",
								"label": "currentTenant",
								"offset": 0,
								"slot": "8",
								"type": "t_address_payable"
							}
						],
						"numberOfBytes": "288"
					},
					"t_struct(RoomAgreement)61_storage": {
						"encoding": "inplace",
						"label": "struct Hostel.RoomAgreement",
						"members": [
							{
								"astId": 42,
								"contract": "Desktop/SolidityGit/Hostel.sol:Hostel",
								"label": "roomid",
								"offset": 0,
								"slot": "0",
								"type": "t_uint256"
							},
							{
								"astId": 44,
								"contract": "Desktop/SolidityGit/Hostel.sol:Hostel",
								"label": "agreementid",
								"offset": 0,
								"slot": "1",
								"type": "t_uint256"
							},
							{
								"astId": 46,
								"contract": "Desktop/SolidityGit/Hostel.sol:Hostel",
								"label": "Roomname",
								"offset": 0,
								"slot": "2",
								"type": "t_string_storage"
							},
							{
								"astId": 48,
								"contract": "Desktop/SolidityGit/Hostel.sol:Hostel",
								"label": "RoomAddresss",
								"offset": 0,
								"slot": "3",
								"type": "t_string_storage"
							},
							{
								"astId": 50,
								"contract": "Desktop/SolidityGit/Hostel.sol:Hostel",
								"label": "rent_per_month",
								"offset": 0,
								"slot": "4",
								"type": "t_uint256"
							},
							{
								"astId": 52,
								"contract": "Desktop/SolidityGit/Hostel.sol:Hostel",
								"label": "securityDeposit",
								"offset": 0,
								"slot": "5",
								"type": "t_uint256"
							},
							{
								"astId": 54,
								"contract": "Desktop/SolidityGit/Hostel.sol:Hostel",
								"label": "lockInPeriod",
								"offset": 0,
								"slot": "6",
								"type": "t_uint256"
							},
							{
								"astId": 56,
								"contract": "Desktop/SolidityGit/Hostel.sol:Hostel",
								"label": "timestamp",
								"offset": 0,
								"slot": "7",
								"type": "t_uint256"
							},
							{
								"astId": 58,
								"contract": "Desktop/SolidityGit/Hostel.sol:Hostel",
								"label": "tenantAddress",
								"offset": 0,
								"slot": "8",
								"type": "t_address_payable"
							},
							{
								"astId": 60,
								"contract": "Desktop/SolidityGit/Hostel.sol:Hostel",
								"label": "landlordAddress",
								"offset": 0,
								"slot": "9",
								"type": "t_address_payable"
							}
						],
						"numberOfBytes": "320"
					},
					"t_uint256": {
						"encoding": "inplace",
						"label": "uint256",
						"numberOfBytes": "32"
					}
				}
			},
			"userdoc": {
				"kind": "user",
				"methods": {},
				"version": 1
			}
		}
	}
}